:020000040800F2
:1000000050070020CD010008550600082106000811
:1000100051060008E9040008AB0C000800000000CD
:100020000000000000000000000000004D0A000871
:10003000ED0400080000000079090008610B0008C9
:10004000E7010008E7010008E7010008E7010008F0
:10005000E7010008E7010008E7010008E7010008E0
:10006000E7010008E7010008E7010008E7010008D0
:10007000E7010008E7010008E7010008E7010008C0
:10008000E7010008E7010008E7010008E7010008B0
:10009000E7010008E7010008E7010008E7010008A0
:1000A000E7010008E7010008E7010008E701000890
:1000B000E7010008E7010008E7010008E701000880
:1000C000E7010008E7010008E7010008E701000870
:1000D000E7010008C50B0008E7010008E701000878
:1000E000E7010008E7010008E7010008E701000850
:1000F000E7010008E7010008E7010008E701000840
:10010000E7010008E7010008E7010008E70100082F
:10011000E7010008E7010008E7010008E70100081F
:10012000E7010008E7010008E7010008E70100080F
:1001300000F002F800F03AF80AA090E8000C8244BF
:100140008344AAF10107DA4501D100F02FF8AFF29C
:10015000090EBAE80F0013F0010F18BFFB1A43F0A5
:10016000010318470822000028220000103A24BF8B
:1001700078C878C1FAD8520724BF30C830C144BF0C
:1001800004680C607047000000230024002500264E
:10019000103A28BF78C1FBD8520728BF30C148BFEA
:1001A0000B6070471FB51FBD10B510BD00F046F8BD
:1001B0001146FFF7F7FF00F0AFFE00F064F803B45C
:1001C000FFF7F2FF03BC00F0C9FD000009488047BB
:1001D00009480047FEE7FEE7FEE7FEE7FEE7FEE729
:1001E000FEE7FEE7FEE7FEE704480549054A064B41
:1001F00070470000650B0008310100085001002025
:100200005007002050030020500300207047704723
:1002100070477047704710B500F008F8006810BDCF
:1002200010B5044600F002F8046010BD00487047A5
:10023000EC00002000487047EC0000207546FFF7F6
:10024000F9FFAE4605006946534620F00700854693
:1002500018B020B5FFF7C8FFBDE820404FF00006FA
:100260004FF000074FF000084FF0000B21F007019E
:10027000AC46ACE8C009ACE8C009ACE8C009ACE8E1
:10028000C0098D46704710B50446AFF30080204684
:10029000BDE81040FFF793BF21B1826842F0010230
:1002A000826003E0826822F00102826070470146AA
:1002B00000208A6802F004020AB1012000E0002058
:1002C00070470146C86C80B2704702460020136830
:1002D0000B400BB1012000E00020704701460020D8
:1002E0008A6802F008020AB1012000E0002070478D
:1002F00030B502460020002350680F4C20400D7995
:100300000C6844EA05242043506090680B4C204060
:10031000D1E902542C434D7944EA450420439060CE
:10032000D06A20F470000C7C641EE4B2234340EADF
:100330000350D06230BD0000FFFEF0FFFDF7F1FF7B
:10034000F0B504460D4600200021092D11DDE068BE
:10035000A5F10A0606EB4607072606FA07F18843C9
:10036000A5F10A0606EB460603FA06F10843E0602B
:100370000CE0206905EB4507072606FA07F18843DC
:1003800005EB450603FA06F108432061072A0FDA58
:10039000606B561E06EB86071F2606FA07F1884398
:1003A000561E06EB860605FA06F10843606322E056
:1003B0000D2A0FDA206BD61F06EB86071F2606FADA
:1003C00007F18843D61F06EB860605FA06F10843B7
:1003D000206310E0E06AA2F10D0606EB86071F26F7
:1003E00006FA07F18843A2F10D0606EB860605FA28
:1003F00006F10843E062F0BD816841F008018160C8
:10040000704721B1826842F4A002826003E08268F2
:1004100022F4A00282607047816841F0040181608B
:100420007047000010B501210648FFF7EAFF00BF42
:1004300002210448FFF749FF0028F9D00148FFF7DF
:1004400040FF10BD0024014000B587B001214802E3
:1004500000F0A0FA0121042000F09CFA4FF40040C3
:1004600000F08CFA00208DF81B000120ADF8180078
:1004700003208DF81A0006A9194800F038F800206A
:10048000019004904FF46020039000208DF8090043
:100490008DF8080001208DF8140001A91148FFF71C
:1004A00027FF01210F48FFF7F7FE0E48FFF7A4FFD3
:1004B00000BF0C48FFF712FF0128FAD00948FFF7E8
:1004C000ABFF00BF0748FFF7F2FE0128FAD0062372
:1004D000012200210348FFF733FF07B000BD0000F1
:1004E000000801400024014000BFFEE770472DE9ED
:1004F000F0410246002500260020002300240027AA
:1005000091F803C00CF00F0591F803C00CF0100C2B
:10051000BCF1000F03D091F802C04CEA050591F838
:1005200000C0BCF1000F31D0146800202BE04FF068
:10053000010C0CFA00F3B1F800C00CEA03069E426D
:1005400020D183004FF00F0C0CFA03F7BC4305FADF
:1005500003FC4CEA040491F803C0BCF1280F06D157
:100560004FF0010C0CFA00FCC2F814C00AE091F83C
:1005700003C0BCF1480F05D14FF0010C0CFA00FC90
:10058000C2F810C0401C0828D1D31460B1F800C0D4
:10059000BCF1FF0F34DD546800202EE000F1080CA0
:1005A0004FF0010808FA0CF3B1F800C00CEA03069A
:1005B0009E4221D183004FF00F0C0CFA03F7BC438D
:1005C00005FA03FC4CEA040491F803C0BCF1280FBF
:1005D00005D100F1080C08FA0CF8C2F8148091F863
:1005E00003C0BCF1480F07D100F1080C4FF001081F
:1005F00008FA0CF8C2F81080401C0828CED35460CA
:10060000BDE8F0810246002093680B400BB1012049
:1006100000E0002070470AB1016100E041617047CD
:1006200000BFFEE708B50121082000F0B3F948201B
:100630008DF803004FF47040ADF8000003208DF8F2
:10064000020069460148FFF752FF08BD000C014057
:1006500000BFFEE7704770B500240EE00021204681
:1006600000F0E6F8002504E0002000F06BF9681CBB
:10067000C5B2802DF8DB601CC4B2082CEEDB70BD67
:1006800070B5002406E0002500E06D1CB5F57A7F0A
:10069000FBD3641CB4F57A7FF5D300F053F8AE2099
:1006A00000F034F9D52000F031F9802000F02EF967
:1006B000A82000F02BF93F2000F028F9D32000F00B
:1006C00025F9002000F022F9402000F01FF9A120B8
:1006D00000F01CF9C82000F019F9DA2000F016F932
:1006E000122000F013F9812000F010F9CF2000F063
:1006F0000DF9D92000F00AF9F12000F007F9DB200C
:1007000000F004F9302000F001F9A42000F0FEF818
:10071000A62000F0FBF88D2000F0F8F8142000F07F
:10072000F5F8AF2000F0F2F8FFF795FF70BD10B5B7
:100730000246012000E050430B1EA1F10101FAD155
:1007400010BD000008B50121042000F023F90121AB
:10075000082000F01FF910208DF8030003208DF809
:1007600002004FF48050ADF8000069461E48FFF7C4
:10077000BEFE4FF40050ADF8000069461A48FFF77E
:10078000B6FE4FF48040ADF8000069461648FFF70A
:10079000AEFE4FF40040ADF8000069461248FFF786
:1007A000A6FE4FF48070ADF8000069460F48FFF7D1
:1007B0009EFE012211030C48FFF72DFF0122510379
:1007C0000948FFF728FF012291030748FFF723FF9D
:1007D0000122D1030448FFF71EFF01221102034842
:1007E000FFF719FF08BD0000000C014000080140A0
:1007F00070B50546002415E000224FF480510B48E7
:10080000FFF709FF8020204100EA05024FF4005164
:100810000648FFF700FF012211030448FFF7FBFE23
:10082000601CC4B2082CE7DB70BD0000000C014066
:1008300070B505460C4645F0B00000F067F8102191
:1008400041EA141000F062F804F00F0000F05EF8C6
:1008500070BD00002DE9F04105460E461746721E98
:10086000D206110E6A1E5206100EFFF7E1FF002499
:1008700009E0A7F12001134A02EB0111085D00F025
:1008800061F8601CC4B2082CF3DB721ED206110E94
:100890006A1E012303EB4202D0B2FFF7C9FF002416
:1008A0000BE0A7F12001074A02EB011204F1080155
:1008B000505C00F047F8601CC4B2082CF1DBBDE8C6
:1008C000F08100007C1D00082DE9F04780460E46AF
:1008D00017461D46002415E0281B411E0A20FFF77D
:1008E00026FFB7FBF0F00A21B0FBF1F201FB12008A
:1008F00000F130093019C1B24A464046FFF7AAFF5D
:10090000601CC4B2AC42E7DBBDE8F08710B504461A
:1009100000224FF480710948FFF77DFE00224FF45A
:1009200000410748FFF777FE2046FFF761FF0122ED
:1009300011020248FFF76FFE10BD000000080140E1
:10094000000C014010B5044600224FF480710848A5
:10095000FFF761FE0122D1030648FFF75CFE204647
:10096000FFF746FF012211020148FFF754FE10BDB8
:1009700000080140000C01407047000001460020C3
:10098000034A506820F4404008435060704700001C
:100990000010024029B1064A92690243044B9A6151
:1009A00004E0034A92698243014B9A617047000058
:1009B000001002402DE9FF47142000F087FA4FF0A5
:1009C000000A002004460546804626E0FFF72AFD7F
:1009D000814600F067FD06460022194B00F0B2FD8B
:1009E0000022184BCDE9000100F004FCCDE9020122
:1009F00000F01AFB82465146504601F0F3F881465A
:100A000001F0A4F8064622462B4600F03FFB0446C0
:100A10000D4608F101001FFA80F8B8F57A7FD5DBA2
:100A20000022094B2046294600F0E4FB064600F070
:100A3000D5FA804600F0F8FA04B0BDE8F08700006F
:100A400000000C4000FEAF4000408F40704710B5E2
:100A500000F002F810BD00000CB5002001900090DD
:100A60003348006840F480303149086000BF3048A6
:100A7000006800F4003000900198401C019000983C
:100A800018B90198B0F5A06FF1D12948006800F4B9
:100A9000003010B10120009001E00020009000988B
:100AA000012843D12348006840F010002149086024
:100AB0000846006820F0030008600846006840F01F
:100AC000020008601A4840681949486008464068B2
:100AD00048600846406840F48060486008464068C6
:100AE00020F47C1048600846406840F4E8104860F4
:100AF0000846006840F08070086000BF0C4800683D
:100B000000F000700028F9D00948406820F0030088
:100B1000074948600846406840F00200486000BF4E
:100B20000348406800F00C000828F9D10CBD000013
:100B30000010024000200240042808D14FF0E021BC
:100B4000096941F004014FF0E022116107E04FF024
:100B5000E021096921F004014FF0E02211617047A2
:100B60007047000010B51348006840F001001149BB
:100B7000086008464068104908400E494860084629
:100B800000680E4908400B4908600846006820F4D8
:100B9000802008600846406820F4FE0048604FF45A
:100BA0001F008860FFF753FF4FF0006004490860A2
:100BB00010BD0000001002400000FFF8FFFFF6FE2D
:100BC00008ED00E010B540F225511D4800F03EF858
:100BD00010B31B4800F064F8C4B21A48008800F44F
:100BE0000040C8B91748008800F4804060B10A2C62
:100BF00003D000201349088020E01248008840F408
:100C000000401049088019E00D2C06D10D480088DD
:100C100040F480400B49088010E00A480088C0F387
:100C20000D0009490C5407480088401C05490880FC
:100C300008460088C72801DD0020088010BD00009C
:100C400000380140200000202400002070B502463A
:100C5000002400230025002040F66A16B14200D18E
:100C600000BFC1F3421501F01F03012606FA03F38A
:100C7000012D02D19689334006E0022D02D1168A59
:100C8000334001E0968A33400C12012606FA04F440
:100C90001688344013B10CB1012000E0002070BD73
:100CA00001468888C0F30800704700BFFEE70000D7
:100CB00070B50446002013490860002C05DA604234
:100CC00044B20020091F086003E001200D49091FFC
:100CD000086000250FE0012000F0F8F80020094925
:100CE00008390860012000F0F1F801200649C1F838
:100CF000A801681CC5B2A542EDDB012001490860CE
:100D000070BD0000B00121420000214208B5012160
:100D10000420FFF73FFE4FF4E050ADF80000032041
:100D20008DF8020010208DF8030069460848FFF78F
:100D3000DEFB0120074908600749C1F8A801054901
:100D4000091F08606FF06300FFF7B2FF08BD0000E5
:100D500000080140B00121420000214200BF70475D
:100D600010B50A480078401C40B20849087008468F
:100D700090F90000212803DD21200870002010BD1B
:100D80000120FFF795FF0120F9E700000000002097
:100D900070B5FFF70FFE0646304600F0D7FE04465A
:100DA000344A354B00F0CCFC05D2344890F90000B1
:100DB00001280ADC47E0304600F0C8FE04462D4A10
:100DC0002F4B00F0BDFC00D23DE06FF06300FFF759
:100DD0006FFF002029490870FFF7ECFD06463046FA
:100DE00000F0B4FE0446234A254B00F0A9FC00D2D3
:100DF00029E022E0FFF7DEFD0646304600F0A6FEC1
:100E000004461C4A1E4B00F09BFC00D219E0022352
:100E10001A4890F9002019460120FFF755FD19499D
:100E2000304600F0DFFE054600F0BCFE0446042319
:100E3000224602210320FFF747FDFFF791FF00281C
:100E4000D8D100BF00BF0F49304600F0CBFE0546A9
:100E500000F0A8FE04460423224602210320FFF7E7
:100E600033FD0223054890F9002019460120FFF7C1
:100E70002BFD70BD9A999999999901400000002025
:100E80009999D93F00007A4410B56FF00400FFF73C
:100E900053FE0A4800680A49B0FBF1F0094908709E
:100EA0000846007800EB4001C1EBC0104FF6FF711F
:100EB00001EAC0000449088010BD000004000020C1
:100EC00000127A00180000201A0000200146114A82
:100ED00012884A434FF0E0235A6100229A611A4671
:100EE000126942F001021A6100BF4FF0E02210695E
:100EF00000F001021AB100F48032002AF5D04FF060
:100F0000E022126922F001024FF0E0231A61002270
:100F10009A6170471A000020FFF7B6FFFFF7F6FE50
:100F2000FFF780FBFFF7ACFBFFF78EFA002452E0DF
:100F3000FFF72EFF4FF480512748FFF763FB48B9B6
:100F40000A20FFF7C3FF4FF480512348FFF75AFBF5
:100F500000B140E04FF400511F48FFF753FB48B980
:100F60000A20FFF7B3FF4FF400511B48FFF74AFB7D
:100F700000B130E04FF480411748FFF743FB48B918
:100F80000A20FFF7A3FF4FF480411348FFF73AFB15
:100F900000B120E04FF400410F48FFF733FB48B9A0
:100FA0000A20FFF793FF4FF400410B48FFF72AFB9D
:100FB00000B110E0601C322190FBF1F201FB120045
:100FC000C4B2022322460A210420FFF77DFC6420DC
:100FD000FFF77CFF00BFABE7000C01402DE9F041BB
:100FE00006460F4600F0E2FB041E0D4618BF012026
:100FF000284320F00040C0F17F6000F1E040C00FC6
:101000000ED0301C18BF0120384320F00040C0F142
:101010007F6000F1E040C00F04BF0120FFF700F93E
:1010200020462946BDE8F08121F00042A2F160523D
:10103000B2F5801F01F0004328BFD2F17F6C0BD9BD
:101040005FEA001C43EAC20242EB507018BF7047CF
:1010500028BF20F001007047B2F5801FBCBF1846C2
:1010600070474FEA410C1CF5001F02D2084600F001
:1010700080BE70B500F010FB00000089FFF7F6BFDE
:101080004FF00040A0F580007047000010B591EAD5
:10109000030F48BF83F0004300F17684841A71EB9C
:1010A000030C05D2121943EB0C03001B61EB0C017E
:1010B000DFF824E14FEA1154A4EB135C1EEA430F5E
:1010C00018BF9EEA445F73D023EA0E03DCF1200EC2
:1010D00021EA045143F4801332D322FA0CFE10EBC0
:1010E0000E0023FA0CFE41EB0E01CCF1200E03FAA8
:1010F0000EFE10EB0E0051F10001B1F5801FCCF196
:10110000200E32D201EB045112FA0EF2BDE810406B
:1011100058BF7047401C38BF5FEA420218BF704793
:10112000002814BF20F0010041F100014FEA410303
:1011300013F5001F38BF7047A1F1C04100F0FABAA3
:10114000012A43EB0302ACF1200CDCF11F0E32BF8D
:101150004FF0000E23FA0CF310EB030041EB0451A7
:10116000B4EB115FD0D0A1EB045101F58011490817
:101170005FEA300001EB04510ED350F1000038BF9C
:1011800012FA0EFE08D1BDE81040C9E7401C38BF76
:101190005FEA4202CAD1C3E7BDE810404FEA41030B
:1011A00013F5001F38BF7047A1F1C04100F0C2BA6B
:1011B0009EEA445F08D011EA5E0FBDE8104004BF0C
:1011C00001F0004100207047BDE8104070B500F00C
:1011D00063FA00BF64FBBE3E0000E0FF491058BF49
:1011E000C1F140415B1058BFC3F140438B42EFF364
:1011F000008070472DE9C04130B4DFF8A0C23CEA5E
:10120000111418BF3CEA131400F0EC8081EA0305C6
:101210001CEA111444EAD57418BF1CEA131500F037
:10122000C780A4EB05044FF0004545EAC12145EA1B
:10123000C32341EA505143EA525304F17F74994267
:1012400004F500344FEAC0204FEAC22208BF9042A2
:1012500000F09C804FEA13650FF24016765D4FEA6E
:10126000134506FB05F7C7F1807706FB07F74FEA42
:10127000D737A7FB03687642C8F58038A7FB06CEB0
:1012800038BFA8F1010807FB08E64FF0000EA6FBE7
:10129000028CE6FB03CEDCF1000CCEF1004E38BF31
:1012A000AEF1010EA6FB0C584FF000074FF0000501
:1012B000E6FB0E87A1FB08C6A0FB07CE16EB0E06C9
:1012C00045F10005E1FB076515F1E04E7EBFA4F591
:1012D00080345FEA46066D4116F1800745F100054E
:1012E0004FEA17274FEA066647EA0567A6F1DE468A
:1012F000B6F1805F4FEA15251FD9384624F0010C5E
:1013000005EBC471BCF1FE6F01EB0C1102D8F0BC0F
:10131000BDE8008124425CBF01F5801E9EEAC47FC7
:1013200002D4F0BCBDE80081244238D4F0BCA1F165
:10133000C041BDE8004100F0FDB94FEAD22242EAC7
:1013400043524FEAD323A7FB02864FEAD02040EA5C
:10135000415007FB03661EEA0E0F4FEAD12105FB41
:10136000026658BFA6EB0056B6EB00564FEA520E87
:101370004EEAC37E18EB0E0E56EB530EBDD518EB9E
:1013800002085E417F1C55F10005B6E74FF4801559
:101390004FF000074FF000064FF00008ADE7F0BC3B
:1013A0004FF0000001F1C04101F00041BDE80081B3
:1013B00011EA0C1F0CEA131500D00CE013EA0C1F05
:1013C00000F025804FF00000F0BC81EA030101F03D
:1013D0000041BDE80081F0BCBDE8004181EA0301A5
:1013E00000F0A8B9F0BCBDE8004170B500F054F9B8
:1013F000097EFC3E00F007B881EA03014FF00000CF
:1014000001F00041704781EA030100F093B9F0BC9C
:10141000BDE800414FF0000021497047FFFDFBF996
:10142000F7F5F4F2F0EEEDEBE9E8E6E4E3E1E0DE17
:10143000DDDBDAD8D7D5D4D3D1D0CFCDCCCBCAC889
:10144000C7C6C5C4C2C1C0BFBEBDBCBBBAB9B8B7B0
:10145000B6B5B4B3B2B1B0AFAEADACABAAA9A8A8A3
:10146000A7A6A5A4A3A3A2A1A09F9F9E9D9C9C9B71
:101470009A9999989797969595949393929191901C
:101480008F8F8E8E8D8C8C8B8B8A898988888787AD
:101490008685858484838382828181800000FF0722
:1014A0000000F87FB0FA80F310FA03F10AD0C3F11C
:1014B0001D0303F580634FEA41504FEA035202EBEC
:1014C000D12170474FF000007047000051EA030C33
:1014D00017D41CF5801F58BFBCF5801F00F1068093
:1014E000994218BF704708BF9042704707D711F55F
:1014F000801F58BF13F5801F19D499427047894245
:1015000070471CF5801F08D5BCF5801FF7D58B42AE
:1015100018BF704708BF824270474FF4001C1CEB95
:10152000410F38BF1CEB430F01D28B42704770B59F
:1015300000F0B2F8922449004FF000514FF0805370
:10154000FFF74CBEDFF848C170B51CEA111E1EBF84
:101550001CEA13159EEA0C0F95EA0C0F00F06F8041
:1015600081EA030423EA4C134EEAD47E21EA4C11AB
:1015700041F4801143F48013AE44A1FB024CA0FB64
:101580000365AEF17F7E361955EB0C05A1FB034CCC
:101590004CF10003A0FB021C16EB0C06654153F155
:1015A0000003094218BF46F0010613F4007F0BD177
:1015B0004FEA03314FEA0530340341EA155140EA5E
:1015C00016506FF003020AE04FEAC3214FEAC5202C
:1015D000F40241EA555140EA56506FF0020202EB24
:1015E0002E4201EB025585EACE710AD05FEA440C27
:1015F00018BF24F0004450F1000041F1000120EA3E
:10160000D47040F2FE7C624500D270BDA84214BF87
:101610004FF080444FF04044002E08BF0024BEF13C
:10162000806FA8BFA1F1C041BDE8704080F2828008
:101630004FF0000001F1C04101F0004170479EEA07
:101640000C0F0CEA131518BF95EA0C0F06D04FF0DB
:10165000000081EA030E0EF0004170BD00F01CF89E
:101660008900013E00F007B800F009B84FEA430CCA
:101670005FEA5C5C08D081EA030100F05BB84FEAE6
:10168000410C5FEA5C5CF6D14FF000000149704705
:101690000000FF070000F87F0EF1020E2EF0030E8F
:1016A0005EF8046B364205D4012A43EB030515F5B9
:1016B000001F12D8012841EB010C1CF5001F0CD8AB
:1016C0000ED14FEAD17C15F5001F0CEB4C0C0CF140
:1016D000020C08BF4CEBD37C04E04FF0080C01E097
:1016E0004FEAD37C0CEB4C0526FA05F606F007060C
:1016F000B6F1040C06D20EEB860CBDE870404CF03F
:10170000010C6047DFE80CF0090B02024FF00041CA
:101710004FF00000A1F5002170BD194610460128C8
:1017200051EB010418BFD4F5001484BF002001F070
:10173000004170BD0808A0F500114FEA3101704763
:1017400053EA010C17D41CF5801F58BFBCF5801F4D
:1017500000F106808B4218BF704708BF8242704775
:1017600007D713F5801F58BF11F5801F19D48B427E
:1017700070479B4270471CF5801F08D5BCF5801F41
:10178000F7D5994218BF704708BF904270474FF491
:10179000001C1CEB430F38BF1CEB410F01D29942D8
:1017A00070470FB40CBC03BCFFF7C1BE2DE9F0417C
:1017B00001F5801CBCF5001FC0F2C3804FEA115C2C
:1017C00021EA0C510CF1FD0C41F480115FEA5C0C34
:1017D0000CF5C07C01D3400049413DA4890241EA97
:1017E000905187028E0E0A0CA45D04FB04F602FBE6
:1017F00006F6C6F14046A4FB0662F60D46EA42260E
:1018000006FB06F4A4FB01235242C3F1404338BF58
:101810005B1EA6FB02420024E6FB0324D20B42EA35
:101820004446A6FB0623A1FB02E2A3FB07E4A4189F
:101830004FF0000252F10002E3FB01426442C2F1A8
:10184000404E38BFAEF1010EA6FB04234FF000025C
:10185000E6FB0E32A2FB03464FF00004B61954F12A
:101860000004E2FB0264A1FB06E6A4FB07E816EB1A
:1018700008064FF0000858F10008E4FB01687642C2
:10188000C8F1405838BFA8F10108A2FB06E4A3FB49
:1018900008E52D194FF0000454F10004E2FB085450
:1018A000A1FB05E6A7FB04E818EB06084FF00006CD
:1018B00056F10006E1FB048618F1200556F10006FA
:1018C000A809A8F11B08B10908F03F08B8F10A0FF0
:1018D00040EA86601CD901EB0C51BDE8F08100BFE5
:1018E000FCF5EEE8E2DDD8D3CFCBC7C3C0BDB9B6B7
:1018F000B4B1AEACA9A7A5A3A19F9D9B9A989695BC
:101900009392908F8D8C8B89888786858483828142
:10191000A0FB006800FB01F208EB4208B8EB872847
:1019200007D5341858EB0104D5D5401C51F10001FE
:10193000D1E7341A78EB0104CDD4401E71F10001D7
:10194000C9E75FEA4C0C5FEA9C5C0DD105D34FF010
:10195000000001F00041BDE8F081BDE8F04170B544
:10196000FFF79AFE6DDBFFBEBDE8F0414FF00000CF
:10197000004970470000F87F10B591EA030F48BF97
:1019800083F000433FF58AAB841A71EB030C07D256
:1019900012198CF0004C43EB0C03001B61EB0C01A3
:1019A000DFF8A4E14FEA1154A4EB135C1EEA430FE5
:1019B00018BF9EEA445F00F0B08023EA6E035242F3
:1019C00021EA0451C3EB6E0338BF5B1EDCF1200E2D
:1019D00025D322FA0CFE10EB0E0043FA0CFE41EB6D
:1019E0000E01CCF1200E03FA0EFE10EB0E0051F1A9
:1019F0000001CCF1200E29D412FA0EF201EB0451B1
:101A0000BDE8104058BF7047401C1CBFB2F1004FEA
:101A1000704700280CBF491C20F00100704712EBF2
:101A2000020E43EB030218BF4FF0010E4EEA4202D2
:101A3000ACF1200CDCF11E0E54D943FA0CFE10EB75
:101A40000E0051F1FF31CCF11E0ED5D50EF1010E75
:101A500012FA0EFE404141EB010101EB445C5FEAEA
:101A60005C5C10D910EBDE7001EB045138BFBEF1A5
:101A7000004FBDE8104018BF704700280CBF491C3C
:101A800020F00100704730D24FEAD42C11F500113C
:101A900024F400641BD0B1FA81F20B3AA41AA41EFC
:101AA000D2F12003914030FA03F31943904001EB47
:101AB000CC71002C01EB0451BDE81040A8BF704769
:101AC00001F1C0414FF0000001F000417047B0FA51
:101AD00080F310FA03F100D110BDE41A173C480559
:101AE000C90AE4E701EB045110BD491001EB0451B0
:101AF000BDE810404FEA300002E04FF000017047AF
:101B00004A0008BF0042F8D0B2F5001F28BF704756
:101B100001F000414FF0000070479EEA445F07D09B
:101B200011EA5E0FBDE8104004BF0021002070479D
:101B3000BDE8104070B5FFF7AFFD00BF40DFF63ED7
:101B400083F00041104670470000E0FF43004FEA79
:101B5000D30C4FEA3C0C43401FBF40070CF16051CF
:101B600013F0FE4F70471CF0006F03D100200CF003
:101B7000004170470CF0004343EA507010B540EA52
:101B8000CC0000F0B0F800BF000000924FEA000166
:101B9000FFF7D0BD4FF000414FF00000A1F500214C
:101BA00070470000C10DD1F19E0206DB4FEA002311
:101BB00043F0004323FA02F07047004207D54FEA92
:101BC0004001B1F1FE4F02D24FF00000704710B556
:101BD00000F089F849922480002070476FEA2000C5
:101BE000704700004FF47F0C1CEAD0121EBF1CEAA5
:101BF000D11392EA0C0F93EA0C0F00F0478090EAA1
:101C0000010F48BF42F480724FF0004C4CEA0020B4
:101C10004CEA012102EB0302A0FB0113A2F5000232
:101C2000002918BF43F001035B0028BF4FEA3303CC
:101C300042EB22425FEA132C4CEBC2502EBFBCEBAE
:101C4000436FB2F57C0F70474FEA036CBCF1004F55
:101C500008BF20F00100B2F57C0F38BF70470BD5EC
:101C600082F0FF0212F5803FC8BF704700F1C0400C
:101C7000D8BF00F00040704700F5000C5FEA4C0C44
:101C800048BF7047B0F1C04000F073B890EA010F50
:101C90000CEAD11348BF42F48072624538BF6345F5
:101CA00004D280EA010000F00040704710B500F057
:101CB0001AF800BF8900013E00F007B800F009B82B
:101CC0005FEA410C5FEA1C6C08D080EA010000F07A
:101CD00050B85FEA400C5FEA1C6CF6D14FF0004050
:101CE000A0F5800070470EF1020E2EF0030E5EF894
:101CF000044B244204D44FEA4102B2F17F4F11D881
:101D00004FEA4003B3F17F4F0CD80ED14FEAD07C9D
:101D1000B2F17F4F0CEB4C0C0CF1020C08BF4CEBFA
:101D2000D17C04E04FF0080C01E04FEAD17C0CEBD1
:101D30004C0324FA03F404F00704B4F1040C06D2B3
:101D40000EEB840CBDE810404CF0010C6047DFE85E
:101D50000CF0070802024FF00040A0F5800010BD13
:101D60000846420018BFD2F1807288BF00F00040E0
:101D700010BDFF2141EAD050C005704700000000AF
:101D8000000000000000000000000000000000F85B
:101D900000000000000000333000000000100C06BE
:101DA000100C0600000000000000000040C0784059
:101DB000C0784000043F04043F040400007088FC25
:101DC00008300000001820FF211E0000F008F0007D
:101DD000E018000000211C031E211E0000F00888EE
:101DE000700000001E2123241927211010160E0058
:101DF000000000000000000000000000000000E003
:101E00001804020000000007182040000002041817
:101E1000E00000000040201807000000404080F073
:101E2000804040000202010F01020200000000F0A9
:101E3000000000000101011F01010100000000007D
:101E40000000000080B070000000000000000000F2
:101E5000000000000001010101010101000000007B
:101E60000000000000303000000000000000000012
:101E700080601804006018060100000000E01008EF
:101E80000810E000000F102020100F00001010F8C4
:101E9000000000000020203F202000000070080803
:101EA0000888700000302824222130000030088883
:101EB000884830000018202020110E000000C020AB
:101EC00010F8000000070424243F240000F80888CC
:101ED000880808000019212020110E0000E0108859
:101EE00088180000000F112020110E00003808088B
:101EF000C83808000000003F00000000007088089B
:101F000008887000001C222121221C0000E010081B
:101F10000810E0000000312222110F00000000C074
:101F2000C000000000000030300000000000008011
:101F30000000000000008060000000000000804001
:101F4000201008000001020408102000404040401A
:101F5000404040000404040404040400000810206D
:101F600040800000002010080402010000704808B2
:101F70000808F0000000003036010000C030C8281A
:101F8000E810E0000718272423140B000000C038D5
:101F9000E0000000203C23020227382008F888884F
:101FA00088700000203F202020110E00C03008085B
:101FB00008083800071820202010080008F8080832
:101FC0000810E000203F202020100F0008F888882B
:101FD000E8081000203F20202320180008F88888F7
:101FE000E8081000203F200003000000C03008086F
:101FF0000838000007182020221E020008F80800F8
:102000000008F808203F210101213F20000808F8BE
:10201000080800000020203F2020000000000808E1
:10202000F8080800C08080807F00000008F888C0A1
:1020300028180800203F20012638200008F8080052
:1020400000000000203F20202020300008F8F80089
:10205000F8F80800203F003F003F200008F830C09B
:102060000008F808203F200007183F00E01008088B
:102070000810E0000F10202020100F0008F80808BA
:102080000808F000203F210101010000E0100808CD
:102090000810E0000F18242438504F0008F88888F2
:1020A00088887000203F2000030C302000708808D2
:1020B000080838000038202121221C00180808F8E0
:1020C000080818000000203F2000000008F8080061
:1020D0000008F808001F202020201F000878880032
:1020E00000C83808000007380E010000F80800F8A2
:1020F0000008F800033C0700073C0300081868804C
:102100008068180820302C03032C30200838C800C1
:10211000C83808000000203F200000001008080810
:10212000C83808002038262120201800000000FEB2
:10213000020202000000007F40404000000C30C05E
:1021400000000000000000010638C000000202028A
:10215000FE000000004040407F000000000004023C
:102160000202040000000000000000000000000067
:102170000000000080808080808080800002020457
:10218000000000000000000000000000000080804F
:10219000808000000019242222223F2008F80080BD
:1021A00080000000003F112020110E000000008080
:1021B00080800000000E112020201100000000800F
:1021C0008088F800000E112020103F200000808041
:1021D00080800000001F222222221300008080F055
:1021E000888888180020203F202000000000808080
:1021F00080808000006B94949493600008F80080C5
:1022000080800000203F210000203F20008098981F
:10221000000000000020203F20200000000000807F
:102220009898000000C08080807F000008F80000BF
:1022300080808000203F24022D302000000808F814
:10224000000000000020203F2020000080808080CF
:1022500080808000203F20003F20003F8080008061
:1022600080800000203F210000203F20000080806F
:1022700080800000001F202020201F008080008020
:102280008000000080FFA12020110E0000000080CF
:1022900080808000000E112020A0FF8080808000C0
:1022A0008080800020203F212000010000008080ED
:1022B000808080000033242424241900008080E0E2
:1022C000808000000000001F2020000080800000AF
:1022D00000808000001F202020103F208080800090
:1022E0000080808000010E300806010080800080A0
:1022F000008080800F300C030C300F0000808000C5
:10230000808080000020312E0E31200080808000EF
:102310000080808080818E7018060100008080809F
:10232000808080000021302C22213000000000003D
:10233000807C020200000000003F404000000000DE
:10234000FF00000000000000FF0000000002027C0F
:10235000800000000040403F000000000006010136
:102360000202040400000000000000008C230008AA
:1023700000000020240000006C010008B0230008C9
:10238000240000202C070000880100080000000045
:1023900000A24A0400000000000000000102030443
:1023A000060708090000000000000000000000000F
:04000005080001CD21
:00000001FF
