:020000040800F2
:10000000804800206D02000875760008F130000875
:1000100071760008812B00086F7F00080000000047
:10002000000000000000000000000000D57900087A
:10003000A32D000800000000FD760008E97A000802
:10004000870200088702000887020008870200086C
:10005000870200088702000887020008870200085C
:10006000870200088702000887020008852B000825
:10007000870200088702000887020008870200083C
:10008000870200088702000887020008870200082C
:10009000870200088702000887020008870200081C
:1000A000870200088702000887020008870200080C
:1000B00087020008870200088702000887020008FC
:1000C00087020008870200088702000887020008EC
:1000D000870200084D7D000887020008870200089B
:1000E00087020008870200088702000887020008CC
:1000F00087020008870200088702000887020008BC
:1001000087020008870200088702000887020008AB
:10011000870200088702000887020008870200089B
:10012000870200088702000887020008870200088B
:1001300000F002F800F070F80AA090E8000C824489
:100140008344AAF10107DA4501D100F065F8AFF266
:10015000090EBAE80F0013F0010F18BFFB1A43F0A5
:1001600001031847BCBA0000DCBA000010F8013BDC
:100170000A4413F0030408BF10F8014B1D1108BF17
:1001800010F8015B641E05D010F8016B641E01F8C5
:10019000016BF9D1002D15D010F8014B03F00C03C1
:1001A0000C2BA1EB04040ABF10F8013BA4EB831451
:1001B000A4EB032405F1010314F8016B5B1E01F8A5
:1001C000016BF9D5914238BF10F8013BD1D370478C
:1001D0000023002400250026103A28BF78C1FBD850
:1001E000520728BF30C148BF0B60704766290AF02C
:1001F0006080782901F06C81002070471FB501F004
:1002000030FA01F0DFFC04000020002108F026FF96
:10021000E0601FBD10B510BD01F0DCFD1146FFF719
:10022000EDFF08F059F901F0FAFD03B4FFF7F2FF12
:1002300003BC07F0B9FE00000B49D1F800C04A68C2
:100240005CF8043B1068184442F8040B8C4528BF46
:10025000A1F1DC0C8A4228BFA1F1DC02C1F800C088
:100260004A6020F00040704714420020094880474F
:1002700009480047FEE7FEE7FEE7FEE7FEE7FEE788
:10028000FEE7FEE7FEE7FEE704480549054A064BA0
:1002900070470000ED7A000831010008804200201C
:1002A0008048002080440020804400202DE9F04F49
:1002B0004FF0000C4FF0000301EB9C5EBEF90250C2
:1002C000BEF900400EF5806EBEF90290BEF90080C6
:1002D0000EF5806EBEF90270BEF900600EF5806EFC
:1002E000BEF902B0BEF900A00EF5806ED044D9442C
:1002F000A8EB4A0AA9EB4B0B4FEAA4044FEAA50569
:1003000004EBA60405EBA705A4EB6606A5EB6707BF
:1003100004EBA80405EBA905A4EB6808A5EB6909A3
:1003200006EBAB06A7EBAA07A6EB6B0B07EB6A0A7B
:10033000458020F8044B478020F8046BA0F8029019
:1003400020F8048BA0F802A020F804BB03F10103FD
:1003500093FAA3FCB3F5807FAED1A0EB82014FF0FE
:10036000100312090FF2341000F1000006B403EB81
:10037000430C6144A2F5803202EB8332B1F90250A2
:10038000B1F90040A1EB0301B0F902B0B0F900A04F
:1003900000F10400A5EB040E0EFB0BFC0AEB4B0E68
:1003A00005FB0ACB04FB0ECAB1F90250B1F90040BB
:1003B000A1EB0301B0F90290B0F9008000F1040054
:1003C000A5EB040E0EFB09FC08EB490E05FB08C962
:1003D00004FB0EC8B1F90250B1F90040A1EB0301D2
:1003E000B0F90270B0F9006000F10400A5EB040E52
:1003F0000EFB07FC06EB470E05FB06C704FB0EC60B
:10040000B1F90250B1F9004001F10001D044D944E2
:10041000A8EB4A0AA9EB4B0B4FEAA4044FEAA50547
:1004200004EB264405EB2745A4EBE636A5EBE737BE
:1004300004EB284405EB2945A4EBE838A5EBE939A2
:1004400006EB2B46A7EB2A47A6EBEB3B07EBEA3A7A
:100450004D800C8019444F800E801944A1F8029001
:10046000A1F800801944A1F802A021F804BBB2F55C
:10047000803283DA03EB430C6144A2F101025FEAAC
:10048000024E18BFA0EB0C007FF476AF06BC4FEA1B
:10049000830392087FF46AAFBDE8F08F004000004C
:1004A00000400000004000005DDD213BA3227E18DB
:1004B0000000412D7EA5412D0000412D00C00040CF
:1004C0005DDD82E75DDD213B7EA5412D0040000022
:1004D0000040000000400000AA2A94126B39460632
:1004E00049327C0CA8118E2349327C0CA3227E1841
:1004F00021F77931AA2A9412A8118E235DDD213BC0
:10050000A3227E180000412D95C6B13F461A2B1E2E
:1005100058EE3735BEB4C53EA8118E235DDD213BB4
:1005200063A97138DF089A28B7CDC53E7EA5412D55
:100530000000412D00C0004063A92B1E21F7793136
:10054000BEB4C53EBEB47C0C58EE373561AC213B21
:1005500095C6BAF9BAE571383BA737355DDD82E754
:100560005DDD213B7EA5412D21F766D756D53F3D68
:100570003BA78E23A811C9CAB7CDC53E61AC7E1872
:10058000AA2AC1C295C6B13FBEB47C0C004000008F
:1005900000400000004000001E3BB504693E92018F
:1005A000C83C2403EB356409C83C24036B39460678
:1005B0006C30060E1E3BB504EB356409AA2A941272
:1005C0006B39460649327C0CAE240917AF37D60783
:1005D000882E8D0F7E1E5D1BEB356409AA2A9412AE
:1005E00024188C1F1E34F10AB3269015A8118E23EF
:1005F00049327C0CA3227E18140B60276C30060E47
:100600007E1E5D1B7104FB2A882E8D0F461A2B1E41
:10061000C7FD5A2E9D2C1211FE15E72021F77931C6
:10062000AA2A9412A8118E2387F05334B2281314E7
:10063000480D202602EAE536B3269015DF089A28F1
:100640009CE32B39AE2409177104FB2A5DDD213BA5
:10065000A3227E180000412D4ED7C53C9320EF19F0
:100660008FFB6C2F78D1153E7E1E5D1B21F77931F3
:10067000E2CB0F3F641CC61CB8F2683395C6B13F8D
:10068000461A2B1E58EE373597C1FB3F24188C1F96
:1006900002EAE536F0BCEC3FFE15E720BAE571381A
:1006A000A6B8853FD5133D2282E1DB39BEB4C53EF5
:1006B000A8118E235DDD213B40B1AF3D790FDA24D7
:1006C0004DD9423C2EAE423C480D202656D53F3DEA
:1006D0008EAB823A140B602778D1153E63A971382E
:1006E000DF089A28B7CDC53EB1A71236A906CE2994
:1006F00015CA4F3F78A668337104FB2A95C6B13FEF
:10070000BCA576303902212C38C3EC3F7EA5412DA3
:100710000000412D00C00040BCA5CE29C7FD5A2EC7
:10072000F0BCEC3F78A620268FFB6C2F09BAB13FB6
:10073000B1A73D2257F976304DB74F3F63A92B1E25
:1007400021F77931BEB4C53E8EABEF19ECF47432AB
:100750005EB2153E2EAE9015B8F268332DB03F3D17
:1007600040B1121187F053342EAE423CBEB47C0C23
:1007700058EE373561AC213BA6B8D6072BEC1236C4
:10078000C8AADB39F0BC240302EAE53663A9713854
:1007900097C16EFEDCE7B03734A8E53695C6BAF9E6
:1007A000BAE571383BA73735E2CB0FF59CE32B391F
:1007B00078A6683378D173F082E1DB39EDA5793121
:1007C0004ED7EDEB6DDF823A99A56C2F5DDD82E7A8
:1007D0005DDD213B7EA5412D9CE33AE352DBB63B38
:1007E00099A5FB2A02EA19DF4DD9423CEDA59A28CA
:1007F00087F026DB4ED7C53C78A6202621F766D7A2
:1008000056D53F3D3BA78E23C7FDDFD363D3AF3D16
:1008100034A8E720710494D078D1153E63A92B1E2B
:10082000140B8CCD94CF723EC8AA5D1BA811C9CA07
:10083000B7CDC53E61AC7E18241850C8E2CB0F3F3F
:100840002EAE90157E1E25C615CA4F3F2DB09412B0
:10085000AE244AC451C8853F5EB28D0FAA2AC1C2D8
:1008600095C6B13FBEB47C0C6C308EC1E2C4D43F9F
:100870004DB76409EB35B1C038C3EC3F09BA460641
:100880001E3B2CC097C1FB3FF0BC2403004000007E
:100890000040000000400000D03E2E019B3F65005C
:1008A000363FC9009A3D5B02363FC900693E92015E
:1008B0005F3C8803D03E2E019A3D5B021E3BB5048F
:1008C000693E9201C83C2403D939E205023EF70192
:1008D000F43BED038E380E079A3D5B021E3BB504D8
:1008E0003F373908313DC002463A7E05EB35640991
:1008F000C83C24036B39460692348E0A5F3C880359
:100900008E380E073433B70BF43BED03AF37D60701
:10091000D231DF0C8A3B5104CE369D086C30060E76
:100920001E3BB504EB356409022F2B0FB23A1A05B2
:1009300005352B0A932D5010463A7E051E34F10AD8
:10094000212C7311D939E2053433B70BAA2A94123A
:100950006B39460649327C0C3129B413FD38AA069E
:100960005B31410DB327D2148E380E076C30060E62
:100970003226EE151F3872077B2FCA0EAE240917D8
:10098000AF37D607882E8D0F262321183F37390819
:10099000932D50109C213719CE369D089D2C121195
:1009A0000E204B1A5D360109A42BD3117E1E5D1B50
:1009B000EB356409AA2A9412EB1C6C1C7835C70924
:1009C000AF295413561B791D05352B0AB228131471
:1009D000BE19841E92348E0AB327D21424188C1F99
:1009E0001E34F10AB326901588169120A933540BB2
:1009F000B1254C16EA1493213433B70BAE240917F2
:100A00004A139222BF321A0CA923C417A8118E23AD
:100A100049327C0CA3227E1805108824D231DF0CC9
:100A20009C213719610E7E255B31410D9320EF1912
:100A3000BB0C7126E430A40D891FA71A140B602784
:100A40006C30060E7E1E5D1B6D094C28F42F680E5F
:100A5000721D121CC40735297B2FCA0E641CC61CCC
:100A60001B061A2A022F2B0F561B791D7104FB2A15
:100A7000882E8D0F461A2B1EC702D82B0E2EEE0F76
:100A80003519DC1E1C01B22C932D501024188C1F1C
:100A900072FF882D182DB11011173A20C7FD5A2E5C
:100AA0009D2C1211FE15E7201DFC282F212C7311FF
:100AB000EA14932173FAF22FA42BD311D5133D22FC
:100AC000CAF8B830282B3412BF12E72221F7793147
:100AD000AA2A9412A8118E2379F536322D2AF412FF
:100AE00091103524D2F3EF32AF295413790FDA2461
:100AF0002CF2A3333129B413610E7E2587F05334D1
:100B0000B2281314480D2026E3EEFF343328731463
:100B10002E0CC12641EDA535B327D214140B602746
:100B2000A1EB483633273115FA09FE2702EAE536EC
:100B3000B3269015DF089A2865E87E373226EE1531
:100B4000C4073529CBE61238B1254C16A906CE29A3
:100B500032E5A1382F25AB168D05652A9CE32B398C
:100B6000AE2409177104FB2A08E2B0392B2466175A
:100B700055038F2B77E0303AA923C4173902212C73
:100B8000E9DEAB3A262321181C01B22C5DDD213BA6
:100B9000A3227E180000412DD5DB923B1F22DB18DB
:100BA000E4FECF2D4FDAFD3B9C213719C7FD5A2EAD
:100BB000CDD8643C17219319ABFCE42E4ED7C53C2D
:100BC0009320EF198FFB6C2FD3D5213D0E204B1AAC
:100BD00073FAF22F5CD4783D891FA71A57F9763043
:100BE000E8D2C93D041F021B3CF8F93078D1153E0C
:100BF0007E1E5D1B21F779310CD05C3EF81DB81BC1
:100C000006F6F831A5CE9D3E721D121CECF474322E
:100C100041CDD83EEB1C6C1CD2F3EF32E2CB0F3F40
:100C2000641CC61CB8F2683388CA403FDD1B201D17
:100C30009FF1DF3332C96B3F561B791D87F0533468
:100C4000E1C7913FCE1AD31D6FEFC63495C6B13FB1
:100C5000461A2B1E58EE37354EC5CC3FBE19841EA2
:100C600041EDA5350CC4E13F3519DC1E2BEC1236E5
:100C7000CFC2F13FAD18341F16EB7D3697C1FB3F55
:100C800024188C1F02EAE53665C000409B17E31F5D
:100C9000EFE84B3738BFFF3F11173A20DCE7B0379A
:100CA00011BEF83F88169120CBE61238F0BCEC3F1D
:100CB000FE15E720BAE57138D4BBDB3F74153D2142
:100CC000AAE4CF38BFBAC43FEA1493219CE32B397E
:100CD000AFB9A73F5F14E8218EE28439A6B8853FFB
:100CE000D5133D2282E1DB39A2B75D3F4A13922240
:100CF00077E0303AA5B6303FBF12E7226DDF823A87
:100D0000AFB5FD3E34123B2364DED33ABEB4C53EDC
:100D1000A8118E235DDD213BD5B3883E1D11E22352
:100D200057DC6D3BF2B2453E9110352452DBB63BA9
:100D300015B2FC3D051088244FDAFD3B40B1AF3DB4
:100D4000790FDA244DD9423C71B05B3DED0E2C2574
:100D50004DD8853CA9AF033D610E7E254ED7C53CDD
:100D6000E8AEA53CD40DCF2551D6033D2EAE423C76
:100D7000480D202656D53F3D7BADDA3BBB0C712696
:100D80005CD4783DD0AC6D3B2E0CC12663D3AF3D17
:100D90002BACFA3AA10B11276DD2E33D8EAB823A10
:100DA000140B602778D1153EF8AA063A870AAF27B8
:100DB00085D0453E6AAA8439FA09FE2794CF723E4F
:100DC000E3A9FD386D094C28A5CE9D3E63A9713875
:100DD000DF089A28B7CDC53EEBA8E1375208E728CF
:100DE000CCCCEB3E7BA84B37C4073529E2CB0F3F79
:100DF00012A8B13636078129FBCA303FB1A7123697
:100E0000A906CE2915CA4F3F57A76E351B061A2AC9
:100E100032C96B3F05A7C6348D05652A51C8853F89
:100E2000BBA61934FF04B02A72C79C3F78A668336A
:100E30007104FB2A95C6B13F3EA6B232E303452BAF
:100E4000BAC5C43F0BA6F83155038F2BE2C4D43F7B
:100E5000E0A53931C702D82B0CC4E13FBCA57630E0
:100E60003902212C38C3EC3FA1A5AF2FAA016A2C6F
:100E700066C2F53F8DA5E42E1C01B22C97C1FB3F45
:100E800081A5152E8E00FA2CCAC0FF3F7EA5412DEC
:100E90000000412D00C0004081A56A2C72FF882D02
:100EA00038BFFF3F8DA58F2BE4FECF2D73BEFB3FD8
:100EB000A1A5B02A56FE152EB0BDF53FBCA5CE2982
:100EC000C7FD5A2EF0BCEC3FE0A5E72839FD9F2E68
:100ED00032BCE13F0BA6FE27ABFCE42E77BBD43F30
:100EE0003EA611271DFC282FBFBAC43F78A6202696
:100EF0008FFB6C2F09BAB13FBBA62C2501FBAF2F8E
:100F000056B99C3F05A7352473FAF22FA6B8853F42
:100F100057A73B23E5F93430F8B76B3FB1A73D2223
:100F200057F976304DB74F3F12A83D21CAF8B83077
:100F3000A5B6303F7BA83A203CF8F93000B60F3F09
:100F4000EBA8341FAEF739315EB5EB3E63A92B1E1B
:100F500021F77931BEB4C53EE3A9201D93F6B9311E
:100F600022B49D3E6AAA121C06F6F83188B3723E7E
:100F7000F8AA021B79F53632F2B2453E8EABEF1974
:100F8000ECF474325EB2153E2BACDB185FF4B23277
:100F9000CDB1E33DD0ACC417D2F3EF3240B1AF3D99
:100FA0007BADAB1645F32C33B5B0783D2EAE901526
:100FB000B8F268332DB03F3DE8AE73142CF2A33382
:100FC000A9AF033DA9AF54139FF1DF3328AFC53C50
:100FD00071B0341213F11934A9AE853C40B112112D
:100FE00087F053342EAE423C15B2EE0FFBEF8D343A
:100FF000B6ADFD3BF2B2CA0E6FEFC63441ADB63BA3
:10100000D5B3A40DE3EEFF34D0AC6D3BBEB47C0C85
:1010100058EE373561AC213BAFB5540BCCED6E3596
:10102000F6ABD33AA5B62B0A41EDA5358EAB823A85
:10103000A2B70109B6ECDC3529AB303AA6B8D60721
:101040002BEC1236C8AADB39AFB9AA06A1EB483699
:101050006AAA8439BFBA7E0516EB7D360FAA2B39F2
:10106000D4BB51048CEAB136B7A9CF38F0BC240305
:1010700002EAE53663A9713811BEF70178E918373D
:1010800012A9123838BFC900EFE84B37C5A8B037EE
:1010900065C09BFF65E87E377BA84B3797C16EFE26
:1010A000DCE7B03734A8E536CFC240FD53E7E1377F
:1010B000F1A77D360CC413FCCBE61238B1A712366B
:1010C0004EC5E6FA42E6423874A7A53595C6BAF988
:1010D000BAE571383BA73735E1C78EF832E5A1385C
:1010E00005A7C63432C963F7AAE4CF38D3A6533470
:1010F00088CA39F623E4FD38A4A6DF33E2CB0FF526
:101100009CE32B3978A6683341CDE6F315E35839D3
:1011100050A6EF32A5CEBFF28EE284392CA67432EF
:101120000CD098F108E2B0390BA6F83178D173F001
:1011300082E1DB39EDA57931E8D24FEFFCE0063AE8
:10114000D3A5F9305CD42DEE77E0303ABCA57630EB
:10115000D3D50CEDF2DF593AA9A5F22F4ED7EDEB1E
:101160006DDF823A99A56C2FCDD8CFEAE9DEAB3A94
:101170008DA5E42E4FDAB4E964DED33A85A55A2E64
:10118000D5DB9AE8E1DDFA3A7FA5CF2D5DDD82E778
:101190005DDD213B7EA5412DE9DE6DE6DADC473BD6
:1011A0007FA5B22C77E059E557DC6D3B85A5212C56
:1011B00008E248E4D5DB923B8DA58F2B9CE33AE314
:1011C00052DBB63B99A5FB2A32E52DE2D1DADA3BB8
:1011D000A9A5652ACBE624E14FDAFD3BBCA5CE29C3
:1011E00065E81DE0CED9203CD3A5352902EA19DFF8
:1011F0004DD9423CEDA59A28A1EB18DECDD8643C30
:101200000BA6FE2741ED19DD4DD8853C2CA66027A5
:10121000E3EE1EDCCDD7A53C50A6C12687F026DB29
:101220004ED7C53C78A620262CF231DACFD6E43C46
:10123000A4A67E25D2F33FD951D6033DD3A6DA2406
:1012400079F551D8D3D5213D05A7352421F766D7A7
:1012500056D53F3D3BA78E23CAF87FD6D8D45B3DF9
:1012600074A7E72273FA9BD55CD4783DB1A73D22E1
:101270001DFCBBD4DFD3933DF1A79321C7FDDFD382
:1012800063D3AF3D34A8E72072FF06D3E8D2C93D4F
:101290007BA83A201C0131D26DD2E33DC5A88C1F3A
:1012A000C70261D1F2D1FC3D12A9DC1E710494D0B9
:1012B00078D1153E63A92B1E1B06CCCFFED02D3E48
:1012C000B7A9791DC40707CF85D0453E0FAAC61C14
:1012D0006D0947CE0CD05C3E6AAA121C140B8CCD53
:1012E00094CF723EC8AA5D1BBB0CD4CC1CCF883EE9
:1012F00029ABA71A610E21CCA5CE9D3E8EABEF196E
:10130000051073CB2ECEB13EF6AB3719A811C9CA62
:10131000B7CDC53E61AC7E184A1324CA41CDD83E34
:10132000D0ACC417EA1483C9CCCCEB3E41AD09174D
:101330008816E8C857CCFD3EB6AD4C16241850C8E8
:10134000E2CB0F3F2EAE9015BE19BEC76ECB203F2D
:10135000A9AED214561B31C7FBCA303F28AF1314B5
:10136000EB1CA8C688CA403FA9AF54137E1E25C6F1
:1013700015CA4F3F2DB094120E20A7C5A3C95D3FDB
:10138000B5B0D3119C212DC532C96B3F40B11211AC
:101390002623B9C4C1C8783FCDB15010AE244AC489
:1013A00051C8853F5EB28D0F3226E0C3E1C7913F41
:1013B000F2B2CA0EB3277BC372C79C3F88B3060E36
:1013C00031291CC303C7A73F22B4410DAA2AC1C2B9
:1013D00095C6B13FBEB47C0C212C6DC227C6BB3F65
:1013E0005EB5B70B932D1DC2BAC5C43F00B6F10A56
:1013F000022FD3C14EC5CC3FA5B62B0A6C308EC18F
:10140000E2C4D43F4DB76409D2314FC176C4DB3F4B
:10141000F8B79D08343315C10CC4E13FA6B8D60710
:101420009234E0C0A1C3E73F56B90E07EB35B1C017
:1014300038C3EC3F09BA46063F3788C0CFC2F13FF8
:10144000BFBA7E058E3864C066C2F53F77BBB5046F
:10145000D93945C0FEC1F83F32BCED031E3B2CC05C
:1014600097C1FB3FF0BC24035F3C19C030C1FD3F76
:10147000B0BD5B029A3D0BC0CAC0FF3F73BE920174
:10148000D03E03C065C0004038BFC90070470000AF
:101490000FB4044910B503AA029800F081FB10BCF8
:1014A0005DF814FB141000200FB41CB5074B06AAFE
:1014B0007B4469460090059800F059FB002069467E
:1014C00000F068FB1CBC5DF814FB0000E1060000A6
:1014D00070B504460D4621461068AFF300802188A0
:1014E000090502D50F4A7A4402E00E4A7A440E32C8
:1014F000002104F1240305E000F00F060009965DC9
:101500005E54491C0028F7D120780023000704D539
:10151000702D02D009B1022311322046BDE870407F
:1015200000F0B7B877A600002DE9F0474FF0000AA9
:1015300089460446C0F820A02046E1688847002874
:1015400076D0252806D0D4E901219047206A401C96
:101550002062F1E7E168204600258847C4F81CA016
:1015600006460027C4F818A02A2E09D0304606F0F7
:1015700014FD38B304EB8708303EC8F8186019E052
:1015800059F8041B204604EB87029161E168884703
:10159000012F064618D1E069002820DA25F0200541
:1015A0001DE0D8F8180000EB800006EB4000303852
:1015B000C8F818002046E1688847064606F0EDFCAA
:1015C0000028EED1012F0AD02E2E08D12046E16846
:1015D00088477F1C0646022F45F02005C4DBA06922
:1015E000002803DA404245F00105A061E80701D078
:1015F00025F01005B6B1A6F14100192802D8203611
:1016000045F400654A463146204625604D46FEF7C2
:10161000EDFD58B1012806D0ED1D25F0070000F1C1
:10162000080989E704E005F1040985E730468AE7FF
:10163000206ABDE8F08700000B4910B5A1F17C02DB
:101640000A4CC2E93712372106E000EB104342F89A
:101650002130074B00FB03400B1EA1F10101F4DC1C
:1016600010BD0120E8E70000B4410020E119D66672
:10167000CD0D0100704770477047704710B500F0FE
:10168000A5FA006810BD10B5044600F09FFA04608A
:1016900010BD2DE9F0470D4699469246044600F1EB
:1016A00024080168880604D5E06921F01001216052
:1016B00000E00120A84201DD471B00E00027A169EE
:1016C0007A1902EB0900081AA0612078C00602D43A
:1016D0002046AFF30080002608E0D4E901211AF883
:1016E00006009047206A401C761C20624E45F4DBC1
:1016F0002078C0060AD52046AFF3008006E0D4E982
:10170000012130209047206A401C2062381EA7F13A
:101710000107F4DC07E0D4E9012118F8050090473F
:10172000206A401C2062281EA5F10105F3DC20463A
:10173000AFF300802078000602D50220BDE8F087D4
:101740000120FBE770472DE9FF4F0C461E464FF086
:10175000FF378BB0D2E90001DDF860800A908A463D
:10176000C1F30A5505B93D46002108464FF0000077
:10177000BAF1000F00F4400005DA00EB80004FF4EE
:10178000400101EA50004FEA9059B9F1010F00DD24
:10179000B9460A9850EA4A000ED044F61050A5F215
:1017A000FF3545432F14B8F1000F1ED07542291E96
:1017B0001EDDC9F100021CE0B8F1010F4FF000007E
:1017C00001D0302103E0F24305E02154401CB04237
:1017D000FBDB30460022002121540B99C1F8088020
:1017E000C1E900200FB0BDE8F08FBD1B6D1CDEE726
:1017F0004A4600DA694206A800F072FA06AB93E89E
:10180000070003AB83E8070050460A9900F050FB3D
:101810008DE80700A0F500501F3800900398002DB8
:101820000ADD42F21F014A460844002303A903903F
:10183000684600F0B9FD09E0A0F500504A461F389F
:10184000002303A90390684600F0C3FD8DE807005C
:101850000004000C03D04FF0FF30410800E01046B8
:10186000B8F1000F03D00022009215461EE0751E4D
:1018700005D400F0AFF9303262556D1EF9D5B3468C
:101880000122084302D000227F1C04E02078302887
:1018900001D100227F1E002A099784D01DE0112D5E
:1018A00007DA00F097F9303262556D1C50EA0102F8
:1018B000F5D1084302D00098C8B10EE00021681E9F
:1018C00005E0235C625C63542254401E491C814243
:1018D000F7DBAB46A81B401E0990002004F80B0064
:1018E0000B98099AC0F80880C0E9002B7AE7112606
:1018F0004FF0000857E72DE9F04F88460446D21D07
:1019000022F0070191B0D1E90001CDE90A0106F00A
:1019100030FB02460B98C00F01D02D2007E0206855
:10192000810701D52B2002E0202101EAC000032A13
:10193000099001D0072A05DB03464146204600F006
:101940008FF90BE12078800601D5E06900E00620E0
:10195000B8F1650F814606D0B8F1660F18D0B8F11E
:10196000670F70D131E00020B9F1110F009001DB59
:10197000112301E009F101030AAA01A90CA8FFF74C
:10198000E2FEDDE90C70002609F10105834647E01F
:1019900001204B4600904FF000470AAA01A90CA86D
:1019A000FFF7D1FEDDE90DB00C995D46002610B9B8
:1019B00009F101000D18B9EB050003D4C0F1FF36A1
:1019C00009F10105A5EB09002BE0B9F1010F01DADE
:1019D0004FF001090020B9F1110F0090484601DDD8
:1019E000112300E003460AAA01A90CA8FFF7ABFEE9
:1019F000DDE90C704D4600268346207800070AD4A6
:101A0000AB4500DA5D4601A8012D04DD411911F84E
:101A1000011C302907D04F4502DA17F1040F04DA10
:101A2000012082460FE06D1EEEE7002F02DCED1B69
:101A30003E4403E0781CA84200DD7D1CB81B00F189
:101A4000010A4FF000472078000703D4AA4501DBC4
:101A50004FF0FF3A0021B7F1004F0DF143088DF828
:101A6000431024D002202B23002F01DA7F422D23A4
:101A70000A21021EA0F1010000DC5FB197FBF1FC1E
:101A800097FBF1F201FB1C7C17460CF1300C08F8B7
:101A900001CDEEE7A8F1010003702188090501D509
:101AA000452100E06521A0F1010800F8011C09981A
:101AB0000FA9A1EB0807FF1D00B10120411901EB9F
:101AC000EA70A1693844081A401EA0612078C00657
:101AD00002D42046AFF30080099828B1D4E901214F
:101AE0009047206A401C20622078C00622D52046FC
:101AF000AFF300801EE0002E04DBB34502DD01A839
:101B0000805D00E03020D4E901219047206A401C2C
:101B10002062761CAAF101005FEA000A0AD100F0F7
:101B200051F8C0680168405CD4E901219047206AFF
:101B3000401C2062281EA5F10105DCDC07E0D4E989
:101B4000012118F8010B9047206A401C2062381EC2
:101B5000A7F10107F3DC2046AFF30080032011B0AA
:101B600041E6000001694A1C02610878704700B52F
:101B70008FB0CDE901310021059105497944CDE9C6
:101B8000031011466846FFF7CFFC0FB000BD000000
:101B9000E5FFFFFF0A6802F8010B0A6070470000CA
:101BA000074B70B50D467B44FFF7E1FF044628461E
:101BB00000F008F910B14FF0FF3070BD204670BD45
:101BC0001F670000004870473C42002000487047F3
:101BD0001C42002030B5B0F10A024FEA900E71F1BC
:101BE00000034EEA817EB0EB0E0061EB91014FEAFB
:101BF000101E4EEA017E10EB0E0041EB11114FEA70
:101C0000102E4EEA016E10EB0E0041EB11214FEA4F
:101C1000104E4EEA014E10EB0E0041EB1141401800
:101C200041F100014FEAD00040EA41704FEAD10192
:101C300010EB80054FEA810444EA907444EB010400
:101C40006D1944EB0404521BA3414FF0000348BF3D
:101C50000A3200D530BD401C41F1000130BD00000A
:101C60002DE9F0411F46044603260168072A01F4C6
:101C7000006004DB08B116A505E016A503E008B175
:101C800015A500E015A521F010002060A069C01E78
:101C9000A0610FB1401EA0612046AFF300804FB19C
:101CA000D4E9012138469047206A401C2062C01CBC
:101CB000206206E0206AFAE7D4E9012115F8010B59
:101CC0009047761EF8D22046AFF30080BDE8F08141
:101CD0004E414E006E616E00494E4600696E6600D0
:101CE0002DE9F047814616468AB0354878440DC83C
:101CF0008DE80D0032487844801C03AC0DC884E8A0
:101D00000D0041F69B300844372190FBF1F290FB27
:101D1000F1F5A5F1800501FB12041B3C02D56442DC
:101D2000012000E00020DFF898A080460027FA4458
:101D3000AAF1BE0A0EE0E0070AD03246684607EB79
:101D4000470101230AEB810100F043FB8DE8070006
:101D500064107F1C002CEED1194F7F44AE3F19E078
:101D6000E80715D007EB04100DF1180A90E80E00F3
:101D70008AE80E00C068F04201D1981908903246F6
:101D8000012306A903A800F024FB03AB83E80700A6
:101D90006D10641C002DE3D14FF0010332466946FB
:101DA000B8F1000F03A802D000F0FEFA01E000F045
:101DB00010FBC9E90001C9F808200AB0BDE8F087A6
:101DC000189F0000007B00F08000704700487047BB
:101DD0001C4200207546FFF7F9FFAE460500694634
:101DE000534620F00700854618B020B5FEF74CFAA0
:101DF000BDE820404FF000064FF000074FF000080C
:101E00004FF0000B21F00701AC46ACE8C009ACE88C
:101E1000C009ACE8C009ACE8C0098D46704710B5F0
:101E20000446AFF300802046BDE81040FEF7FDB940
:101E30004FF0013C50F8042B51F8043B9A4221D159
:101E4000A2EB0C03934313EACC1317D150F8042BE5
:101E500051F8043B9A4215D1A2EB0C03934313EAC9
:101E6000CC130BD150F8042B51F8043B9A4209D102
:101E7000A2EB0C03934313EACC13DBD04FF000002A
:101E8000704700BFD01A01BAB1FA81F101F0180110
:101E900022FA01F0CB40C1F12001DBB2C0B2C01A7E
:101EA0002CFA01F3D11A914311EAC311E6D170471C
:101EB0005FEA400C08BF91F0000F4FEA8C234FEA15
:101EC000C12243EA51514FEA1C5018BF00F5F040BF
:101ED0004FEA300018BF41F000415FEA6C5C00F04F
:101EE0002980BCF1FF3F08BF40F080407047130CD1
:101EF00006BF12044FF0100C4FF0000C130E04BF7D
:101F000012020CF1080C130F04BF12010CF1040CA7
:101F1000930F04BF92000CF1020CD30F04BF5200C8
:101F20000CF1010C11464FF00002A0F11F00A0EBD4
:101F30000C00704711F0004F08BF704731F00041AE
:101F40003FF4D5AF0B0C06BF09044FF0100C4FF057
:101F5000000C0B0E04BF09020CF1080C0B0F04BFA0
:101F600009010CF1040C8B0F04BF89000CF1020C69
:101F7000CB0F04BF49000CF1010CCCF12003A0EB06
:101F80000C0022FA03F302FA0CF241EA030100F119
:101F90000100704720F07F4C80EA030023F07F4768
:101FA000ACEB070303F57C5300F0004003F1FF03A3
:101FB0002DE980494FEA154B09B44FEA144325EA4D
:101FC0000B4E24EA03480FF2042606EB13274908B8
:101FD0003E785FEA320203FB0667C7F5000707FB9E
:101FE00006F64FEA54374FEAD64606F1020607FBDB
:101FF000066CCCF1005C4FEA1C472CEA074C07FB4F
:1020000006F40CFB06F504EB15464FEA961634BFB2
:1020100000204FF000404FEAD13706FB07FC4FEAA3
:102020001C4C0CFB0BF7D21B03FB0CF761EB0701FD
:102030000CFB0EF7B0EB074072EB17420CFB08F7F6
:1020400034BFA2EB0742B2EB074261EB17414FEA04
:102050000C444FEA910706FB07FC4FEA1C4C0CFBB3
:102060000BF7B0EBC74072EB573203FB0CF734BFF2
:10207000A2EBC742B2EBC74261EB57310CFB0EF744
:10208000B0EBC70072EB57720CFB08F734BFA2EB42
:10209000C702B2EBC70261EB5771039F4FEA816140
:1020A00041EA921104EBCC044FEAD1374FEA826245
:1020B00006FB07FC42EA90124FEA80604FEA1C4C94
:1020C0000CFB0BF7D21B03FB0CF761EB07010CFBBE
:1020D0000EF7B0EB074072EB17420CFB08F734BF6A
:1020E000A2EB0742B2EB074261EB17414FEA8C5576
:1020F0004FEA910704EB9C2406FB07FC4FEA1C4CBB
:102100000CFB0BF7B0EBC74072EB573203FB0CF73D
:1021100034BFA2EBC742B2EBC74261EB57310CFBB5
:102120000EF7B0EBC70072EB57720CFB08F734BF29
:10213000A2EBC702B2EBC70261EB577115EB4C255E
:102140004FEA816141EA92114FEA82624FEAD13748
:1021500042EA901206FB07FC44F100044FEA80605B
:102160004FEA1C4C0CFB0BF7D21B03FB0CF761EB8B
:1021700007010CFB0EF7B0EB074072EB17420CFBAC
:1021800008F734BFA2EB0742B2EB074261EB1741FD
:1021900015EB1C154FEA813141EA92414FEA823238
:1021A00042EA90424FEA80304FEA0C7644F1000454
:1021B00048EA03434EEA0B484FF0000EB2EB080C1E
:1021C00071EB030724BF624639464EEB0E0E4FF00B
:1021D000000B0018524149414BEB0B0BB2EB080CC2
:1021E00071EB03077BF1000B24BF624639464EEBCF
:1021F0000E0E4FF0000B0018524149414BEB0B0BF8
:10220000B2EB080C71EB03077BF1000B24BF6246B5
:1022100039464EEB0E0E51EA020718BF46F0010692
:1022200016EB0E7655F1000254F1000103D5BDE81E
:102230008901BDE80088BDE88901BDE80048B619FC
:10224000524141EB0101A3F10103704780807F7E81
:102250007D7C7B7A7978777676757473727171701C
:102260006F6E6E6D6C6C6B6A6A69686867666665CE
:102270006464636362616160605F5F5E5E5D5D5C5C
:102280005C5B5B5A5A5959585857575656555555CD
:102290005454535352525251515050504F4F4F4E2D
:1022A0004E4D4D4D4C4C4C4B4B4B4A4A4A4949497B
:1022B00048484847474747464646454545444444BD
:1022C000444343434342424242414141002B9C46E6
:1022D00030D477002BD01CB54FEA370703B44FF04A
:1022E00010004FF01001BAF1000F06D0BCF1000F42
:1022F000DCBF40F0080040F008014FF000000FBCC8
:10230000BDE810400BF1010BBBF1010F08BF5FEA04
:10231000170722BF12F1010211F101014FF0004134
:1023200043F1000300F0004043EA00007047F9D396
:102330005708D0E746EA064613F1400F4FEA164623
:102340001FDD13F1200FDFBF16430A4600212033A3
:102350005B42BED0C3F1200746EA064602FA07F701
:102360004FEA164646EA0706C3F1200722FA03F2AF
:1023700001FA07F721FA03F14FF0000342EA0702DE
:10238000A7E746EA020646EA06464FEA164646EA46
:102390000106BCBF46EA0646360C4FF000034FF07C
:1023A00000024FF0000194E72DE9804C9A469346D5
:1023B00070B491E8380007C831EA400C48BF34EAED
:1023C000430C03D5FFF7E6FDFFF780FFF0BCBDE847
:1023D000008C2DE9804C9A46934670B491E8380001
:1023E00007C810F0804F08BF13F0804F03D100F0F2
:1023F00005F8FFF76BFFF0BCBDE8008C20F07F47CD
:1024000080EA030023F07F4C07EB0C03A3F57C5319
:1024100000F00040A3F1FE0392F0000F00F0B38043
:1024200095F0000F00F077802DE901494FEA114047
:102430004FEA144621EA004800FB06FC24EA06475E
:1024400008FB06F607FB08F800FB07F718EB064841
:102450004CEB164C4FEA124B18EB07484FEA154667
:102460004CEB174022EA0B4E0BFB06FC25EA064715
:102470000EFB06F607FB0EFE0BFB07F71EEB064EE8
:102480004CEB164C4FF000061EEB074E4CEB174B77
:1024900018EB0B0840F1000018EB0E0B58EB00088E
:1024A00040F100008F1A4FF000013CBFC943661B8A
:1024B00014BFB5EB040C00213CBFC943F61B4FEA27
:1024C00017444EEA8E0E27EA04454FEA1C4704FBE8
:1024D00007622CEA074C05FB07F70CFB05F604FB2B
:1024E0000CFC16EB074642EB174216EB0C4642EB90
:1024F0001C421BEB060658EB0202414146EA9E06CF
:1025000001D5BDE80189B619524141EB0101A3F1A2
:102510000103BDE801894FEA14454FEA114724EA57
:10252000054621EA074C05FB07F406FB07F70CFB01
:1025300006F105FB0CFC11EB074144EB17444FEA95
:10254000124711EB0C4144EB1C4422EA074C05FBFB
:1025500007F206FB07F70CFB06F605FB0CFC16EB77
:10256000074642EB174216EB0C4642EB1C456A1835
:1025700054F1000148BF7047B619524141EB0101C7
:10258000A3F10103704795F0000F37D04FEA1142D5
:102590004FEA144721EA024624EA074C02FB07F1FE
:1025A00006FB07F70CFB06F402FB0CFC14EB0744DC
:1025B00041EB17414FEA154714EB0C4441EB1C412A
:1025C00025EA074C02FB07F506FB07F70CFB06F6AE
:1025D00002FB0CFC16EB074645EB174516EB0C46C9
:1025E00045EB1C42121951F1000148BF7047B61962
:1025F000524141EB0101A3F1010370474FEA144539
:102600004FEA114724EA054621EA074C05FB07F18A
:1026100006FB07F70CFB06F24FF0000605FB0CFC6F
:1026200012EB074241EB174112EB0C4251EB1C41FC
:1026300048BF7047921841EB0101A3F101037047B5
:1026400008B50121142005F087F82E20ADF8000010
:1026500010208DF8030003208DF8020069461D4804
:1026600000F02DFCF320ADF8000010208DF80300E1
:1026700003208DF802006946174800F020FC102066
:10268000ADF8000048208DF803006946114800F0BD
:1026900016FC0020114908601149C1F894010F4946
:1026A0000C3108600D49091D08600C490C3908609F
:1026B0000C4908600B4908390860091D0860074982
:1026C000083108600849C1F880010A2005F048FD7A
:1026D00008BD0000001001400008014090012142A7
:1026E000000022428C012242000021421CB5002041
:1026F00001900090FFF7A4FF00F02CF84FF49670C3
:1027000005F02EFD00201149086002208DF804001C
:1027100000208DF805008DF806008DF807000422D2
:1027200001A900F0B9F800208DF800008DF8010033
:10273000A7208DF8020003226946012000F0ACF8C2
:1027400001200349C1F894011CBD000094012242FC
:102750000000224210B50120084908600A2005F057
:10276000FFFC00200649C1F89001064908600349B2
:102770000C31086001200349086010BD900121421E
:10278000000021429401224270B5044600251BE05E
:1027900000200F4908600A2005F008FD04F08000C1
:1027A00020B101200A490839086003E000200849E7
:1027B000083908600120064908600A2005F0F6FC87
:1027C0006006040E681CC5B2082DE1DB70BD000078
:1027D0009C01214238B50446002000900949086058
:1027E00020128DF80000E0B28DF801000222694647
:1027F000104600F051F801200349C1F8940105F09A
:1028000095FA38BD9401224200002242F8B50546EF
:102810000E460020009000242846314600F056FC69
:102820000446200E8DF80000200C8DF80100200ACF
:102830008DF80200E0B28DF8030000200649086020
:1028400004226946104600F027F801200349C1F828
:10285000940105F06BFAF8BD940122420000224277
:1028600038B50446002000900949086020128DF810
:102870000000E0B28DF8010002226946052000F058
:102880000BF801200349C1F8940105F04FFA38BD57
:1028900094012242000022422DE9F04107460D46F4
:1028A000164600243846FFF76FFF00BF04E0285D9E
:1028B000FFF76AFF601CC4B2B442F8DBBDE8F081E8
:1028C00021B1826842F00102826003E0826822F056
:1028D00001028260704721B1826842F48072826096
:1028E00003E0826822F480728260704710B504466B
:1028F0001248844208D10121401504F03DFF002117
:10290000601504F039FF17E00D48844208D1012119
:10291000001504F031FF0021201504F02DFF0BE01D
:102920000848844208D10121C80304F025FF002192
:102930004FF4004004F020FF10BD000000240140CF
:1029400000280140003C014021B1826842F480121D
:10295000826003E0826822F4801282607047014640
:1029600000208A6802F004020AB1012000E0002081
:1029700070470146C86C80B2704702460020136859
:102980000B400BB1012000E0002070470146002001
:102990008A6802F008020AB1012000E000207047B6
:1029A00030B502460020002350680F4C20400D79BE
:1029B0000C6844EA05242043506090680B4C20408A
:1029C000D1E902542C434D7944EA450420439060F8
:1029D000D06A20F470000C7C641EE4B2234340EA09
:1029E0000350D06230BD0000FFFEF0FFFDF7F1FFA5
:1029F000F0B504460D4600200021092D11DDE068E8
:102A0000A5F10A0606EB4607072606FA07F18843F2
:102A1000A5F10A0606EB460603FA06F10843E06054
:102A20000CE0206905EB4507072606FA07F1884305
:102A300005EB450603FA06F108432061072A0FDA81
:102A4000606B561E06EB86071F2606FA07F18843C1
:102A5000561E06EB860605FA06F10843606322E07F
:102A60000D2A0FDA206BD61F06EB86071F2606FA03
:102A700007F18843D61F06EB860605FA06F10843E0
:102A8000206310E0E06AA2F10D0606EB86071F2620
:102A900006FA07F18843A2F10D0606EB860605FA51
:102AA00006F10843E062F0BD816841F008018160F1
:102AB000704721B1826842F4A002826003E082681C
:102AC00022F4A00282607047816841F004018160B5
:102AD0007047000010B586B0044601214FF4017024
:102AE00004F03AFE4FF4004004F00AFE0420ADF872
:102AF000140000208DF8170005A91F4800F0DFF929
:102B00001E48FFF7F3FE002000908DF804008DF8BA
:102B100005004FF4C02002900020039001208DF8A2
:102B2000100069461548FFF73BFF01211348FFF7E6
:102B3000C7FE1248FFF7B8FF00BF1048FFF726FF97
:102B40000028FAD10D48FFF7BFFF00BF0B48FFF781
:102B500006FF0028FAD1E3B2012202210748FFF75D
:102B600047FF01210548FFF7EFFE01210348FFF76A
:102B7000B2FE06B010BD0000000801400024014074
:102B800000BFFEE710B5022000F0CEF848B10220E9
:102B900000F00AF80120034908700021800705F0C1
:102BA00006F810BD5410002000F0805111B1034907
:102BB000086001E0024948607047000004040240D8
:102BC0000000024021B1026842F00102026004E00C
:102BD00002684FF6FE731A400260704701684FF6B4
:102BE000FE72114001600021016041608160C1609E
:102BF0004B49884208D14A490839496841F00F01D8
:102C0000474A083A51608AE045491431884208D160
:102C100043490839496841F0F001414A083A516096
:102C20007DE03F492831884208D13D49083949684B
:102C300041F470613A4A083A516070E038493C31D9
:102C4000884208D136490839496841F47041344A0C
:102C5000083A516063E032495031884208D1304926
:102C60000839496841F470212D4A083A516056E00C
:102C70002B496431884208D129490839496841F40F
:102C80007001274A083A516049E025497831884265
:102C900008D123490839496841F07061204A083A4F
:102CA00051603CE01F49884206D1011F096841F08C
:102CB0000F01021F116032E01A491431884208D115
:102CC0001849091F096841F0F001164A121F1160E6
:102CD00025E014492831884208D11249091F0968A2
:102CE00041F470610F4A121F116018E00D493C3128
:102CF000884208D10B49091F096841F47041094A0B
:102D0000121F11600BE007495031884207D1054975
:102D1000091F096841F47021024A121F11607047AF
:102D2000080002400804024001460020002201F091
:102D3000805313B1054B1A6801E0054B1A6802EA8B
:102D400001030BB1012000E00020704700040240A5
:102D5000000002401AB103680B43036002E00368FD
:102D60008B430360704710B50022026847F6F0738A
:102D70009A430C6A8B6823430C6923434C692343B1
:102D80008C692343CC6923434C6A23438C6A2343D5
:102D90001A430260CB6843600B6883604B68C36072
:102DA00010BD704751B18200A2F1C042126842F0DA
:102DB00001038200A2F1C042136009E08200A2F187
:102DC000C0421268034B1A408300A3F1C0431A604B
:102DD00070470000FEFF0F00D0E901121143C268E6
:102DE0001143026911434269114382691143C26967
:102DF0001143026A1143426A1143826A1143C26A53
:102E00001143026B114302689200A2F1C0421160AB
:102E1000816808290BD101688900A1F1C0410968C6
:102E200041F0400201688900A1F1C0410A60416B94
:102E30000968426B526841EA0211426B926841EAAA
:102E40000221426B928941EA0241426B128A41EAB5
:102E50000251426B127D41EA0261426B9269114359
:102E60000268521C9200A2F1C0421160C16AB1F521
:102E7000804F1BD1816B0968826B526841EA021155
:102E8000826B926841EA0221826B128A41EA025106
:102E9000826B127D41EA0261826B92691143026882
:102EA0009200A2F1C042C2F8041107E06FF0704234
:102EB00001688900A1F1C041C1F8042170472DE9E2
:102EC000F0410246002500260020002300240027B0
:102ED00091F803C00CF00F0591F803C00CF0100C32
:102EE000BCF1000F03D091F802C04CEA050591F83F
:102EF00000C0BCF1000F31D0146800202BE04FF06F
:102F0000010C0CFA00F3B1F800C00CEA03069E4273
:102F100020D183004FF00F0C0CFA03F7BC4305FAE5
:102F200003FC4CEA040491F803C0BCF1280F06D15D
:102F30004FF0010C0CFA00FCC2F814C00AE091F842
:102F400003C0BCF1480F05D14FF0010C0CFA00FC96
:102F5000C2F810C0401C0828D1D31460B1F800C0DA
:102F6000BCF1FF0F34DD546800202EE000F1080CA6
:102F70004FF0010808FA0CF3B1F800C00CEA0306A0
:102F80009E4221D183004FF00F0C0CFA03F7BC4393
:102F900005FA03FC4CEA040491F803C0BCF1280FC5
:102FA00005D100F1080C08FA0CF8C2F8148091F869
:102FB00003C0BCF1480F07D100F1080C4FF0010825
:102FC00008FA0CF8C2F81080401C0828CED35460D0
:102FD000BDE8F0810246002093680B400BB1012050
:102FE00000E00020704741617047016170470000B8
:102FF0002DE9F04F89B000245DE0324830F824001C
:103000000FFA80F92F4850F824004FEA204A48462A
:1030100006F0AEFF80464FF0894107F009F80746F9
:103020004FF08E4106F0A6FE0546504606F0A0FF82
:1030300080464FF0894106F0FBFF07464FF08E4176
:1030400006F098FE06463146304606F0F1FF294666
:103050000290284606F0ECFF0190029906F01CFE53
:10306000039006F0EDFDCDE9040105F023FF0022F9
:10307000154BCDE9060106F0EDF8074606F004F819
:1030800083465CB94FF08E41584606F0D1FF0746A3
:1030900006F032FF0B4941F824000AE04FF08F415F
:1030A000584606F0C5FF074606F026FF054941F8D9
:1030B0002400601C84B2B4F5007F9EDB09B0BDE83B
:1030C000F08F000038310020000090402DE9F041E1
:1030D00004460D4605480CC82046294606F0E2FA8B
:1030E000064606F04BFABDE8F081000058100020BB
:1030F00000BFFEE708B50121442004F02DFB182095
:10310000ADF8000048208DF8030069460648FFF737
:10311000D6FE0120ADF8000028208DF80300694696
:103120000248FFF7CCFE08BD00180140000801402E
:1031300010B5044614B101202349087022480078D4
:1031400058B310212148FFF745FF50B108211F480F
:10315000FFF740FF28B101211D48FFF73BFF012881
:103160001BD10A2004F0FCFF002017490870102131
:103170001648FFF72FFF08B9012010BD082113489A
:10318000FFF728FF08B90220F7E701211048FFF7F1
:1031900021FF012815D10320EFE710210B48FFF78D
:1031A00019FF01280DD108210848FFF713FF012856
:1031B00007D101210648FFF70DFF10B90120024990
:1031C00008700020D9E700003210002000180140EC
:1031D0000008014070B5044600261748058840885D
:1031E00045431548808846F60401884216D11248A6
:1031F0008079012812D100200F4988712A20488146
:103200002B2088810021084603F0CAFF01200A49CB
:1032100088712B2048812A20888103E000210846FC
:1032200003F0BEFF04F0AEF9002602E0034804807C
:10323000761CAE42FAD370BD282100200008006C35
:103240002DE9F84F06460C4617469846DDF828A0AB
:10325000B81B401C80B20090A8EB0400401C1FFA71
:1032600080FB002515E0601981B2304603F098FF1D
:1032700004F088F94FF0000906E00848A0F800A023
:1032800009F101001FFA80F900988145F5DB681CFF
:1032900085B25D45E7DBBDE8F88F00000008006CF3
:1032A00010B50446002C66D16C498871F020088066
:1032B0004FF4A07048800846808849F24131884226
:1032C0000BD06648808846F60401884205D06348E2
:1032D000808845F2103188421AD12C205F4908813C
:1032E0002A2048812B2088810846808846F60401E0
:1032F000884205D05948808845F21031884206D16D
:103300004FF4A070554908804FF4F0704880A1E058
:103310005248808845F21051884210D14FF4305005
:103320004E4908814FF4285048814FF42C50888131
:103330004FF4F07008804FF4487048808AE04748A6
:10334000808841F6631188420DD12C2043490881C1
:103350002B2048812A2088814FF4F07008804FF498
:103360004870488076E022203C490881202048812E
:10337000212088816EE00120384988714FF4A070C7
:103380000880F02048800846808849F24131884210
:1033900005D03248808845F21031884207D12C2070
:1033A0002E4908812A2048812B2088813FE02B4824
:1033B000808846F60401884207D12C2027490881DD
:1033C0002B2048812A20888131E02448808845F2DA
:1033D0001051884210D14FF43050204908814FF4E9
:1033E000285048814FF42C5088814FF44870088051
:1033F0004FF4F07048801AE01848808841F6631155
:1034000088420DD12C20154908812A2048812B2083
:1034100088814FF4487008804FF4F070488006E0CF
:1034200022200E49088121204881202088810B48D4
:10343000808846F60401884205D00848808845F215
:103440001031884206D14FF4F070044908804FF4DF
:10345000A0704880002003F02DFD10BD2821002021
:103460002DE9FF4F84B081468A46002003900290E8
:103470000698A0EB09050798A0EB0A06CDF8049082
:10348000CDF800A0002D01DD012705E00DB90027D2
:1034900002E04FF0FF376D42002E02DD4FF00108D1
:1034A00006E016B94FF0000802E04FF0FF38764210
:1034B000B54201DD2C4600E034464FF0000B21E020
:1034C000009A91B2019A90B200F022F80398284431
:1034D00003900298304402900398A04205DD0398BF
:1034E000001B03900198384401900298A04205DD2A
:1034F0000298001B02900098404400900BF10100DC
:103500001FFA80FB601C8345DADD08B0BDE8F08F50
:1035100030B504460D462946204603F041FE04F02E
:1035200031F8024800880249088030BD2E10002082
:103530000008006C30B503460C4615465A48808892
:1035400049F24131884205D05748808845F2103110
:10355000884214D15449488904F00EF8181204F036
:1035600005F8D8B204F002F84F49888904F004F84D
:10357000201203F0FBFFE0B203F0F8FF8CE04A48B2
:10358000808845F21051884220D14749488903F08C
:10359000F3FF181203F0EAFF43494989491C88B236
:1035A00003F0EAFFD8B203F0E1FF3F49888903F056
:1035B000E3FF201203F0DAFF3B498989491C88B2F6
:1035C00003F0DAFFE0B203F0D1FF65E0364880880F
:1035D00041F66311884228D13348807920B93248B6
:1035E0000088401EC01A83B22F49488903F0C4FFE7
:1035F000181203F0BBFFD8B203F0B8FF181203F0A3
:10360000B5FFD8B203F0B2FF2749888903F0B4FFB1
:10361000201203F0ABFFE0B203F0A8FF201203F08A
:10362000A5FFE0B203F0A2FF36E01F48808846F60F
:10363000040188421DD11C488079012804D11A4810
:103640000088401EC01A83B21749488903F094FFCE
:10365000181203F08BFFD8B203F088FF1249888953
:1036600003F08AFF201203F081FFE0B203F07EFF37
:1036700012E00D488079012804D10B480088401ED3
:10368000C01A83B208494889194603F085FF0649E4
:103690008889214603F080FF034800890349088098
:1036A000881C058030BD000028210020FE07006C2A
:1036B00000B59FB00121080204F02EF801214FF45B
:1036C000B47004F049F80120ADF8780010208DF8AE
:1036D0007B0003208DF87A001EA9FE48FFF7EFFB60
:1036E0004CF23370ADF8780018208DF87B00032081
:1036F0008DF87A001EA9F848FFF7E1FB4FF68070BD
:10370000ADF8780018208DF87B0003208DF87A0042
:103710001EA9F248FFF7D3FB41F20100ADF8780093
:1037200018208DF87B0003208DF87A001EA9EC4844
:10373000FFF7C5FB01200890002009900F200A9098
:1037400000200B900C900D900E90019002900320A1
:1037500003900020049005900690079006200F909B
:1037600000201090119010201290002013901590BE
:103770001490169017904FF48050189000201990D4
:103780004FF480401A9000201B9008A81C9001A8BC
:103790001D900FA8FFF720FB01210620FFF702FB79
:1037A000322004F0DDFC002003F04EFBCD49888080
:1037B00008468088FF280ADB084680884FF6FF719C
:1037C000884204D0C7488088B0F5134F7ED1D320FB
:1037D00003F0D2FE03F02EFBC249888003F02AFBDF
:1037E000C049888003F026FBBE498880084680884F
:1037F0004FF6FF7101EA0020BA49888003F01AFBF6
:10380000B84989880843B74988800846808849F2C2
:10381000413188425AD0BF2003F0AEFE03F00AFBCC
:10382000B049888003F006FBAE49888003F002FBB4
:10383000AC49888003F0FEFAAA498880084680884F
:103840004FF6FF7101EA0020A649888003F0F2FAE2
:10385000A44989880843A34988800846808846F699
:10386000040188427AD0D42003F086FE03F0E2FA05
:103870009C49888003F0DEFA9A49888003F0DAFADE
:1038800098498880084680884FF6FF7101EA002039
:103890009449888003F0CEFA924989880843914977
:1038A00088800846808845F21031884256D04FF40F
:1038B0005A4003F061FE03F0BDFA8A4988804FF454
:1038C0005B4003F059FE03F0B5FA00E046E085499D
:1038D0008880084680884FF6FF7101EA0020814900
:1038E00088804FF45C4003F047FE03F0A3FA7D4963
:1038F000898808437B49888008468088B0F5004F56
:1039000002D145F2105088807648808845F21051E7
:10391000884223D0A12003F02FFE03F08BFA7149D7
:10392000888003F087FA6F498880084680884FF6C0
:10393000FF7101EA00206B49888003F07BFA694936
:1039400089880843674988800846808845F2617104
:10395000884203D141F663106249888061488188BA
:1039600061A0FDF795FD5F48808849F241318842AA
:103970007ED1CF2003F000FE002003F0F7FDC12030
:1039800003F0F4FD302003F0F1FDED2003F0F4FD31
:10399000642003F0EBFD032003F0E8FD122003F0A8
:1039A000E5FD812003F0E2FDE82003F0E5FD852040
:1039B00003F0DCFD102003F0D9FD7A2003F0D6FDE2
:1039C000CB2003F0D9FD392003F0D0FD2C2003F0EB
:1039D000CDFD002003F0CAFD342003F0C7FD022016
:1039E00003F0C4FDF72003F0C7FD202003F0BEFD67
:1039F000EA2003F0C1FD002003F0B8FD002003F031
:103A0000B5FDC02003F0B8FD1B2003F0AFFDC120C1
:103A100003F0B2FD012003F0A9FDC52003F0ACFDC9
:103A2000302003F0A3FD302003F0A0FDC72003F0F9
:103A3000A3FDB72003F09AFD362003F09DFD48203A
:103A400003F094FD3A2003F097FD552003F08EFD1E
:103A5000B12003F091FD002003F088FD1A2003F04F
:103A600085FDB62003F088FD0A2003F07FFD00E00D
:103A7000AAE0A22003F07AFDF22003F07DFD0020F1
:103A800003F074FD262003F077FD012003F06EFDA6
:103A9000E02003F071FD0F2003F068FD2A2003F001
:103AA00065FD282003F062FD082003F05FFD0E2075
:103AB00003F05CFD082003F059FD542003F056FD8F
:103AC000A92003F053FD432003F050FD0A2003F02A
:103AD0004DFD11E0000C01400014014000180140B0
:103AE0000020014028210020204C43442049443A32
:103AF00025780D0A000000000F2003F037FD00209C
:103B000003F034FD002003F031FD002003F02EFD12
:103B1000002003F02BFDE12003F02EFD002003F038
:103B200025FD152003F022FD172003F01FFD0720BF
:103B300003F01CFD112003F019FD062003F016FD13
:103B40002B2003F013FD562003F010FD3C2003F062
:103B50000DFD052003F00AFD102003F007FD0F20E6
:103B600003F004FD3F2003F001FD3F2003F0FEFCC5
:103B70000F2003F0FBFC2B2003F0FEFC002003F0E1
:103B8000F5FC002003F0F2FC012003F0EFFC3F20E5
:103B900003F0ECFC2A2003F0EFFC002003F0E6FC2D
:103BA000002003F0E3FC002003F0E0FCEF2003F032
:103BB000DDFC112003F0E0FC782004F0D1FA29208C
:103BC00003F0DAFC03F01AB9FE48808846F60401D7
:103BD00088427CD1112003F0CFFC142004F0C0FAFD
:103BE000D02003F0C9FC072003F0C0FC422003F002
:103BF000BDFC1D2003F0BAFCD12003F0BDFC002069
:103C000003F0B4FC1A2003F0B1FC092003F0AEFC71
:103C1000D22003F0B1FC012003F0A8FC222003F025
:103C2000A5FCC02003F0A8FC102003F09FFC3B2063
:103C300003F09CFC002003F099FC022003F096FCAA
:103C4000112003F093FCC52003F096FC032003F041
:103C50008DFCC82003F090FC002003F087FC252099
:103C600003F084FC212003F081FC052003F07EFC9E
:103C7000002003F07BFC0A2003F078FC652003F0B1
:103C800075FC252003F072FC772003F06FFC5020B8
:103C900003F06CFC0F2003F069FC002003F066FCCD
:103CA000F82003F069FC012003F060FCFE2003F023
:103CB00063FC002003F05AFC022003F057FC202094
:103CC00003F05AFC362003F057FC082000E02CE0FB
:103CD00003F04CFC3A2003F04FFC552003F046FC67
:103CE0002B2003F049FC002003F040FC002003F0EF
:103CF0003DFC012003F03AFC3F2003F037FC2A2072
:103D000003F03AFC002003F031FC002003F02EFC0D
:103D1000012003F02BFCDF2003F028FC782004F0C6
:103D20001FFA292003F028FC4CE7A648808845F2BA
:103D30001031884240F07C87ED2003F01DFC01200B
:103D400003F014FCFE2003F011FCEE2003F014FC41
:103D5000DE2003F00BFC212003F008FCF12003F02F
:103D60000BFC012003F002FCDF2003F005FC102017
:103D700003F0FCFBC42003F0FFFB8F2003F0F6FBF5
:103D8000C62003F0F9FB002003F0F0FBE22003F073
:103D9000EDFBE22003F0EAFBE22003F0E7FBBF20AB
:103DA00003F0EAFBAA2003F0E1FBB02003F0E4FB00
:103DB0000D2003F0DBFB002003F0D8FB0D2003F007
:103DC000D5FB002003F0D2FB112003F0CFFB002035
:103DD00003F0CCFB192003F0C9FB002003F0C6FB65
:103DE000212003F0C3FB002003F0C0FB2D2003F0D3
:103DF000BDFB002003F0BAFB3D2003F0B7FB002021
:103E000003F0B4FB5D2003F0B1FB002003F0AEFB38
:103E10005D2003F0ABFB002003F0A8FBB12003F012
:103E2000ABFB802003F0A2FB002003F09FFB8B2064
:103E300003F09CFB002003F099FB962003F096FB17
:103E4000002003F093FBB22003F096FB002003F068
:103E50008DFB002003F08AFB022003F087FB00208B
:103E600003F084FB032003F081FB002003F07EFBC2
:103E7000B32003F081FB002003F078FB002003F067
:103E800075FB002003F072FB002003F06FFB0020A5
:103E900003F06CFB002003F069FB002003F066FBDD
:103EA000002003F063FB002003F060FB002003F020
:103EB0005DFB002003F05AFB002003F057FB0020BD
:103EC00003F054FB002003F051FB002003F04EFBF5
:103ED000002003F04BFB002003F048FB002003F020
:103EE00045FB002003F042FB002003F03FFB0020D5
:103EF00003F03CFB002003F039FB002003F036FB0D
:103F0000002003F033FBB42003F036FB8B2003F0DA
:103F10002DFB002003F02AFB962003F027FB002056
:103F200003F024FBA12003F021FB002003F01EFB83
:103F3000B52003F021FB022003F018FB002003F062
:103F400015FB032003F012FB002003F00FFB0420FD
:103F500003F00CFB002003F009FBB62003F00CFB80
:103F6000002003F003FB002003F000FBB72003F068
:103F700003FB002003F0FAFA002003F0F7FA3F20D9
:103F800003F0F4FA002003F0F1FA5E2003F0EEFAF9
:103F9000002003F0EBFA642003F0E8FA002003F0BD
:103FA000E5FA8C2003F0E2FA002003F0DFFAAC20FF
:103FB00003F0DCFA002003F0D9FADC2003F0D6FA93
:103FC000002001E02821002003F0D0FA702003F047
:103FD000CDFA002003F0CAFA902003F0C7FA0020BF
:103FE00003F0C4FAEB2003F0C1FA002003F0BEFA9C
:103FF000DC2003F0BBFA002003F0B8FAB82003F08D
:10400000BBFA002003F0B2FA002003F0AFFA002060
:1040100003F0ACFA002003F0A9FA002003F0A6FA9E
:10402000002003F0A3FA002003F0A0FA002003F020
:104030009DFABA2003F0A0FA242003F097FA00209A
:1040400003F094FA002003F091FA002003F08EFAB6
:10405000C12003F091FA202003F088FA002003F039
:1040600085FA542003F082FA002003F07FFAFF2043
:1040700003F07CFA002003F079FAC22003F07CFA06
:104080000A2003F073FA002003F070FA042003F012
:104090006DFA002003F06AFAC32003F06DFA3C20A9
:1040A00003F064FA002003F061FA3A2003F05EFAAC
:1040B000002003F05BFA392003F058FA002003F0E7
:1040C00055FA372003F052FA002003F04FFA3C2053
:1040D00003F04CFA002003F049FA362003F046FAC8
:1040E000002003F043FA322003F040FA002003F0EE
:1040F0003DFA2F2003F03AFA002003F037FA2C2083
:1041000003F034FA002003F031FA292003F02EFAEC
:10411000002003F02BFA262003F028FA002003F0F9
:1041200025FA242003F022FA002003F01FFA2420AD
:1041300003F01CFA002003F019FA232003F016FA0A
:10414000002003F013FA3C2003F010FA002003F0E3
:104150000DFA362003F00AFA002003F007FA3220A5
:1041600003F004FA002003F001FA2F2003F0FEF917
:10417000002003F0FBF92C2003F0F8F9002003F0F5
:10418000F5F9292003F0F2F9002003F0EFF92620D9
:1041900003F0ECF9002003F0E9F9242003F0E6F93C
:1041A000002003F0E3F9242003F0E0F9002003F0FD
:1041B000DDF9232003F0DAF9002003F0D7F9C42059
:1041C00003F0DAF9622003F0D1F9002003F0CEF910
:1041D000052003F0CBF9002003F0C8F9842003F098
:1041E000C5F9002003F0C2F9F02003F0BFF9002068
:1041F00003F0BCF9182003F0B9F9002003F0B6F978
:10420000A42003F0B3F9002003F0B0F9182003F064
:10421000ADF9002003F0AAF9502003F0A7F900201F
:1042200003F0A4F90C2003F0A1F9002003F09EF99B
:10423000172003F09BF9002003F098F9952003F074
:1042400095F9002003F092F9F32003F08FF9002094
:1042500003F08CF9E62003F089F9002003F086F9D9
:10426000C52003F089F9322003F080F9002003F023
:104270007DF9442003F07AF9002003F077F96520F6
:1042800003F074F9002003F071F9762003F06EF961
:10429000002003F06BF9882003F068F9002003F098
:1042A00065F9C62003F068F9202003F05FF90020CB
:1042B00003F05CF9172003F059F9002003F056F9D8
:1042C000012003F053F9002003F050F9C72003F058
:1042D00053F9002003F04AF9002003F047F90020C9
:1042E00003F044F9002003F041F9C82003F044F939
:1042F000002003F03BF9002003F038F9002003F020
:1043000035F9002003F032F9C92003F035F9002017
:1043100003F02CF9002003F029F9002003F026F91E
:10432000002003F023F9002003F020F9002003F01F
:104330001DF9002003F01AF9002003F017F90020FE
:1043400003F014F9002003F011F9002003F00EF936
:10435000002003F00BF9002003F008F9002003F01F
:1043600005F9002003F002F9002003F0FFF8E02037
:1043700003F002F9162003F0F9F8002003F0F6F834
:104380001C2003F0F3F8002003F0F0F8212003F0E4
:10439000EDF8002003F0EAF8362003F0E7F80020FB
:1043A00003F0E4F8462003F0E1F8002003F0DEF823
:1043B000522003F0DBF8002003F0D8F8642003F06B
:1043C000D5F8002003F0D2F87A2003F0CFF80020CF
:1043D00003F0CCF88B2003F0C9F8002003F0C6F8F6
:1043E000992003F0C3F8002003F0C0F8A82003F0E0
:1043F000BDF8002003F0BAF8B92003F0B7F80020A8
:1044000003F0B4F8C42003F0B1F8002003F0AEF8D4
:10441000CA2003F0ABF8002003F0A8F8D22003F084
:10442000A5F8002003F0A2F8D92003F09FF800209F
:1044300003F09CF8E02003F099F8002003F096F8D0
:10444000F32003F093F8002003F090F8E12003F04C
:1044500093F8162003F08AF8002003F087F81C2058
:1044600003F084F8002003F081F8222003F07EF8A6
:10447000002003F07BF8362003F078F8002003F0EA
:1044800075F8452003F072F8002003F06FF8522011
:1044900003F06CF8002003F069F8642003F066F87C
:1044A000002003F063F87A2003F060F8002003F0A6
:1044B0005DF88B2003F05AF8002003F057F899209C
:1044C00003F054F8002003F051F8A82003F04EF850
:1044D000002003F04BF8B92003F048F8002003F067
:1044E00045F8C42003F042F8002003F03FF8CA204A
:1044F00003F03CF8002003F039F8D22003F036F83E
:10450000002003F033F8D82003F030F8002003F047
:104510002DF8E02003F02AF8002003F027F8F3201C
:1045200003F024F8002003F021F8E22003F024F83F
:10453000052003F01BF8002003F018F80B2003F00F
:1045400015F8002003F012F81B2003F00FF80020EC
:1045500003F00CF8342003F009F8002003F006F80B
:10456000442003F003F8002003F000F84F2002F08D
:10457000FDFF002002F0FAFF612002F0F7FF0020AB
:1045800002F0F4FF792002F0F1FF002002F0EEFFCC
:10459000882002F0EBFF002002F0E8FF972002F0F5
:1045A000E5FF002002F0E2FFA62002F0DFFF00207E
:1045B00002F0DCFFB72002F0D9FF002002F0D6FFA6
:1045C000C22002F0D3FF002002F0D0FFC72002F08B
:1045D000CDFF002002F0CAFFD12002F0C7FF00206B
:1045E00002F0C4FFD62002F0C1FF002002F0BEFF9F
:1045F000DD2002F0BBFF002002F0B8FFF32002F044
:10460000B5FF002002F0B2FFE32002F0B5FF052065
:1046100002F0ACFF002002F0A9FF0A2002F0A6FF82
:10462000002002F0A3FF1C2002F0A0FF002002F0F7
:104630009DFF332002F09AFF002002F097FF4420F4
:1046400002F094FF002002F091FF502002F08EFF54
:10465000002002F08BFF622002F088FF002002F0B1
:1046600085FF782002F082FF002002F07FFF882083
:1046700002F07CFF002002F079FF972002F076FF25
:10468000002002F073FFA62002F070FF002002F06D
:104690006DFFB72002F06AFF002002F067FFC22022
:1046A00002F064FF002002F061FFC72002F05EFF0D
:1046B000002002F05BFFD12002F058FF002002F042
:1046C00055FFD52002F052FF002002F04FFFDD2001
:1046D00002F04CFF002002F049FFF32002F046FFF9
:1046E000002002F043FFE42002F046FF012002F028
:1046F0003DFF002002F03AFF012002F037FF0020CA
:1047000002F034FF022002F031FF002002F02EFF01
:104710002A2002F02BFF002002F028FF3C2002F0AC
:1047200025FF002002F022FF4B2002F01FFF002097
:1047300002F01CFF5D2002F019FF002002F016FFBE
:10474000742002F013FF002002F010FF842002F01A
:104750000DFF002002F00AFF932002F007FF002067
:1047600002F004FFA22002F001FF002002F0FEFE92
:10477000B32002F0FBFE002002F0F8FEBE2002F0A3
:10478000F5FE002002F0F2FEC42002F0EFFE002051
:1047900002F0ECFECD2002F0E9FE002002F0E6FE81
:1047A000D32002F0E3FE002002F0E0FEDD2002F064
:1047B000DDFE002002F0DAFEF32002F0D7FE00203A
:1047C00002F0D4FEE52002F0D7FE002002F0CEFE7B
:1047D000002002F0CBFE002002F0C8FE002002F014
:1047E000C5FE022002F0C2FE002002F0BFFE29201A
:1047F00002F0BCFE002002F0B9FE3C2002F0B6FE42
:10480000002002F0B3FE4B2002F0B0FE002002F0C8
:10481000ADFE5D2002F0AAFE002002F0A7FE74208B
:1048200002F0A4FE002002F0A1FE842002F09EFE11
:10483000002002F09BFE932002F098FE002002F080
:1048400095FEA22002F092FE002002F08FFEB3201F
:1048500002F08CFE002002F089FEBE2002F086FEEF
:10486000002002F083FEC42002F080FE002002F04F
:104870007DFECD2002F07AFE002002F077FED320EC
:1048800002F074FE002002F071FEDC2002F06EFEE9
:10489000002002F06BFEF32002F068FE002002F020
:1048A00065FEE62002F068FE112002F05FFE0020A7
:1048B00002F05CFE342002F059FE002002F056FEA9
:1048C000562002F053FE002002F050FE762002F047
:1048D0004DFE002002F04AFE772002F047FE002045
:1048E00002F044FE662002F041FE002002F03EFE8F
:1048F000882002F03BFE002002F038FE992002F0F2
:1049000035FE002002F032FEBB2002F02FFE002018
:1049100002F02CFE992002F029FE002002F026FE73
:10492000662002F023FE002002F020FE552002F057
:104930001DFE002002F01AFE552002F017FE002096
:1049400002F014FE452002F011FE002002F00EFEDF
:10495000432002F00BFE002002F008FE442002F08B
:1049600005FE002002F002FEE72002F005FE3220E4
:1049700002F0FCFD002002F0F9FD552002F0F6FDEA
:10498000002002F0F3FD762002F0F0FD002002F09E
:10499000EDFD662002F0EAFD002002F0E7FD672051
:1049A00002F0E4FD002002F0E1FD672002F0DEFDF0
:1049B000002002F0DBFD872002F0D8FD002002F08D
:1049C000D5FD992002F0D2FD002002F0CFFDBB20E2
:1049D00002F0CCFD002002F0C9FD992002F0C6FDD6
:1049E000002002F0C3FD772002F0C0FD002002F09D
:1049F000BDFD442002F0BAFD002002F0B7FD5620B4
:104A000002F0B4FD002002F0B1FD232002F0AEFD63
:104A1000002002F0ABFD332002F0A8FD002002F0E0
:104A2000A5FD452002F0A2FD002002F09FFDE82038
:104A300002F0A2FD002002F099FD002002F096FD98
:104A4000992002F093FD002002F090FD872002F0F3
:104A50008DFD002002F08AFD882002F087FD0020F5
:104A600002F084FD772002F081FD002002F07EFD3F
:104A7000662002F07BFD002002F078FD882002F025
:104A800075FD002002F072FDAA2002F06FFD0020EB
:104A900002F06CFDBB2002F069FD002002F066FD13
:104AA000992002F063FD002002F060FD662002F014
:104AB0005DFD002002F05AFD552002F057FD002058
:104AC00002F054FD552002F051FD002002F04EFD91
:104AD000442002F04BFD002002F048FD442002F08B
:104AE00045FD002002F042FD552002F03FFD002070
:104AF00002F03CFDE92002F03FFDAA2002F036FD65
:104B0000002002F033FD002002F030FD002002F012
:104B10002DFD002002F030FDAA2002F027FDCF205D
:104B200002F02AFD002002F021FD002002F01EFD0F
:104B3000002002F01BFD002002F018FD002002F012
:104B400015FD002002F012FD002002F00FFD0020F4
:104B500002F00CFD002002F009FD002002F006FD2D
:104B6000002002F003FD002002F000FD002002F012
:104B7000FDFC002002F0FAFC002002F0F7FC00200F
:104B800002F0F4FC002002F0F1FCF02002F0F4FC52
:104B9000002002F0EBFC502002F0E8FC002002F0C4
:104BA000E5FC002002F0E2FC002002F0DFFCF32034
:104BB00002F0E2FC002002F0D9FCF92002F0DCFC5B
:104BC000062002F0D3FC102002F0D0FC292002F0D5
:104BD000CDFC002002F0CAFC3A2002F0CDFC5520AA
:104BE00002F0C4FC112002F0C7FC642003F0B8FA04
:104BF000292002F0C1FC352002F0BEFC002002F0AA
:104C0000B5FC512002F0B8FCFF2002F0AFFC5320AD
:104C100002F0B2FC2C2002F0A9FC552002F0ACFC02
:104C2000822002F0A3FC2C2002F0A6FC02F0E6B8E1
:104C3000FE48808845F2105188427DD155214FF4BD
:104C4000704002F0A9FCAA214FF2010002F0A4FC7E
:104C500052214FF2020002F09FFC08214FF20300A4
:104C600002F09AFC01214FF2040002F095FC0D21A4
:104C70004FF4304002F090FC0D214BF2010002F0A5
:104C80008BFC0D214BF2020002F086FC34214FF424
:104C9000364002F081FC34214BF2016002F07CFCD2
:104CA00034214BF2026002F077FC0D214FF43140C9
:104CB00002F072FC0D214BF2011002F06DFC0D218F
:104CC0004BF2021002F068FC34214FF4374002F03E
:104CD00063FC34214BF2017002F05EFC34214BF294
:104CE000027002F059FC00214FF4324002F054FCF3
:104CF00000214BF2012002F04FFC00214BF2022078
:104D000002F04AFC24214FF4384002F045FC2421F3
:104D10004BF6010002F040FC24214BF6020002F0A9
:104D20003BFC01214FF43F4002F036FC0F214FF4D1
:104D3000334002F031FC00E0FDE30F214BF2013083
:104D400002F02AFC0F214BF2023002F025FC342144
:104D50004FF4394002F020FC34214BF6011002F0F0
:104D60001BFC34214BF6021002F016FC08214FF414
:104D7000354002F011FC08214BF2015002F00CFC0E
:104D800008214BF2025002F007FC03214FF442408D
:104D900002F002FC24214FF43A4002F0FDFB2421F2
:104DA0004BF6012002F0F8FB24214BF6022002F022
:104DB000F3FB00214FF43C4002F0EEFB78214BF670
:104DC000014002F0E9FB00214BF6024002F0E4FB57
:104DD00000214FF43D4002F0DFFB78214BF60150FB
:104DE00002F0DAFB00214BF6025002F0D5FB002165
:104DF0004FF43E4002F0D0FB64214BF6016002F01C
:104E0000CBFB00214FF4514002F0C6FB33214DF2A1
:104E1000011002F0C1FB00214DF2021002F0BCFBB8
:104E200034214DF2031002F0B7FB00214DF20410C3
:104E300002F0B2FB3A214DF2051002F0ADFB002169
:104E40004DF2061002F0A8FB4A214DF2071002F0C5
:104E5000A3FB00214DF2081002F09EFB5C214DF2F5
:104E6000091002F099FB00214DF20A1002F094FBA8
:104E700081214DF20B1002F08FFB00214DF20C103E
:104E800002F08AFBA6214DF20D1002F085FB0021F5
:104E90004DF20E1002F080FBE5214DF20F1002F0F2
:104EA0007BFB01214DF2101002F076FB13214DF235
:104EB000111002F071FB01214DF2121002F06CFB97
:104EC00054214DF2131002F067FB01214DF2141032
:104ED00002F062FB82214DF2151002F05DFB012110
:104EE0004DF2161002F058FBCA214DF2171002F0D5
:104EF00053FB02214DF2181002F04EFB00214DF23F
:104F0000191002F049FB02214DF21A1002F044FB85
:104F100001214DF21B1002F03FFB02214DF21C104B
:104F200002F03AFB34214DF21D1002F035FB022154
:104F30004DF21E1002F030FB67214DF21F1002F0FF
:104F40002BFB02214DF2201002F026FB84214DF2B2
:104F5000211002F021FB02214DF2221002F01CFB75
:104F6000A4214DF2231002F017FB02214DF2241070
:104F700002F012FBB7214DF2251002F00DFB0221C9
:104F80004DF2261002F008FBCF214DF2271002F05F
:104F900003FB02214DF2281002F0FEFADE214DF251
:104FA000291002F0F9FA02214DF22A1002F0F4FA67
:104FB000F2214DF22B1002F0EFFA02214DF22C10EB
:104FC00002F0EAFAFE214DF22D1002F0E5FA03217B
:104FD0004DF22E1002F0E0FA10214DF22F1002F0E7
:104FE000DBFA03214DF2301002F0D6FA33214DF2F4
:104FF000311002F0D1FA03214DF2321002F0CCFA56
:105000006D214DF2331002F0C7FA00214FF45240E7
:1050100002F0C2FA33214DF2012002F0BDFA002164
:105020004DF2022002F0B8FA342101E028210020DC
:105030004DF2032002F0B0FA00214DF2042002F0FC
:10504000ABFA3A214DF2052002F0A6FA00214DF20A
:10505000062002F0A1FA4A214DF2072002F09CFA44
:1050600000214DF2082002F097FA5C214DF2092050
:1050700002F092FA00214DF20A2002F08DFA81210D
:105080004DF20B2002F088FA00214DF20C2002F0C4
:1050900083FAA6214DF20D2002F07EFA00214DF296
:1050A0000E2002F079FAE5214DF20F2002F074FA99
:1050B00001214DF2102002F06FFA13214DF2112060
:1050C00002F06AFA01214DF2122002F065FA542131
:1050D0004DF2132002F060FA01214DF2142002F08B
:1050E0005BFA82214DF2152002F056FA01214DF2B1
:1050F000162002F051FACA214DF2172002F04CFAA4
:1051000002214DF2182002F047FA00214DF2192039
:1051100002F042FA02214DF21A2002F03DFA01217A
:105120004DF21B2002F038FA02214DF21C2002F051
:1051300033FA34214DF21D2002F02EFA02214DF2F5
:105140001E2002F029FA67214DF21F2002F024FAF6
:1051500002214DF2202002F01FFA84214DF221207D
:1051600002F01AFA02214DF2222002F015FAA421CF
:105170004DF2232002F010FA02214DF2242002F019
:105180000BFAB7214DF2252002F006FA02214DF26A
:10519000262002F001FACF214DF2272002F0FCF97F
:1051A00002214DF2282002F0F7F9DE214DF22920EC
:1051B00002F0F2F902214DF22A2002F0EDF9F2217B
:1051C0004DF22B2002F0E8F902214DF22C2002F0E2
:1051D000E3F9FE214DF22D2002F0DEF903214DF21C
:1051E0002E2002F0D9F910214DF22F2002F0D4F92F
:1051F00003214DF2302002F0CFF933214DF231205E
:1052000002F0CAF903214DF2322002F0C5F96D21F6
:105210004DF2332002F0C0F900214FF4534002F068
:10522000BBF933214DF2013002F0B6F900214DF205
:10523000023002F0B1F934214DF2033002F0ACF942
:1052400000214DF2043002F0A7F93A214DF2053069
:1052500002F0A2F900214DF2063002F09DF94A2138
:105260004DF2073002F098F900214DF2083002F0BB
:1052700093F95C214DF2093002F08EF900214DF2D4
:105280000A3002F089F981214DF20B3002F084F9E5
:1052900000214DF20C3002F07FF9A6214DF20D30C5
:1052A00002F07AF900214DF20E3002F075F9E52195
:1052B0004DF20F3002F070F901214DF2103002F082
:1052C0006BF913214DF2113002F066F901214DF214
:1052D000123002F061F954214DF2133002F05CF902
:1052E00001214DF2143002F057F982214DF21530B0
:1052F00002F052F901214DF2163002F04DF9CA21A7
:105300004DF2173002F048F902214DF2183002F048
:1053100043F900214DF2193002F03EF902214DF21D
:105320001A3002F039F901214DF21B3002F034F944
:1053300002214DF21C3002F02FF934214DF21D30C4
:1053400002F02AF902214DF21E3002F025F9672100
:105350004DF21F3002F020F902214DF2203002F010
:105360001BF984214DF2213002F016F902214DF291
:10537000223002F011F9A4214DF2233002F00CF991
:1053800002214DF2243002F007F9B7214DF2253009
:1053900002F002F902214DF2263002F0FDF8CF2191
:1053A0004DF2273002F0F8F802214DF2283002F0D9
:1053B000F3F8DE214DF2293002F0EEF802214DF231
:1053C0002A3002F0E9F8F2214DF22B3002F0E4F835
:1053D00002214DF22C3002F0DFF8FE214DF22D308B
:1053E00002F0DAF803214DF22E3002F0D5F8102148
:1053F0004DF22F3002F0D0F803214DF2303002F0A0
:10540000CBF833214DF2313002F0C6F803214DF2D2
:10541000323002F0C1F86D214DF2333002F0BCF8A9
:1054200000214FF4544002F0B7F833214DF201400F
:1054300002F0B2F800214DF2024002F0ADF8342142
:105440004DF2034002F0A8F800214DF2044002F0B2
:10545000A3F83A214DF2054002F09EF800214DF2EA
:10546000064002F099F84A214DF2074002F094F804
:1054700000214DF2084002F08FF85C214DF2094006
:1054800002F08AF800214DF20A4002F085F88121ED
:105490004DF20B4002F080F800214DF20C4002F07A
:1054A0007BF8A6214DF20D4002F076F800214DF276
:1054B0000E4002F071F8E5214DF20F4002F06CF859
:1054C00001214DF2104002F067F813214DF2114016
:1054D00002F062F801214DF2124002F05DF8542111
:1054E0004DF2134002F058F801214DF2144002F041
:1054F00053F882214DF2154002F04EF801214DF291
:10550000164002F049F8CA214DF2174002F044F863
:1055100002214DF2184002F03FF800214DF21940EF
:1055200002F03AF802214DF21A4002F035F801215A
:105530004DF21B4000E006E302F02EF802214DF28E
:105540001C4002F029F834214DF21D4002F024F8ED
:1055500002214DF21E4002F01FF867214DF21F405C
:1055600002F01AF802214DF2204002F015F88421D1
:105570004DF2214002F010F802214DF2224002F0DB
:105580000BF8A4214DF2234002F006F802214DF25F
:10559000244002F001F8B7214DF2254001F0FCFF54
:1055A00002214DF2264001F0F7FFCF214DF22740B6
:1055B00001F0F2FF02214DF2284001F0EDFFDE2163
:1055C0004DF2294001F0E8FF02214DF22A4001F09E
:1055D000E3FFF2214DF22B4001F0DEFF02214DF2FC
:1055E0002C4001F0D9FFFE214DF22D4001F0D4FFF7
:1055F00003214DF22E4001F0CFFF10214DF22F403C
:1056000001F0CAFF03214DF2304001F0C5FF332104
:105610004DF2314001F0C0FF03214DF2324001F064
:10562000BBFF6D214DF2334001F0B6FF00214FF476
:10563000554001F0B1FF33214DF2015001F0ACFFB4
:1056400000214DF2025001F0A7FF34214DF203502A
:1056500001F0A2FF00214DF2045001F09DFF3A211C
:105660004DF2055001F098FF00214DF2065001F077
:1056700093FF4A214DF2075001F08EFF00214DF2B9
:10568000085001F089FF5C214DF2095001F084FFC0
:1056900000214DF20A5001F07FFF81214DF20B50A5
:1056A00001F07AFF00214DF20C5001F075FFA621A8
:1056B0004DF20D5001F070FF00214DF20E5001F03F
:1056C0006BFFE5214DF20F5001F066FF01214DF215
:1056D000105001F061FF13214DF2115001F05CFFF9
:1056E00001214DF2125001F057FF54214DF2135099
:1056F00001F052FF01214DF2145001F04DFF8221C3
:105700004DF2155001F048FF01214DF2165001F005
:1057100043FFCA214DF2175001F03EFF02214DF226
:10572000185001F039FF00214DF2195001F034FFFB
:1057300002214DF21A5001F02FFF01214DF21B50B2
:1057400001F02AFF02214DF21C5001F025FF342107
:105750004DF21D5001F020FF02214DF21E5001F0CC
:105760001BFF67214DF21F5001F016FF02214DF281
:10577000205001F011FF84214DF2215001F00CFF67
:1057800002214DF2225001F007FFA4214DF22350D7
:1057900001F002FF02214DF2245001F0FDFEB7217D
:1057A0004DF2255001F0F8FE02214DF2265001F095
:1057B000F3FECF214DF2275001F0EEFE02214DF213
:1057C000285001F0E9FEDE214DF2295001F0E4FEFF
:1057D00002214DF22A5001F0DFFEF2214DF22B5052
:1057E00001F0DAFE02214DF22C5001F0D5FEFE212F
:1057F0004DF22D5001F0D0FE03214DF22E5001F05C
:10580000CBFE10214DF22F5001F0C6FE03214DF2C8
:10581000305001F0C1FE33214DF2315001F0BCFE99
:1058200003214DF2325001F0B7FE6D214DF233509D
:1058300001F0B2FE00214FF4564001F0ADFE3321DD
:105840004DF2016001F0A8FE00214DF2026001F06E
:10585000A3FE34214DF2036001F09EFE00214DF2C3
:10586000046001F099FE3A214DF2056001F094FECA
:1058700000214DF2066001F08FFE4A214DF20760D3
:1058800001F08AFE00214DF2086001F085FE5C21E6
:105890004DF2096001F080FE00214DF20A6001F036
:1058A0007BFE81214DF20B6001F076FE00214DF26E
:1058B0000C6001F071FEA6214DF20D6001F06CFE4E
:1058C00000214DF20E6001F067FEE5214DF20F6000
:1058D00001F062FE01214DF2106001F05DFE132126
:1058E0004DF2116001F058FE01214DF2126001F0FD
:1058F00053FE54214DF2136001F04EFE01214DF292
:10590000146001F049FE82214DF2156001F044FE61
:1059100001214DF2166001F03FFECA214DF21760E1
:1059200001F03AFE02214DF2186001F035FE00212F
:105930004DF2196001F030FE02214DF21A6001F0C3
:105940002BFE01214DF21B6001F026FE02214DF2DB
:105950001C6001F021FE34214DF21D6001F01CFE9F
:1059600002214DF21E6001F017FE67214DF21F600B
:1059700001F012FE02214DF2206001F00DFE8421A3
:105980004DF2216001F008FE02214DF2226001F08B
:1059900003FEA4214DF2236001F0FEFD02214DF231
:1059A000246001F0F9FDB7214DF2256001F0F4FD0E
:1059B00002214DF2266001F0EFFDCF214DF227606C
:1059C00001F0EAFD02214DF2286001F0E5FDDE2143
:1059D0004DF2296001F0E0FD02214DF22A6001F054
:1059E000DBFDF2214DF22B6001F0D6FD02214DF2DC
:1059F0002C6001F0D1FDFE214DF22D6001F0CCFDB7
:105A000003214DF22E6001F0C7FD10214DF22F60F1
:105A100001F0C2FD03214DF2306001F0BDFD3321E4
:105A20004DF2316001F0B8FD03214DF2326001F01A
:105A3000B3FD6D214DF2336001F0AEFD55214FF401
:105A4000704001F0A9FDAA214FF2010001F0A4FD70
:105A500052214FF2020001F09FFD08214FF2030096
:105A600001F09AFD00214FF2040001F095FDCC21D8
:105A70004FF4314001F090FD00214BF2011001F094
:105A80008BFD05214FF4364001F086FD70214FF467
:105A9000374001F081FD70214BF2017001F07CFD77
:105AA00001214FF4384001F077FD03214BF601004E
:105AB00001F072FD03214BF6020001F06DFD0321A0
:105AC0004BF6030001F068FD02214FF43C4001F069
:105AD00063FD00214BF6014001F05EFD00214BF615
