:020000040800F2
:10000000A0070020357000084502000847020008DC
:100010004B0200084F0200085302000800000000D5
:10002000000000000000000000000000570200086F
:1000300059020008000000005B0200085D02000891
:100040004F7000084F7000084F7000084F70000894
:100050004F7000084F7000084F7000084F70000884
:100060004F7000084F7000084F7000084F70000874
:100070004F7000084F7000084F7000084F70000864
:100080004F7000084F7000084F7000084F70000854
:100090004F7000084F7000084F7000084F70000844
:1000A0004F7000084F7000084F7000084F70000834
:1000B0004F700008536D00084F7000084F70000823
:1000C0004F7000084F7000084F7000084F70000814
:1000D0004F700008A96F00084F7000084F700008AB
:1000E0004F7000084F7000084F7000084F700008F4
:1000F0004F7000084F7000084F7000084F700008E4
:100100004F7000084F7000084F7000084F700008D3
:100110004F7000084F7000084F7000084F700008C3
:100120004F7000084F7000084F7000084F700008B3
:10013000DFF810D009F094FB00480047490100089F
:10014000AFF30080A007002006F06AFE4FF4A06025
:1001500007F090FE4FF4E13006F0DAFE00F000FD0B
:1001600001F0E0F900F022FD3149086880474FF4C2
:10017000A06007F07FFE06F053FE4FF47A7006F0A1
:100180008CFE06F048FA43F6FF7006F09BFA00205A
:1001900006F0B1FA012200214FF4967006F06CFDD2
:1001A00000F0E1FA002541E02248007810B1AC20CF
:1001B00006F078FD002000F013FD04461C4841685D
:1001C000002088471A4890F8200000F0800068B1AD
:1001D000174AD18A9089184A1268904706461749EB
:1001E00009688847642006F058FE02E00A2006F0FD
:1001F00054FE032C0AD10F48007808B9012000E012
:1002000000200C490870642006F047FE681CC5B247
:100210001E2095FBF0F100FB115038B9084800682A
:1002200008B9012000E0002005490860BCE7000093
:10023000FC01002001000020EC010020F001002062
:1002400094812142704700BFFEE700BFFEE700BF78
:10025000FEE700BFFEE77047704770477047000039
:100260000CB50020019000906C48006840F480308C
:100270006A49086000BF6948006800F400300090D7
:100280000198401C0190009818B90198B0F5A06F32
:10029000F1D16248006800F4003010B101200090F4
:1002A00001E0002000900098012843D15C480068DC
:1002B00040F010005A4908600846006820F003002A
:1002C00008600846006840F0020008605348406833
:1002D000524948600846406848600846406840F413
:1002E000806048600846406820F47C1048600846FA
:1002F000406840F4E81048600846006840F08070AC
:10030000086000BF4548006800F000700028F9D080
:100310004248406820F00300404948600846406871
:1003200040F00200486000BF3C48406800F00C000C
:100330000828F9D10CBD10B5FFF792FF10BD10B51C
:100340003648006840F001003449086008464068BB
:10035000344908403149486008460068324908403D
:100360002E4908600846006820F48020086008468E
:10037000406820F4FE0048604FF41F008860FFF7DB
:10038000DAFF4FF000602949086010BD10B5002168
:1003900000200022214B5B6803F00C0121B10429ED
:1003A00006D0082928D107E0214B224C236027E002
:1003B0001F4B204C236023E0184B5B6803F4701044
:1003C000164B5B6803F48032022303EB904022B9A2
:1003D000194B4343174C23600DE0104B5B6803F44B
:1003E000003323B1144B4343124C236003E0104B02
:1003F0004343104C236003E00D4B0E4C236000BFC1
:1004000000BF064B5B68C3F303130C4CE15C094B64
:100410001B68CB40074C236010BD00000010024059
:10042000002002400000FFF8FFFFF6FE08ED00E0AC
:1004300000127A000400002000093D00080000209E
:10044000F8B50020FC4908804FF6FF7040F21D13FC
:10045000EF2295210090002003F0A1FB00243EE054
:1004600004EB4405F54E366806EB45056D882235EC
:10047000ABB204EB4405F14E366836F81550223520
:10048000AAB204EB4405ED4E366806EB45056988D3
:1004900004EB4405E94E366836F8150003F02DFCF0
:1004A000012004EB4403E54D00902D6805EB430368
:1004B0001A7904EB4403E14D2D6805EB43035B8897
:1004C000093399B204EB4403DC4D2D6835F8133041
:1004D000093398B2102303F07AFC601CC4B2D848E8
:1004E00000788442BCDBF8BD70B58AB04FF4784028
:1004F000D14908801C22D34903A808F0B3FD002489
:1005000032E003A850F82400102104EB4402CE4B43
:1005100003EB4202CDE900105288921D91B204EB28
:10052000440233F81220521D90B222231A4603F0DF
:1005300090FD04EB4405C44E06EB45056D8822355D
:10054000ABB204EB440536F815502235AAB204EBE1
:10055000440506EB4505698804EB440536F81500AB
:1005600003F0CBFB601CC4B2072CCADB0AB070BD21
:1005700070B505461C20B2490870B448AF49086000
:1005800000795E2801DD012000E00020281A44B235
:10059000A4B1600144B200200EE000EB4001AB4A80
:1005A00002EB41010979214400EB4002A74B03EB28
:1005B00042021171411CC8B21A28EEDBFFF740FF5E
:1005C00070BD10B50A209E490870A1489B4908607B
:1005D000FFF736FF10BD10B51C20994908709D48E3
:1005E00096490860FFF72CFF10BD10B502460B4678
:1005F00000212DE001EB4100904C246834F81000FC
:10060000904223DA01EB41008C4C246834F810004E
:10061000223090421ADD01EB4100884C246804EB43
:1006200040004088984211DA01EB4100834C246875
:1006300004EB400040882230984207DD01EB410086
:100640007E4C246804EB4000007910BD481CC1B208
:100650007B4800788142CDDB0020F6E710B50246EA
:100660000B4600212DE001EB4100744C246834F866
:100670001000904223DA01EB4100704C246834F8FA
:100680001000223090421ADD01EB41006B4C2468CF
:1006900004EB40004088984211DA01EB4100674CBE
:1006A000246804EB400040882230984207DD01EBCB
:1006B0004100624C246804EB4000007910BD481CE6
:1006C000C1B25F4800788142CDDB002124E001EB1C
:1006D00041005D4C34F8100090421BDA01EB410000
:1006E00034F810002230904214DD01EB410004EB9D
:1006F0004000408898420DDA01EB410004EB4000D5
:1007000040882230984205DD01EB410004EB4000B7
:100710000079D3E7481CC1B20729D8DB0020CDE718
:1007200010B54D48007840F08004204606F0BAFA33
:10073000002405E04949085D06F0B4FA601CC4B223
:10074000474800788442F5DBFF2006F0ABFA10BD85
:1007500010B54149097841F0800006F0A3FAFE2067
:1007600006F0A0FA10BD70B586B000203A490880A6
:100770004FF6FF7000F0C1FE0A203149087034487E
:100780002E490860FFF75CFE364837490860AFF233
:10079000A51036490860002031490870294A1C32EA
:1007A00007CA03AB07C30A243EE0A4F10A0003A969
:1007B00051F82000102104EB4402204BCDE9001039
:1007C0001B6803EB42025288921D91B204EB440273
:1007D0001A4B1B6833F81220521D90B222231A467E
:1007E00003F037FC04EB4405144E366806EB450570
:1007F0006D882235ABB204EB4405104E366836F8EE
:1008000015502235AAB204EB44050C4E366806EBAF
:100810004505698804EB4405084E366836F815002E
:1008200003F06BFA601CC4B20D2CBEDB0D20044932
:10083000087006B070BD0000F6010020E401002041
:100840001A000020689C00081C0000203C010020C9
:1008500046000020940000201800002070020020B4
:10086000E8010020D1090008F0010020EC0100207F
:100870007CB504460A2C5BDA072C58D2DFE804F07A
:100880005704071316193A00FFF79BFE4FE0A249E1
:1008900009680979612901DA012100E0002108468F
:1008A000FFF766FE43E0FFF796FE40E0FFF75BFFD1
:1008B0003DE09A48007800281BDD98480078401EEB
:1008C00096490870084600780F2190FBF1F000056A
:1008D000050C9248007890FBF1F201FB1200000534
:1008E000060C00201023202229460090304603F0F9
:1008F0006EFA1CE08AA010210B466422CDE900109C
:100900007821572003F0A5FBFFF70AFF87A01021ED
:100910000B466422CDE900107821572003F099FBA3
:100920004FF47A7006F0B9FAFFF71DFF00BF23E01D
:100930007A4800784B281FDA7F4878490978445470
:10094000764800780F2190FBF1F00005050C734804
:10095000007890FBF1F201FB12000005060C01206B
:100960001023224629460090304603F030FA6B48A7
:100970000078401C694908707CBD00B585B04FF611
:10098000FF7000F0BAFDFFF7AFFD0120FFF7F0FDAB
:10099000AFF2231069490860AFF23F306849086040
:1009A00000205E4908700290039004906548028818
:1009B00065A102A808F0A2FF02A810210B4664223C
:1009C000CDE900107821572003F043FB05B000BDAE
:1009D0002DE9FC4104460A2C45DA052C04D0062CEE
:1009E0002AD0072C3ED12AE04C480078002822DD8E
:1009F0004A480078401E49490870084600780F218F
:100A000090FBF1F00005050C4448007890FBF1F2F2
:100A100001FB12000005060C0020102320222946AD
:100A20000090304603F0D3F9464800880A2190FB35
:100A3000F1F04449088015E0FFF79FFF12E0FFF74F
:100A400087FE44A010210B466422CDE900107821D6
:100A5000572003F0FEFA4FF4FA6006F01EFAFFF793
:100A600082FE00BF56E03748008800EB800004EBB0
:100A70004000303833490880084600887D2829DD49
:100A80007D20088031202C490870322048703520A4
:100A900088700020C870002516E00F2095FBF0F04C
:100AA0000005060C0F2095FBF0F100FB115000052E
:100AB000070C002000902048425D10233146384644
:100AC00003F085F9681CC5B2032DE6DB032013494A
:100AD00008701FE0114800780F2190FBF1F000052D
:100AE000050C0E48007890FBF1F201FB12000005A6
:100AF000060C01201023224629460090304603F0C0
:100B000066F90D4805490978445404480078401CAA
:100B100002490870BDE8FC81E4010020E8010020E2
:100B200053656E64696E672E2E0000005375636313
:100B3000656564212100000070020020F0010020A2
:100B4000EC01002018000020746F206964202564E7
:100B500000000000566F6963654D6F6465210000F9
:100B600008B50121482008F015F82020ADF8000054
:100B700010208DF8030003208DF802006946094813
:100B800007F04CFD2021074807F0F5FD2020ADF8C7
:100B900000006946044807F041FD2021024807F0A3
:100BA000EAFD08BD000C01400018014008B5012114
:100BB000442007F0EFFF1820ADF8000048208DF822
:100BC000030069462C4807F029FD0120ADF800001C
:100BD00028208DF803006946284807F01FFD08BD4E
:100BE00010B5044614B10120254908702448007846
:100BF00058B31021204807F0A4FD50B108211E4829
:100C000007F09FFD28B101211C4807F09AFD01283B
:100C10001BD10A2006F041F9002019490870102163
:100C2000154807F08EFD08B9012010BD08211248B3
:100C300007F087FD08B90220F7E701210F4807F008
:100C400080FD012815D10320EFE710210A4807F0A5
:100C500078FD01280DD10821074807F072FD012811
:100C600007D10121054807F06CFD10B901200449A6
:100C700008700020D9E7000000180140000801407A
:100C8000F4010020FE4908807047FD49891C088056
:100C9000704708B5FA48801C00880090BDF8000035
:100CA00008BDF74A1080921C1180704710B50446A9
:100CB0002046FFF7E7FF052006F0CBF8FFF7E9FF36
:100CC00010BDF0480089EE4908807047EC49891C46
:100CD0000880704730B5014601F01F04C1F3451389
:100CE000CA0AE50205EB43151544A8B230BD00BFA2
:100CF000011EA0F10102D0B2FAD1704700B5024640
:100D00000B46E048808841F66311884247D1DD48B0
:100D10008079A8B9DB480088401E801A82B2D94980
:100D20004889FFF7AFFF0020FFF7AFFF0020FFF774
:100D3000ACFF1012FFF7A9FFD0B2FFF7A6FF16E035
:100D4000D0494889FFF79EFF1012FFF79EFFD0B2EF
:100D5000FFF79BFFCB490988491EC1F30F20FFF71E
:100D600094FFC8490978491EC8B2FFF78EFFC549EC
:100D70008889FFF787FF1812FFF787FFD8B2FFF7C0
:100D800084FFC0494988491EC1F30F20FFF77DFF4A
:100D9000BC498978491EC8B2FFF777FF3AE0B948E5
:100DA000808845F21051884220D1B6494889FFF722
:100DB00069FF1012FFF769FFB2494989491C88B2DF
:100DC000FFF760FFD0B2FFF760FFAE498889FFF7F9
:100DD00059FF1812FFF759FFAA498989491C88B29F
:100DE000FFF750FFD8B2FFF750FF13E0A54948893D
:100DF000FFF748FF1012FFF748FFD0B2FFF745FF9B
:100E0000A0498889FFF73EFF1812FFF73EFFD8B2CE
:100E1000FFF73BFF00BD2DE9F04105460E4699481E
:100E20000088A84203DD97484088B04202DC0020D9
:100E3000BDE8F08131462846FFF760FF9148808881
:100E400045F21051884204D14FF43850FFF71AFF91
:100E500002E02E20FFF716FFFFF71BFF044689482C
:100E6000808841F66311884201D12046E0E7FFF710
:100E700010FF0446FFF70DFF8046E7B24FF6FF7004
:100E800000EA0727E012C002B91240EA411040EA26
:100E9000E820CDE700B57B48808845F210518842B4
:100EA00004D14FF42450FFF7EDFE02E02920FFF7B4
:100EB000E9FE00BD00B57348808845F210518842B4
:100EC00004D14FF42050FFF7DDFE02E02820FFF7A9
:100ED000D9FE00BD70B5044600230026694880791C
:100EE000012805D16748808841F66311884208D1FE
:100EF00064488079F0B96348808841F6631188427C
:100F000018D1082C15D2DFE804F00406080A0C0EEC
:100F1000101206240DE007240BE0042409E0052448
:100F200007E0012405E0002403E0032401E002249B
:100F300000BF00BF082C1CD2DFE804F00406090C37
:100F40000F12151800BF14E043F0800311E043F0C6
:100F500040030EE043F0C0030BE043F0200308E041
:100F600043F0600305E043F0A00302E043F0E00338
:100F700000BF00BF4348808845F21051884202D12B
:100F80004FF4585600E036263E48808849F24131F9
:100F9000884205D03B48808847F28971884201D158
:100FA00043F0080319463046FFF77BFE354880883A
:100FB00041F6631188421DD003F0200068B131482A
:100FC000008830494988884214DA2E4805884088CC
:100FD0002C490880084645800CE02A4800882949A9
:100FE0004988884206DD27480588408825490880C9
:100FF000084645802348808845F21051884257D1E1
:1010000020494889FFF73EFE0020FFF73EFE1D49BC
:101010004989491C88B2FFF735FE0020FFF735FEED
:1010200018494989891C88B2FFF72CFE154909889F
:10103000491EC1F30F20FFF728FE12494989C91C38
:1010400088B2FFF71FFE0F490978491EC8B2FFF7A3
:101050001CFE0C498889FFF715FE0020FFF715FEDE
:1010600008498989491C88B2FFF70CFE0020FFF768
:101070000CFE04498989891C88B2FFF703FE03E04E
:10108000FE07006CBC020020FE494988491EC1F3DE
:101090000F20FFF7FAFDFB498989C91C88B2FFF7C9
:1010A000F1FDF8498978491EC8B2FFF7EEFD2DE041
:1010B000F4494889FFF7E6FD0020FFF7E6FD002030
:1010C000FFF7E3FDEF490988491EC1F30F20FFF741
:1010D000DCFDEC490978491EC8B2FFF7D6FDE949A5
:1010E0008889FFF7CFFD0020FFF7CFFD0020FFF735
:1010F000CCFDE4494988491EC1F30F20FFF7C5FD27
:10110000E0498978491EC8B2FFF7BFFD70BD30B510
:1011100004460D4629462046FFF7F0FDFFF7D1FDB6
:10112000D9480088D949088030BD10B503460C461F
:10113000D448808845F21051884220D1D14948894D
:10114000FFF7A0FD1812FFF7A0FDCE494989491C01
:1011500088B2FFF797FDD8B2FFF797FDC949888994
:10116000FFF790FD2012FFF790FDC6498989491CC1
:1011700088B2FFF787FDE0B2FFF787FD42E0C14884
:10118000808841F66311884228D1BE48807920B911
:10119000BC480088401EC01A83B2BA494889FFF78C
:1011A00071FD1812FFF771FDD8B2FFF76EFD18122E
:1011B000FFF76BFDD8B2FFF768FDB2498889FFF7EA
:1011C00061FD2012FFF761FDE0B2FFF75EFD201226
:1011D000FFF75BFDE0B2FFF758FD13E0A94948892E
:1011E000FFF750FD1812FFF750FDD8B2FFF74DFD85
:1011F000A4498889FFF746FD2012FFF746FDE0B2BB
:10120000FFF743FD9F480089A049891E0880881C7C
:10121000028010BD2DE9F0470446BE20FFF732FDE5
:101220000520FFF732FD204608F03CF907464FF055
:101230006632974B08F0A5F8054608F06DF91FFADD
:1012400080F94846FFF721FD0120FFF71EFDFF2032
:10125000FFF71BFD0020FFF718FD0020FFF715FD2D
:10126000BDE8F08710B5044686488471002C45D14E
:10127000F020844908804FF4A07048800846808898
:1012800045F21051884210D14FF430507D49088109
:101290004FF4285048814FF42C5088814FF4F0705F
:1012A00008804FF4487048801AE07648808841F6FC
:1012B000631188420DD12C20724908812B2048816E
:1012C0002A2088814FF4F07008804FF448704880DD
:1012D00006E02C206B4908812A2048812B20888138
:1012E0006848808845F2103188424CD14FF4A07094
:1012F000644908804FF4F070488044E04FF4A070D7
:1013000060490880F02048800846808845F21051E6
:10131000884210D14FF430505A4908814FF4285078
:1013200048814FF42C5088814FF4487008804FF466
:10133000F07048801AE05348808841F66311884273
:101340000DD12C204F4908812A2048812B208881EB
:101350004FF4487008804FF4F070488006E02C206D
:10136000484908812A2048812B2088814548808867
:1013700045F21031884206D14FF4F070414908809F
:101380004FF4A07048800020FFF7A4FD10BDF0B519
:1013900004460D46A018401E86B2E818401E87B2CB
:1013A0003848808841F66311884231D135488079C8
:1013B00001282DD033480088801A001B84B2E81819
:1013C000401E83B22F494889FFF75CFC2012FFF7CB
:1013D0005CFCE0B2FFF759FCA118491EC1F30F20D5
:1013E000FFF753FCA118491EC8B2FFF74EFC254970
:1013F0008889FFF747FC2812FFF747FCE8B2FFF7A0
:1014000044FC1812FFF741FCD8B2FFF73EFC73E032
:101410001C48808845F2105188424DD119494889AD
:10142000FFF730FC2012FFF730FC16494989491CB0
:1014300088B2FFF727FCE0B2FFF727FC1149498982
:10144000891C88B2FFF71EFC3012FFF71EFC0D4905
:101450004989C91C88B2FFF715FCF0B2FFF715FCEB
:1014600008498889FFF70EFC2812FFF70EFC054992
:101470008989491C88B2FFF705FCE8B2FFF705FC33
:10148000004907E0BC020020F60100200008006CC3
:10149000666604408989891C88B2FFF7F3FB38121D
:1014A000FFF7F3FBFE498989C91C88B2FFF7EAFB05
:1014B000F8B2FFF7EAFB1FE0F9494889FFF7E2FBC2
:1014C0002012FFF7E2FBE0B2FFF7DFFB3012FFF77D
:1014D000DCFBF0B2FFF7D9FBF1498889FFF7D2FBBB
:1014E0002812FFF7D2FBE8B2FFF7CFFB3812FFF765
:1014F000CCFBF8B2FFF7C9FBF0BD70B5044600267F
:10150000E74805884088454300210846FFF7F6FB79
:10151000FFF7D7FB00BF02E0E2480480761CAE4232
:10152000FAD370BD00B59FB00121080207F025FB7A
:1015300001214FF4B47007F02DFB0120ADF87800C5
:1015400010208DF87B0003208DF87A001EA9D64864
:1015500007F064F84CF23370ADF8780018208DF87D
:101560007B0003208DF87A001EA9D04807F056F8BA
:101570004FF68070ADF8780018208DF87B000320BE
:101580008DF87A001EA9CA4807F048F841F2010018
:10159000ADF8780018208DF87B0003208DF87A00D4
:1015A0001EA9C44807F03AF80120089000200990CD
:1015B0000F200A9000200B900C900D900E9001903F
:1015C000029003200390002004900590069007905D
:1015D00006200F90002010901190102012900020F3
:1015E000139015901490169017904FF48050189007
:1015F000002019904FF480401A9000201B9008A8FA
:101600001C9001A81D900FA806F0EEFC01210620F9
:1016100006F052FE322005F040FCD320FFF732FBEB
:10162000FFF737FB9E498880FFF733FB9C49888092
:10163000FFF72FFB9A498880084680884FF6FF7194
:1016400001EA002096498880FFF723FB94498988A6
:101650000843934988800846808849F2413188428E
:101660007DD00420FFF70EFBFFF713FB8C49888029
:10167000FFF70FFB8A498880FFF70BFB88498880BA
:10168000084680884FF6FF7101EA0020844988806F
:10169000FFF7FFFA82498988084381498880084614
:1016A000808848F25251884203D147F289707C49C0
:1016B00088807B48808847F289718842D0D0D420C6
:1016C000FFF7E0FAFFF7E5FA75498880FFF7E1FADE
:1016D00073498880FFF7DDFA714988800846808861
:1016E0004FF6FF7101EA00206D498880FFF7D1FABB
:1016F0006B49898808436A4988800846808845F292
:101700001031884262D055214FF47040FFF7C9FA7A
:10171000AA214FF20100FFF7C4FA52214FF2020052
:10172000FFF7BFFA08214FF20300FFF7BAFA0121D1
:101730004FF20400FFF7B5FA4FF44540FFF7A2FA65
:10174000FFF7A7FA56498880084680884FF6FF7150
:1017500001EA0020524988804CF2015000E035E057
:10176000FFF790FAFFF795FA4D49898808434C49ED
:101770008880052005F091FB4948808845F210518A
:10178000884223D0A120FFF77DFAFFF782FA44496F
:101790008880FFF77EFA42498880084680884FF6A5
:1017A000FF7101EA00203E498880FFF772FA3C4948
:1017B000898808433A4988800846808845F26171E3
:1017C000884203D141F663103549888034488188C6
:1017D00039A008F083F83248808849F241318842C4
:1017E00072D1CF20FFF74EFA0020FFF74EFAC1204A
:1017F000FFF74BFA3020FFF748FAED20FFF742FAE7
:101800006420FFF742FA0320FFF73FFA1220FFF7A8
:101810003CFA8120FFF739FAE820FFF733FA8520F8
:10182000FFF733FA1020FFF730FA7A20FFF72DFA8E
:10183000CB20FFF727FA3920FFF727FA2C20FFF7F4
:1018400024FA0020FFF721FA3420FFF71EFA0220C5
:10185000FFF71BFAF720FFF715FA2020FFF715FA1C
:10186000EA20FFF70FFA0020FFF70FFA0020FFF73A
:101870000CFAC020FFF706FA1B20FFF706FAC1207A
:10188000FFF700FA0120FFF700FAC520FFF7FAF989
:101890003020FFF7FAF93020FFF7F7F9C72014E0FE
:1018A000BC0200200008006C000C01400014014044
:1018B0000018014000200140204C43442049443A94
:1018C00025780D0A00000000B7E0FFF7DBF9B7202C
:1018D000FFF7DBF93620FFF7D5F94820FFF7D5F9F8
:1018E0003A20FFF7CFF95520FFF7CFF9B120FFF7E6
:1018F000C9F90020FFF7C9F91A20FFF7C6F9B62089
:10190000FFF7C0F90A20FFF7C0F9A220FFF7BDF9E1
:10191000F220FFF7B7F90020FFF7B7F92620FFF70D
:10192000B1F90120FFF7B1F9E020FFF7ABF90F2083
:10193000FFF7ABF92A20FFF7A8F92820FFF7A5F950
:101940000820FFF7A2F90E20FFF79FF90820FFF704
:101950009CF95420FFF799F9A920FFF796F9432045
:10196000FFF793F90A20FFF790F90F20FFF78DF9A1
:101970000020FFF78AF90020FFF787F90020FFF722
:1019800084F90020FFF781F9E120FFF77BF90020BF
:10199000FFF77BF91520FFF778F91720FFF775F9A6
:1019A0000720FFF772F91120FFF76FF90620FFF704
:1019B0006CF92B20FFF769F95620FFF766F93C20F8
:1019C000FFF763F90520FFF760F91020FFF75DF9D5
:1019D0000F20FFF75AF93F20FFF757F93F20FFF795
:1019E00054F90F20FFF751F92B20FFF74BF9002096
:1019F000FFF74BF90020FFF748F90120FFF745F901
:101A00003F20FFF742F92A20FFF73CF90020FFF7BB
:101A10003CF90020FFF739F90020FFF736F9EF20F5
:101A2000FFF733F91120FFF72DF9782005F035FA8B
:101A30002920FFF727F902F0A6B8FE48808847F270
:101A4000897188427ED11120FFF71CF9782005F0BA
:101A500024FA3620FFF716F90020FFF716F93A208E
:101A6000FFF710F90520FFF710F9B220FFF70AF988
:101A70000C20FFF70AF90C20FFF707F90020FFF709
:101A800004F93320FFF701F93320FFF7FEF8B72000
:101A9000FFF7F8F83520FFF7F8F8BB20FFF7F2F86A
:101AA0003220FFF7F2F8C020FFF7ECF80C20FFF728
:101AB000ECF8C220FFF7E6F80120FFF7E6F8C320B4
:101AC000FFF7E0F81020FFF7E0F8C420FFF7DAF89E
:101AD0002020FFF7DAF8C620FFF7D4F80F20FFF731
:101AE000D4F8D020FFF7CEF8A420FFF7CEF8A1203D
:101AF000FFF7CBF8E020FFF7C5F8D020FFF7C5F8D7
:101B00000020FFF7C2F80220FFF7BFF80720FFF719
:101B1000BCF80A20FFF7B9F82820FFF7B6F8322002
:101B2000FFF7B3F84420FFF7B0F84220FFF7ADF815
:101B30000620FFF7AAF80E20FFF7A7F81220FFF7FC
:101B4000A4F800E054E01420FFF79FF81720FFF7F7
:101B50009CF8E120FFF796F8D020FFF796F80020D8
:101B6000FFF793F80220FFF790F80720FFF78DF8B2
:101B70000A20FFF78AF82820FFF787F83120FFF7BF
:101B800084F85420FFF781F84720FFF77EF80E20F5
:101B9000FFF77BF81C20FFF778F81720FFF775F8A0
:101BA0001B20FFF772F81E20FFF76FF82A20FFF7BF
:101BB00069F80020FFF769F80020FFF766F80020B9
:101BC000FFF763F8EF20FFF760F82B20FFF75AF8D4
:101BD0000020FFF75AF80020FFF757F80120FFF721
:101BE00054F83F20FFF751F82920FFF74BF822E780
:101BF0009048808845F21031884240F07C87ED2083
:101C0000FFF740F80120FFF740F8FE20FFF73DF80E
:101C1000EE20FFF737F8DE20FFF737F82120FFF737
:101C200034F8F120FFF72EF80120FFF72EF8DF201F
:101C3000FFF728F81020FFF728F8C420FFF722F854
:101C40008F20FFF722F8C620FFF71CF80020FFF7CF
:101C50001CF8E220FFF719F8E220FFF716F8E2205F
:101C6000FFF713F8BF20FFF70DF8AA20FFF70DF8D4
:101C7000B020FFF707F80D20FFF707F80020FFF767
:101C800004F80D20FFF701F80020FEF7FEFF1120F9
:101C9000FEF7FBFF0020FEF7F8FF1920FEF7F5FF27
:101CA0000020FEF7F2FF2120FEF7EFFF0020FEF7F5
:101CB000ECFF2D20FEF7E9FF0020FEF7E6FF3D20B8
:101CC000FEF7E3FF0020FEF7E0FF5D20FEF7DDFFFB
:101CD0000020FEF7DAFF5D20FEF7D7FF0020FEF7B9
:101CE000D4FFB120FEF7CEFF8020FEF7CEFF00200C
:101CF000FEF7CBFF8B20FEF7C8FF0020FEF7C5FFE5
:101D00009620FEF7C2FF0020FEF7BFFFB220FEF7CD
:101D1000B9FF0020FEF7B9FF0020FEF7B6FF022052
:101D2000FEF7B3FF0020FEF7B0FF0320FEF7ADFF84
:101D30000020FEF7AAFFB320FEF7A4FF0020FEF765
:101D4000A4FF0020FEF7A1FF0020FEF79EFF002069
:101D5000FEF79BFF0020FEF798FF0020FEF795FF9F
:101D60000020FEF792FF0020FEF78FFF0020FEF715
:101D70008CFF0020FEF789FF0020FEF786FF002081
:101D8000FEF783FF0020FEF780FF0020FEF77DFFB7
:101D90000020FEF77AFF0020FEF777FF0020FEF715
:101DA00074FF0020FEF771FF0020FEF76EFF002099
:101DB000FEF76BFF0020FEF768FF0020FEF765FFCF
:101DC0000020FEF762FF0020FEF75FFFB420FEF761
:101DD00059FF8B20FEF759FF0020FEF756FF962093
:101DE000FEF753FF0020FEF750FFA120FEF74DFF46
:101DF0000020FEF74AFFB520FEF744FF0220FEF761
:101E000044FF0020FEF741FF0320FEF73EFF0020C5
:101E1000FEF73BFF0420FEF738FF0020FEF735FFFA
:101E2000B620FEF72FFF0020FEF72FFF0020FEF761
:101E30002CFF01E0BC020020B720FEF723FF0020AA
:101E4000FEF723FF0020FEF720FF3F20FEF71DFFD7
:101E50000020FEF71AFF5E20FEF717FF0020FEF7B6
:101E600014FF6420FEF711FF0020FEF70EFF8C2008
:101E7000FEF70BFF0020FEF708FFAC20FEF705FF82
:101E80000020FEF702FFDC20FEF7FFFE0020FEF739
:101E9000FCFE7020FEF7F9FE0020FEF7F6FE902013
:101EA000FEF7F3FE0020FEF7F0FEEB20FEF7EDFE5E
:101EB0000020FEF7EAFEDC20FEF7E7FE0020FEF73A
:101EC000E4FEB820FEF7DEFE0020FEF7DEFE002076
:101ED000FEF7DBFE0020FEF7D8FE0020FEF7D5FE61
:101EE0000020FEF7D2FE0020FEF7CFFE0020FEF716
:101EF000CCFE0020FEF7C9FEBA20FEF7C3FE242068
:101F0000FEF7C3FE0020FEF7C0FE0020FEF7BDFE78
:101F10000020FEF7BAFEC120FEF7B4FE2020FEF737
:101F2000B4FE0020FEF7B1FE5420FEF7AEFE002006
:101F3000FEF7ABFEFF20FEF7A8FE0020FEF7A5FE91
:101F4000C220FEF79FFE0A20FEF79FFE0020FEF74C
:101F50009CFE0420FEF799FE0020FEF796FEC320AB
:101F6000FEF790FE3C20FEF790FE0020FEF78DFE6F
:101F70003A20FEF78AFE0020FEF787FE3920FEF7A2
:101F800084FE0020FEF781FE3720FEF77EFE002053
:101F9000FEF77BFE3C20FEF778FE0020FEF775FE84
:101FA0003620FEF772FE0020FEF76FFE3220FEF7AD
:101FB0006CFE0020FEF769FE2F20FEF766FE002073
:101FC000FEF763FE2C20FEF760FE0020FEF75DFEAC
:101FD0002920FEF75AFE0020FEF757FE2620FEF7C6
:101FE00054FE0020FEF751FE2420FEF74EFE002096
:101FF000FEF74BFE2420FEF748FE0020FEF745FECC
:102000002320FEF742FE0020FEF73FFE3C20FEF7B5
:102010003CFE0020FEF739FE3620FEF736FE00209B
:10202000FEF733FE3220FEF730FE0020FEF72DFED5
:102030002F20FEF72AFE0020FEF727FE2C20FEF7B9
:1020400024FE0020FEF721FE2920FEF71EFE0020C0
:10205000FEF71BFE2620FEF718FE0020FEF715FEF9
:102060002420FEF712FE0020FEF70FFE2420FEF7CC
:102070000CFE0020FEF709FE2320FEF706FE0020DE
:10208000FEF703FEC420FEF7FDFD6220FEF7FDFD16
:102090000020FEF7FAFD0520FEF7F7FD0020FEF711
:1020A000F4FD8420FEF7F1FD0020FEF7EEFDF020A8
:1020B000FEF7EBFD0020FEF7E8FD1820FEF7E5FD3A
:1020C0000020FEF7E2FDA420FEF7DFFD0020FEF772
:1020D000DCFD1820FEF7D9FD0020FEF7D6FD5020CC
:1020E000FEF7D3FD0020FEF7D0FD0C20FEF7CDFD5E
:1020F0000020FEF7CAFD1720FEF7C7FD0020FEF7FF
:10210000C4FD9520FEF7C1FD0020FEF7BEFDF320C3
:10211000FEF7BBFD0020FEF7B8FDE620FEF7B5FD9B
:102120000020FEF7B2FDC520FEF7ACFD3220FEF721
:10213000ACFD0020FEF7A9FD4420FEF7A6FD00201F
:10214000FEF7A3FD6520FEF7A0FD0020FEF79DFD34
:102150007620FEF79AFD0020FEF797FD8820FEF717
:1021600094FD0020FEF791FDC620FEF78BFD202098
:10217000FEF78BFD0020FEF788FD1720FEF785FD9A
:102180000020FEF782FD0120FEF77FFD0020FEF714
:102190007CFDC720FEF776FD0020FEF776FD0020CF
:1021A000FEF773FD0020FEF770FD0020FEF76DFDC9
:1021B000C820FEF767FD0020FEF767FD0020FEF750
:1021C00064FD0020FEF761FD0020FEF75EFDC920E2
:1021D000FEF758FD0020FEF758FD0020FEF755FDE4
:1021E0000020FEF752FD0020FEF74FFD0020FEF715
:1021F0004CFD0020FEF749FD0020FEF746FD0020C3
:10220000FEF743FD0020FEF740FD0020FEF73DFDF8
:102210000020FEF73AFD0020FEF737FD0020FEF714
:1022200034FD0020FEF731FD0020FEF72EFD0020DA
:10223000FEF72BFDE020FEF725FD1620FEF725FD1D
:102240000020FEF722FD1C20FEF71FFD0020FEF7F8
:102250001CFD2120FEF719FD0020FEF716FD36209B
:10226000FEF713FD0020FEF710FD4620FEF70DFDE2
:102270000020FEF70AFD5220FEF707FD0020FEF7C2
:1022800004FD6420FEF701FD0020FEF7FEFC7A202D
:10229000FEF7FBFC0020FEF7F8FC8B20FEF7F5FCB8
:1022A0000020FEF7F2FC9920FEF7EFFC0020FEF77D
:1022B000ECFCA820FEF7E9FC0020FEF7E6FCB920C4
:1022C000FEF7E3FC0020FEF7E0FCC420FEF7DDFC97
:1022D0000020FEF7DAFCCA20FEF7D7FC0020FEF74C
:1022E000D4FCD220FEF7D1FC0020FEF7CEFCD92092
:1022F000FEF7CBFC0020FEF7C8FCE020FEF7C5FC93
:102300000020FEF7C2FCF320FEF7BFFC0020FEF722
:10231000BCFCE120FEF7B6FC1620FEF7B6FC002060
:10232000FEF7B3FC1C20FEF7B0FC0020FEF7ADFC6E
:102330002220FEF7AAFC0020FEF7A7FC3620FEF7BD
:10234000A4FC0020FEF7A1FC4520FEF79EFC002027
:10235000FEF79BFC5220FEF798FC0020FEF795FC50
:102360006420FEF792FC0020FEF78FFC7A20FEF737
:102370008CFC0020FEF789FC8B20FEF786FC0020F9
:10238000FEF783FC9920FEF780FC0020FEF77DFC21
:10239000A820FEF77AFC0020FEF777FCB920FEF7B4
:1023A00074FC0020FEF771FCC420FEF76EFC0020D8
:1023B000FEF76BFCCA20FEF768FC0020FEF765FC08
:1023C000D220FEF762FC0020FEF75FFCD820FEF76B
:1023D0005CFC0020FEF759FCE020FEF756FC0020D4
:1023E000FEF753FCF320FEF750FC0020FEF74DFCF7
:1023F000E220FEF747FC0520FEF747FC0020FEF731
:1024000044FC0B20FEF741FC0020FEF73EFC1B20A5
:10241000FEF73BFC0020FEF738FC3420FEF735FCCD
:102420000020FEF732FC4420FEF72FFC0020FEF7D0
:102430002CFC4F20FEF729FC0020FEF726FC612033
:10244000FEF723FC0020FEF720FC7920FEF71DFCA0
:102450000020FEF71AFC8820FEF717FC0020FEF78C
:1024600014FC9720FEF711FC0020FEF70EFCA620BE
:10247000FEF70BFC0020FEF708FCB720FEF705FC7A
:102480000020FEF702FCC220FEF7FFFB0020FEF753
:10249000FCFBC720FEF7F9FB0020FEF7F6FBD1207E
:1024A000FEF7F3FB0020FEF7F0FBD620FEF7EDFB76
:1024B0000020FEF7EAFBDD20FEF7E7FB0020FEF739
:1024C000E4FBF320FEF7E1FB0020FEF7DEFBE32058
:1024D000FEF7D8FB0520FEF7D8FB0020FEF7D5FB62
:1024E0000A20FEF7D2FB0020FEF7CFFB1C20FEF7F0
:1024F000CCFB0020FEF7C9FB3320FEF7C6FB002013
:10250000FEF7C3FB4420FEF7C0FB0020FEF7BDFB37
:102510005020FEF7BAFB0020FEF7B7FB6220FEF763
:10252000B4FB0020FEF7B1FB7820FEF7AEFB0020E5
:10253000FEF7ABFB8820FEF7A8FB0020FEF7A5FB0B
:102540009720FEF7A2FB0020FEF79FFBA620FEF7D8
:102550009CFB0020FEF799FBB720FEF796FB0020BE
:10256000FEF793FBC220FEF790FB0020FEF78DFBE9
:10257000C720FEF78AFB0020FEF787FBD120FEF77D
:1025800084FB0020FEF781FBD520FEF77EFB0020B8
:10259000FEF77BFBDD20FEF778FB0020FEF775FBE6
:1025A000F320FEF772FB0020FEF76FFBE420FEF73E
:1025B00069FB0120FEF769FB0020FEF766FB0120A6
:1025C000FEF763FB0020FEF760FB0220FEF75DFBD9
:1025D0000020FEF75AFB2A20FEF757FB0020FEF7EB
:1025E00054FB3C20FEF751FB0020FEF74EFB4B2036
:1025F000FEF74BFB0020FEF748FB5D20FEF745FB96
:102600000020FEF742FB7420FEF73FFB0020FEF7A0
:102610003CFB8420FEF739FB0020FEF736FB9320BD
:10262000FEF733FB0020FEF730FBA220FEF72DFB68
:102630000020FEF72AFBB320FEF727FB0020FEF761
:1026400024FBBE20FEF721FB0020FEF71EFBC4206A
:10265000FEF71BFB0020FEF718FBCD20FEF715FB55
:102660000020FEF712FBD320FEF70FFB0020FEF741
:102670000CFBDD20FEF709FB0020FEF706FBF32034
:10268000FEF703FB0020FEF700FBE520FEF7FAFA59
:102690000020FEF7FAFA0020FEF7F7FA0020FEF716
:1026A000F4FA0020FEF7F1FA0220FEF7EEFA00201D
:1026B000FEF7EBFA2920FEF7E8FA0020FEF7E5FA2C
:1026C0003C20FEF7E2FA0020FEF7DFFA4B20FEF78F
:1026D000DCFA0020FEF7D9FA5D20FEF7D6FA0020DA
:1026E000FEF7D3FA7420FEF7D0FA0020FEF7CDFAF9
:1026F0008420FEF7CAFA0020FEF7C7FA9320FEF7FF
:10270000C4FA0020FEF7C1FAA220FEF7BEFA0020AC
:10271000FEF7BBFAB320FEF7B8FA0020FEF7B5FAD1
:10272000BE20FEF7B2FA0020FEF7AFFAC420FEF793
:10273000ACFA0020FEF7A9FACD20FEF7A6FA002099
:10274000FEF7A3FAD320FEF7A0FA0020FEF79DFAC9
:10275000DC20FEF79AFA0020FEF797FAF320FEF746
:1027600094FA0020FEF791FAE620FEF78BFA11208A
:10277000FEF78BFA0020FEF788FA3420FEF785FA80
:102780000020FEF782FA5620FEF77FFA0020FEF7BF
:102790007CFA7620FEF779FA0020FEF776FA7720A9
:1027A000FEF773FA0020FEF770FA6620FEF76DFA66
:1027B0000020FEF76AFA8820FEF767FA0020FEF78D
:1027C00064FA9920FEF761FA0020FEF75EFABB205A
:1027D000FEF75BFA0020FEF758FA9920FEF755FA4B
:1027E0000020FEF752FA6620FEF74FFA0020FEF7AF
:1027F0004CFA5520FEF749FA0020FEF746FA55201C
:10280000FEF743FA0020FEF740FA4520FEF73DFAB6
:102810000020FEF73AFA4320FEF737FA0020FEF7D1
:1028200034FA4420FEF731FA0020FEF72EFAE720B2
:10283000FEF728FA3220FEF728FA0020FEF725FAE4
:102840005520FEF722FA0020FEF71FFA7620FEF749
:102850001CFA0020FEF719FA6620FEF716FA00208F
:10286000FEF713FA6720FEF710FA0020FEF70DFAC4
:102870006720FEF70AFA0020FEF707FA8720FEF726
:1028800004FA0020FEF701FA9920FEF7FEF9002075
:10289000FEF7FBF9BB20FEF7F8F90020FEF7F5F98B
:1028A0009920FEF7F2F90020FEF7EFF97720FEF706
:1028B000ECF90020FEF7E9F94420FEF7E6F90020E4
:1028C000FEF7E3F95620FEF7E0F90020FEF7DDF908
:1028D0002320FEF7DAF90020FEF7D7F93320FEF7C0
:1028E000D4F90020FEF7D1F94520FEF7CEF90020FB
:1028F000FEF7CBF9E820FEF7C5F90020FEF7C5F991
:102900000020FEF7C2F99920FEF7BFF90020FEF77C
:10291000BCF98720FEF7B9F90020FEF7B6F9882048
:10292000FEF7B3F90020FEF7B0F97720FEF7ADF916
:102930000020FEF7AAF96620FEF7A7F90020FEF7AF
:10294000A4F98820FEF7A1F90020FEF79EF9AA203D
:10295000FEF79BF90020FEF798F9BB20FEF795F9EA
:102960000020FEF792F99920FEF78FF90020FEF77C
:102970008CF96620FEF789F90020FEF786F95520CC
:10298000FEF783F90020FEF780F95520FEF77DF968
:102990000020FEF77AF94420FEF777F90020FEF7D1
:1029A00074F94420FEF771F90020FEF76EF9552006
:1029B000FEF76BF90020FEF768F9E920FEF762F9EF
:1029C000AA20FEF762F90020FEF75FF90020FEF76B
:1029D0005CF90020FEF759F90020FEF753F9AA2010
:1029E000FEF753F9CF20FEF74DF90020FEF74DF921
:1029F0000020FEF74AF90020FEF747F90020FEF715
:102A000044F90020FEF741F90020FEF73EF90020CE
:102A1000FEF73BF90020FEF738F90020FEF735F904
:102A20000020FEF732F90020FEF72FF90020FEF714
:102A30002CF90020FEF729F90020FEF726F90020E6
:102A4000FEF723F90020FEF720F90020FEF71DF91C
:102A5000F020FEF717F90020FEF717F95020FEF7D7
:102A600014F90020FEF711F90020FEF70EF90020FE
:102A7000FEF70BF9F320FEF705F90020FEF705F944
:102A8000F920FEF7FFF80620FEF7FFF81020FEF70A
:102A9000FCF82920FEF7F9F80020FEF7F6F83A20B6
:102AA000FEF7F0F85520FEF7F0F81120FEF7EAF8EF
:102AB000642004F0F2F92920FEF7E4F83520FEF74F
:102AC000E1F80020FEF7E1F85120FEF7DBF8FF20E7
:102AD000FEF7DBF85320FEF7D5F82C20FEF7D5F8EB
:102AE0005520FEF7CFF88220FEF7CFF82C20FEF716
:102AF000C9F801F048B8FE48808845F21051884274
:102B00007ED155214FF47040FEF7CBF8AA214FF249
:102B10000100FEF7C6F852214FF20200FEF7C1F89D
:102B200008214FF20300FEF7BCF801214FF2040028
:102B3000FEF7B7F80D214FF43040FEF7B2F80D2143
:102B40004BF20100FEF7ADF80D214BF20200FEF74B
:102B5000A8F834214FF43640FEF7A3F834214BF2A5
:102B60000160FEF79EF834214BF20260FEF799F8FF
:102B70000D214FF43140FEF794F80D214BF2011076
:102B8000FEF78FF80D214BF20210FEF78AF8342180
:102B90004FF43740FEF785F834214BF20170FEF711
:102BA00080F834214BF20270FEF77BF800214FF4DD
:102BB0003240FEF776F800214BF20120FEF771F863
:102BC00000214BF20220FEF76CF824214FF438402C
:102BD000FEF767F824214BF60100FEF762F8242186
:102BE0004BF60200FEF75DF801214FF43F40FEF77F
:102BF00058F80F214FF43340FEF753F80F2100E04F
:102C0000FEE34BF20130FEF74CF80F214BF202309D
:102C1000FEF747F834214FF43940FEF742F83421EB
:102C20004BF60110FEF73DF834214BF60210FEF78B
:102C300038F808214FF43540FEF733F808214BF2FD
:102C40000150FEF72EF808214BF20250FEF729F84A
:102C500003214FF44240FEF724F824214FF43A4078
:102C6000FEF71FF824214BF60120FEF71AF8242165
:102C70004BF60220FEF715F800214FF43C40FEF71A
:102C800010F878214BF60140FEF70BF800214BF6C7
:102C90000240FEF706F800214FF43D40FEF701F830
:102CA00078214BF60150FDF7FCFF00214BF6025056
:102CB000FDF7F7FF00214FF43E40FDF7F2FF6421DE
:102CC0004BF60160FDF7EDFF00214FF45140FDF799
:102CD000E8FF33214DF20110FDF7E3FF00214DF233
:102CE0000210FDF7DEFF34214DF20310FDF7D9FF8E
:102CF00000214DF20410FDF7D4FF3A214DF20510EA
:102D0000FDF7CFFF00214DF20610FDF7CAFF4A2163
:102D10004DF20710FDF7C5FF00214DF20810FDF739
:102D2000C0FF5C214DF20910FDF7BBFF00214DF201
:102D30000A10FDF7B6FF81214DF20B10FDF7B1FF30
:102D400000214DF20C10FDF7ACFFA6214DF20D1045
:102D5000FDF7A7FF00214DF20E10FDF7A2FFE521C0
:102D60004DF20F10FDF79DFF01214DF21010FDF700
:102D700098FF13214DF21110FDF793FF01214DF241
:102D80001210FDF78EFF54214DF21310FDF789FF4D
:102D900001214DF21410FDF784FF82214DF2151030
:102DA000FDF77FFF01214DF21610FDF77AFFCA21D2
:102DB0004DF21710FDF775FF02214DF21810FDF7C7
:102DC00070FF00214DF21910FDF76BFF02214DF24B
:102DD0001A10FDF766FF01214DF21B10FDF761FF90
:102DE00002214DF21C10FDF75CFF34214DF21D1045
:102DF000FDF757FF02214DF21E10FDF752FF67212C
:102E00004DF21F10FDF74DFF02214DF22010FDF78E
:102E100048FF84214DF22110FDF743FF02214DF2BE
:102E20002210FDF73EFFA4214DF22310FDF739FFDC
:102E300002214DF22410FDF734FFB7214DF2251089
:102E4000FDF72FFF02214DF22610FDF72AFFCF21BB
:102E50004DF22710FDF725FF02214DF22810FDF756
:102E600020FFDE214DF22910FDF71BFF02214DF25C
:102E70002A10FDF716FFF2214DF22B10FDF711FF7E
:102E800002214DF22C10FDF70CFFFE214DF22D100A
:102E9000FDF707FF03214DF22E10FDF702FF102171
:102EA0004DF22F10FDF7FDFE03214DF23010FDF71E
:102EB000F8FE33214DF23110FDF7F3FE03214DF200
:102EC0003210FDF7EEFE6D214DF23310FDF7E9FEF5
:102ED00000214FF45240FDF7E4FE33214DF2012072
:102EE000FDF7DFFE00214DF20220FDF7DAFE01E0E2
:102EF000BC02002034214DF20320FDF7D2FE002158
:102F00004DF20420FDF7CDFE3A214DF20520FDF7EC
:102F1000C8FE00214DF20620FDF7C3FE4A214DF206
:102F20000720FDF7BEFE00214DF20820FDF7B9FE97
:102F30005C214DF20920FDF7B4FE00214DF20A207C
:102F4000FDF7AFFE81214DF20B20FDF7AAFE002117
:102F50004DF20C20FDF7A5FEA6214DF20D20FDF748
:102F6000A0FE00214DF20E20FDF79BFEE5214DF263
:102F70000F20FDF796FE01214DF21020FDF791FE86
:102F800013214DF21120FDF78CFE01214DF212208C
:102F9000FDF787FE54214DF21320FDF782FE01213B
:102FA0004DF21420FDF77DFE82214DF21520FDF734
:102FB00078FE01214DF21620FDF773FECA214DF275
:102FC0001720FDF76EFE02214DF21820FDF769FE75
:102FD00000214DF21920FDF764FE02214DF21A2066
:102FE000FDF75FFE01214DF21B20FDF75AFE022185
:102FF0004DF21C20FDF755FE34214DF21D20FDF74A
:1030000050FE02214DF21E20FDF74BFE67214DF2CE
:103010001F20FDF746FE02214DF22020FDF741FE64
:1030200084214DF22120FDF73CFE02214DF22220A9
:10303000FDF737FEA4214DF22320FDF732FE0221D9
:103040004DF22420FDF72DFEB7214DF22520FDF78E
:1030500028FE02214DF22620FDF723FECF214DF25E
:103060002720FDF71EFE02214DF22820FDF719FE54
:10307000DE214DF22920FDF714FE02214DF22A2017
:10308000FDF70FFEF2214DF22B20FDF70AFE022183
:103090004DF22C20FDF705FEFE214DF22D20FDF70F
:1030A00000FE03214DF22E20FDF7FBFD10214DF215
:1030B0002F20FDF7F6FD03214DF23020FDF7F1FD45
:1030C00033214DF23120FDF7ECFD03214DF232208A
:1030D000FDF7E7FD6D214DF23320FDF7E2FD002104
:1030E0004FF45340FDF7DDFD33214DF20130FDF784
:1030F000D8FD00214DF20230FDF7D3FD34214DF211
:103100000330FDF7CEFD00214DF20430FDF7C9FD7F
:103110003A214DF20530FDF7C4FD00214DF2063095
:10312000FDF7BFFD4A214DF20730FDF7BAFD002142
:103130004DF20830FDF7B5FD5C214DF20930FDF789
:10314000B0FD00214DF20A30FDF7ABFD81214DF2BB
:103150000B30FDF7A6FD00214DF20C30FDF7A1FD6F
:10316000A6214DF20D30FDF79CFD00214DF20E30F1
:10317000FDF797FDE5214DF20F30FDF792FD01219E
:103180004DF21030FDF78DFD13214DF21130FDF79A
:1031900088FD01214DF21230FDF783FD54214DF2DF
:1031A0001330FDF77EFD01214DF21430FDF779FD5E
:1031B00082214DF21530FDF774FD01214DF21630DC
:1031C000FDF76FFDCA214DF21730FDF76AFD0221B0
:1031D0004DF21830FDF765FD00214DF21930FDF775
:1031E00060FD02214DF21A30FDF75BFD01214DF229
:1031F0001B30FDF756FD02214DF21C30FDF751FD4D
:1032000034214DF21D30FDF74CFD02214DF21E30F0
:10321000FDF747FD67214DF21F30FDF742FD02210A
:103220004DF22030FDF73DFD84214DF22130FDF7B8
:1032300038FD02214DF22230FDF733FDA4214DF27D
:103240002330FDF72EFD02214DF22430FDF729FD3C
:10325000B7214DF22530FDF724FD02214DF2263035
:10326000FDF71FFDCF214DF22730FDF71AFD02219A
:103270004DF22830FDF715FDDE214DF22930FDF726
:1032800010FD02214DF22A30FDF70BFDF2214DF227
:103290002B30FDF706FD02214DF22C30FDF701FD2C
:1032A000FE214DF22D30FDF7FCFC03214DF22E30B6
:1032B000FDF7F7FC10214DF22F30FDF7F2FC032152
:1032C0004DF23030FDF7EDFC33214DF23130FDF79A
:1032D000E8FC03214DF23230FDF7E3FC6D214DF2A5
:1032E0003330FDF7DEFC00214FF45440FDF7D9FCEC
:1032F00033214DF20140FDF7D4FC00214DF2024094
:10330000FDF7CFFC34214DF20340FDF7CAFC00214C
:103310004DF20440FDF7C5FC3A214DF20540FDF7A2
:10332000C0FC00214DF20640FDF7BBFC4A214DF2E6
:103330000740FDF7B6FC00214DF20840FDF7B1FC57
:103340005C214DF20940FDF7ACFC00214DF20A4032
:10335000FDF7A7FC81214DF20B40FDF7A2FC0021F7
:103360004DF20C40FDF79DFCA6214DF20D40FDF7FE
:1033700098FC00214DF20E40FDF793FCE5214DF243
:103380000F40FDF78EFC01214DF21040FDF789FC46
:1033900013214DF21140FDF784FC01214DF2124042
:1033A000FDF77FFC54214DF21340FDF77AFC01211B
:1033B0004DF21440FDF775FC82214DF21540FDF7EA
:1033C00070FC01214DF21640FDF76BFCCA214DF255
:1033D0001740FDF766FC02214DF21840FDF761FC35
:1033E00000214DF21940FDF75CFC02214DF21A401C
:1033F000FDF757FC01214DF21B40FDF752FC00E0A8
:1034000003E302214DF21C40FDF74BFC34214DF249
:103410001D40FDF746FC02214DF21E40FDF741FC28
:1034200067214DF21F40FDF73CFC02214DF2204088
:10343000FDF737FC84214DF22140FDF732FC0221DB
:103440004DF22240FDF72DFCA4214DF22340FDF763
:1034500028FC02214DF22440FDF723FCB7214DF258
:103460002540FDF71EFC02214DF22640FDF719FC18
:10347000CF214DF22740FDF714FC02214DF22840E8
:10348000FDF70FFCDE214DF22940FDF70AFC022179
:103490004DF22A40FDF705FCF2214DF22B40FDF7DD
:1034A00000FC02214DF22C40FDF7FBFBFE214DF20A
:1034B0002D40FDF7F6FB03214DF22E40FDF7F1FB09
:1034C00010214DF22F40FDF7ECFB03214DF230406F
:1034D000FDF7E7FB33214DF23140FDF7E2FB03211D
:1034E0004DF23240FDF7DDFB6D214DF23340FDF72B
:1034F000D8FB00214FF45540FDF7D3FB33214DF2AB
:103500000150FDF7CEFB00214DF20250FDF7C9FB43
:1035100034214DF20350FDF7C4FB00214DF204505D
:10352000FDF7BFFB3A214DF20550FDF7BAFB002134
:103530004DF20650FDF7B5FB4A214DF20750FDF75D
:10354000B0FB00214DF20850FDF7ABFB5C214DF2C2
:103550000950FDF7A6FB00214DF20A50FDF7A1FB33
:1035600081214DF20B50FDF79CFB00214DF20C50D8
:10357000FDF797FBA6214DF20D50FDF792FB0021C0
:103580004DF20E50FDF78DFBE5214DF20F50FDF78A
:1035900088FB01214DF21050FDF783FB13214DF202
:1035A0001150FDF77EFB01214DF21250FDF779FB22
:1035B00054214DF21350FDF774FB01214DF21450CC
:1035C000FDF76FFB82214DF21550FDF76AFB0121DB
:1035D0004DF21650FDF765FBCA214DF21750FDF76D
:1035E00060FB02214DF21850FDF75BFB00214DF20C
:1035F0001950FDF756FB02214DF21A50FDF751FB11
:1036000001214DF21B50FDF74CFB02214DF21C50E5
:10361000FDF747FB34214DF21D50FDF742FB02211F
:103620004DF21E50FDF73DFB67214DF21F50FDF797
:1036300038FB02214DF22050FDF733FB84214DF27F
:103640002150FDF72EFB02214DF22250FDF729FB00
:10365000A4214DF22350FDF724FB02214DF224500A
:10366000FDF71FFBB7214DF22550FDF71AFB022194
:103670004DF22650FDF715FBCF214DF22750FDF7F7
:1036800010FB02214DF22850FDF70BFBDE214DF21D
:103690002950FDF706FB02214DF22A50FDF701FBF0
:1036A000F2214DF22B50FDF7FCFA02214DF22C5085
:1036B000FDF7F7FAFE214DF22D50FDF7F2FA032146
:1036C0004DF22E50FDF7EDFA10214DF22F50FDF77F
:1036D000E8FA03214DF23050FDF7E3FA33214DF2C1
:1036E0003150FDF7DEFA03214DF23250FDF7D9FAE1
:1036F0006D214DF23350FDF7D4FA00214FF45640BE
:10370000FDF7CFFA33214DF20160FDF7CAFA00212F
:103710004DF20260FDF7C5FA34214DF20360FDF76A
:10372000C0FA00214DF20460FDF7BBFA3A214DF2D8
:103730000560FDF7B6FA00214DF20660FDF7B1FA1B
:103740004A214DF20760FDF7ACFA00214DF2086006
:10375000FDF7A7FA5C214DF20960FDF7A2FA0021FE
:103760004DF20A60FDF79DFA81214DF20B60FDF7E5
:1037700098FA00214DF20C60FDF793FAA6214DF264
:103780000D60FDF78EFA00214DF20E60FDF789FA0B
:10379000E5214DF20F60FDF784FA01214DF2106032
:1037A000FDF77FFA13214DF21160FDF77AFA01213E
:1037B0004DF21260FDF775FA54214DF21360FDF7DA
:1037C00070FA01214DF21460FDF76BFA82214DF27F
:1037D0001560FDF766FA01214DF21660FDF761FAFA
:1037E000CA214DF21760FDF75CFA02214DF2186014
:1037F000FDF757FA00214DF21960FDF752FA022148
:103800004DF21A60FDF74DFA01214DF21B60FDF7F4
:1038100048FA02214DF21C60FDF743FA34214DF2C3
:103820001D60FDF73EFA02214DF21E60FDF739FAE8
:1038300067214DF21F60FDF734FA02214DF220603E
:10384000FDF72FFA84214DF22160FDF72AFA0221BB
:103850004DF22260FDF725FAA4214DF22360FDF719
:1038600020FA02214DF22460FDF71BFAB7214DF238
:103870002560FDF716FA02214DF22660FDF711FAD8
:10388000CF214DF22760FDF70CFA02214DF228609E
:10389000FDF707FADE214DF22960FDF702FA022159
:1038A0004DF22A60FDF7FDF9F2214DF22B60FDF794
:1038B000F8F902214DF22C60FDF7F3F9FE214DF2EB
:1038C0002D60FDF7EEF903214DF22E60FDF7E9F9C9
:1038D00010214DF22F60FDF7E4F903214DF2306025
:1038E000FDF7DFF933214DF23160FDF7DAF90321FD
:1038F0004DF23260FDF7D5F96D214DF23360FDF7E1
:10390000D0F955214FF47040FDF7CBF9AA214FF2C1
:103910000100FDF7C6F952214FF20200FDF7C1F98F
:1039200008214FF20300FDF7BCF900214FF204001B
:10393000FDF7B7F9CC214FF43140FDF7B2F9002182
:103940004BF20110FDF7ADF905214FF43640FDF7BC
:10395000A8F970214FF43740FDF7A3F970214BF21D
:103960000170FDF79EF901214FF43840FDF799F9F8
:1039700003214BF60100FDF794F903214BF60200F9
:10398000FDF78FF903214BF60300FDF78AF90221B9
:103990004FF43C40FDF785F900214BF60140FDF75F
:1039A00080F900214BF60240FDF77BF9D0214FF45E
:1039B0004940FDF776F902214CF60110FDF771F947
:1039C00050214CF60210FDF76CF950214CF6031013
:1039D000FDF767F950214CF60410FDF762F900215C
:1039E0004FF45450FDF75DF955214FF46850FDF741
:1039F00058F94FF48850FDF745F9782003F029FA7B
:103A00004FF42450FDF73EF9BDE0FE48808841F6B2
:103A100063118842F8D1E220FDF734F91D20FDF74B
:103A200034F90220FDF731F90420FDF72EF9642066
:103A300003F00FFAE020FDF725F90120FDF725F945
:103A40000A2003F02AFAE020FDF71CF90320FDF715
:103A50001CF90C2003F021FA0120FDF713F90A20CC
:103A600003F01BFAE620FDF70DF92F20FDF70DF905
:103A7000FF20FDF70AF9FF20FDF707F9B020FDF759
:103A800001F92020FDF701F90020FDF7FEF80320E1
:103A9000FDF7FBF840F21F30FDF7F7F80120FDF7C6
:103AA000F4F840F2DF10FDF7F0F80020FDF7EDF834
:103AB000B420FDF7E7F80420FDF7E7F840F21F40D7
:103AC000FDF7E3F80020FDF7E0F82E20FDF7DDF824
:103AD0000020FDF7DAF80020FDF7D7F80020FDF709
:103AE000D4F80020FDF7D1F8B620FDF7CBF802207E
:103AF000FDF7CBF84FF40370FDF7C7F80020FDF792
:103B0000C4F81720FDF7C1F81520FDF7BEF8002016
:103B1000FDF7BBF80020FDF7B8F8F020FDF7B2F88C
:103B20000320FDF7B2F82920FDF7ACF8D020FDF70F
:103B3000A9F80020FDF7A9F8BE20FDF7A3F805209D
:103B4000FDF7A3F8FE20FDF7A0F80120FDF79DF892
:103B50000020FDF79AF80020FDF797F80020FDF708
:103B600094F8B820FDF78EF80320FDF78EF80120B9
:103B7000FDF78BF8BA20FDF785F80120FDF785F8F1
:103B80006420FDF747FB0020FDF76CFB01209E49F8
:103B900008604FF6FF70FDF7B0FC1FB000BD2DE9C7
:103BA000F04F05460E4617469846DDF824A04FF024
:103BB000000B781B401C1FFA80FB344613E02146A3
:103BC0002846FDF79BF8FDF77CF84FF0000906E06A
:103BD0008E48A0F800A009F101001FFA80F9D9452C
:103BE000F6DB601C84B24445E9DDBDE8F08F2DE9C9
:103BF000F84F07460D4690469946DDF828B0A8EBE9
:103C00000700401C1FFA80FAA9EB0500401C80B297
:103C10000090002414E0281981B23846FDF76EF8B0
:103C2000FDF74FF8002607E004FB0A603BF81000A0
:103C300076490880701C86B25645F5DB601C84B25C
:103C400000988442E7DBBDE8F88F2DE9FF4F84B090
:103C500081468A460020039002900698A0EB090551
:103C60000798A0EB0A06CDF80490CDF800A0002D2F
:103C700001DD012705E00DB9002702E04FF0FF3715
:103C80006D42002E02DD4FF0010806E016B94FF03C
:103C9000000802E04FF0FF387642B54201DD2C46C5
:103CA00000E034464FF0000B21E0009A91B2019AF7
:103CB00090B2FDF72CFA0398284403900298304400
:103CC00002900398A04205DD0398001B0390019821
:103CD000384401900298A04205DD0298001B029032
:103CE0000098404400900BF101001FFA80FB601C1B
:103CF0008345DADD08B0BDE8F08FF0B504460D4627
:103D000016461F462B46324629462046FFF79DFFA2
:103D10003B46224629462046FFF797FF3B46324660
:103D200039462046FFF791FF3B463246294630464A
:103D3000FFF78BFFF0BD2DE9F04306460F46904696
:103D4000002445460320A0EB48093CE07A1B91B2D1
:103D5000321990B2FDF7DBF93A1B91B2721990B2A9
:103D6000FDF7D5F93A1991B2721990B2FDF7CFF972
:103D70007A1991B2321990B2FDF7C9F97A1991B254
:103D8000321B90B2FDF7C3F93A1991B2721B90B28F
:103D9000FDF7BDF97A1B91B2321B90B2FDF7B7F96E
:103DA0003A1B91B2721B90B2FDF7B1F9641CB9F1E4
:103DB000000F03DAA000801D814404E0601B800036
:103DC0000A3081446D1EAC42C0DDBDE8F0832DE9B0
:103DD000F84F80460E4617461C46B3462046E3176A
:103DE00004EB5373DB1021464FEAE47C04EB5C7C6C
:103DF0004FEAEC0CA4EBCC0CBCF1000F08D04FF058
:103E0000010C07E0BC020020808121420008006C08
:103E10004FF0000C6344224604EBD27C4FEA6C0C5A
:103E200003FB0CF3DBB20093A7F12000C7B200251F
:103E300056E00C2C07D107EB47009F4901EB8000AF
:103E400010F8059013E0102C05D19C4800EB0710EA
:103E500010F805900BE0182C07D107EBC700984924
:103E600001EB800010F8059001E0BDE8F88F4FF0FD
:103E7000000A2FE009F0800030B1924802883146F4
:103E80004046FDF752F907E00A9828B98E480288A3
:103E900031464046FDF749F94FEA49604FEA10695B
:103EA000701C86B289484088B04200DCDDE7A6EB92
:103EB0000B00A0420AD15E4608F101001FFA80F80B
:103EC00082480088404500DCCFE706E00AF10100A7
:103ED00000F0FF0ABAF1080FCCDB00BF681CC5B2C6
:103EE00000988542A5DB00BFBFE710B50246012060
:103EF00000E050430B1EA1F10104E1B2F9D110BD65
:103F00002DE9FF4F81B0074691461E460E9D4FF0AA
:103F1000000A002439E0301B401EC1B20A20FFF71E
:103F2000E4FFB9FBF0F00A21B0FBF1F201FB12084B
:103F3000BAF1000F16D1701EA04213DDB8F1000FC8
:103F40000ED10020AB4605EBDB71491001FB04717B
:103F5000009088B22B4620220299FFF738FF12E02A
:103F60004FF0010A0020AB4605EBDB71491001FB65
:103F70000471009088B208F13001CAB22B46029950
:103F8000FFF725FF00BF601CC4B2B442C3DB05B01D
:103F9000BDE8F08F2DE9FF4F82B0064692461F46DE
:103FA000DDE90F480020019000254DE0781B401E00
:103FB000C1B20A20FFF799FFBAFBF0F00A21B0FB6B
:103FC000F1F201FB1209019850BB781EA84227DDCF
:103FD000B9F1000F22D108F0800078B108F001009B
:103FE000A34604EBDB71491001FB0561009088B228
:103FF000234630220399FFF7EAFE0EE008F00100A5
:10400000A34604EBDB71491001FB0561009088B207
:10401000234620220399FFF7DAFE13E001200190E6
:1040200008F00100A34604EBDB71491001FB0561B8
:10403000009088B209F13001CAB223460399FFF714
:10404000C6FE00BF681CC5B2BD42AFDB06B0BDE80E
:10405000F08F2DE9F84704460D4690469946DDE974
:10406000096704F0FF0A08EB04001FFA80F809EB67
:1040700005001FFA80F916E0444502DB5446A819F2
:1040800085B24D4500DB14E0002000903A783346BD
:1040900029462046FFF79BFE304606EBD07104EB25
:1040A00061018CB27F1C38787E2802DC38782028A9
:1040B000E2DA00BFBDE8F887909C000804A1000880
:1040C000F4A60008F6010020F8010020BC02002040
:1040D00008B50121082004F05DFDC020ADF8000006
:1040E00010208DF8030003208DF8020069469048E7
:1040F00004F094FAC0218E4804F03DFB08BD10B5D1
:104100008B48006820F070408949086008460068C4
:1041100040F0405008600120864908608649C1F897
:104120009801042002F095FE0020824908600420D6
:1041300002F08FFE00208049C1F8980110BD10B533
:104140007B48006820F070407949086008460068A4
:1041500040F04050086000207649091F0860764909
:10416000C1F89C01042002F074FE01207149091F6E
:1041700008607149C1F89C01042002F06AFE10BD7C
:1041800010B500246A48006820F070406849086053
:104190000846006840F0004008600120654908605A
:1041A00002F057FE01206449C1F8980102F051FE67
:1041B00007E0601CC4B2FA2C03DDFFF7C0FF01204A
:1041C00010BD5C48803800680028F2D15949091FA9
:1041D000086000BFF4E710B500205649091F0860C9
:1041E0005348006820F07040514908600846006854
:1041F00040F04050086000204F49C1F89C01022067
:1042000002F027FE01204B49091F0860022002F03E
:1042100020FE00204849C1F8980110BD10B50020CB
:104220004449091F08604248006820F07040404936
:1042300008600846006840F04050086001203E4990
:10424000C1F89C01022002F004FE01203949091F37
:104250000860022002F0FDFD00203749C1F89801F6
:1042600010BD70B504463248006820F070403049F7
:1042700008600846006840F04050086000202D4962
:10428000091F086000251DE0E00918B10120294937
:10429000086002E00020274908606006040E022042
:1042A00002F0D7FD01202349091F0860022002F017
:1042B000D0FD00202049C1F89801022002F0C9FD7C
:1042C000681CC5B2082DDFDB70BD70B50546002443
:1042D0001748006820F070401549086008460068DB
:1042E00040F000400860002617E000201149091F37
:1042F0000860022002F0ADFD01200F49C1F89801CD
:104300006006040E0B488038006808B1601CC4B217
:10431000012002F09EFD701CC6B2082EE5DB15B927
:10432000FFF77CFF01E0FFF756FF204670BD00005D
:10433000000C01409C8121420080214210B5FFF712
:10434000C7FE10BD70B504460026FFF7D8FE25460F
:10435000E11704EB11610912A02202EB4101C8B27E
:10436000FFF77FFFFFF70CFFE11704EB1161091264
:10437000A4EB0121C8B2FFF774FFFFF701FFFFF7BD
:10438000BEFEA120FFF76DFFFFF7FAFE0020FFF74A
:104390009CFF0646FFF7D3FE304670BD70B504465D
:1043A0000E46FFF7ACFE2546E11704EB116109123A
:1043B000A02202EB4101C8B2FFF753FFFFF7E0FE76
:1043C000E11704EB11610912A4EB0121C8B2FFF758
:1043D00048FFFFF7D5FE3046FFF743FFFFF7D0FE5B
:1043E000FFF7ADFE0A2002F058FD70BD2DE9F04147
:1043F00005460E461746002409E0E20026FA02F2BE
:10440000D1B22A1990B2FFF7C9FF601CC4B2BC42F6
:10441000F3DBBDE8F0812DE9F04107460C460026AC
:10442000002509E036023919491B491E88B2FFF7F9
:1044300089FF0644681CC5B2A542F3DB3046BDE8DF
:10444000F08110B5FF20FFF77DFF0446552C01D108
:10445000002010BD5521FF20FFF7A0FFFF20FFF730
:1044600071FF0446552C01D10020F2E70120F0E74E
:1044700070B506460C46154608E03046721C96B2EA
:10448000FFF760FF04F8010B681E85B2002DF4D120
:1044900070BD70B505460C46164606E021782846E4
:1044A000FFF77CFF681C85B2641C301EA6F1010179
:1044B0008EB2F3D170BD000070B50446002500BF78
:1044C00017E004F0800018B10120FE49086002E006
:1044D0000020FC4908606006040E0020FA490860CC
:1044E000012002F0B6FC0120F849C1F88401681CE3
:1044F000C5B2082DE5DB70BD70B506460025002469
:104500000020F1490860F249C1F8A401ED490831E1
:1045100008603046FFF7D0FF062002F09AFC00202A
:10452000EA49C1F88401012002F093FC0120E64928
:10453000086002F08EFC0020E449C1F8840100BF4D
:1045400015E04FF6FF7000EA44040020DE490860E1
:10455000012002F07EFC0120DC49C1F88401DA4828
:104560007C38006808B1601C84B2681CC5B2102D8C
:10457000E7DB24110120D34908310860204670BDD3
:104580002DE9FE4380460027002406E04046FFF761
:10459000B3FF2DF81400601C84B2052CF6DB002458
:1045A00016E0601C85B20FE03DF814003DF81510D0
:1045B000884207DD3DF814603DF815002DF8140021
:1045C0002DF81560681C85B2052DEDDB601C84B2EA
:1045D000042CE6DB0027012405E03DF814003844F4
:1045E00087B2601C84B2042CF7DB032097FBF0F049
:1045F00086B23046BDE8FE832DE9F04104460D4603
:10460000B4480078FFF7BCFF0646B3480078FFF7D0
:10461000B7FF074626802F800120BDE8F0817FB5D7
:1046200004460D4602A903A8FFF7E6FF064616B9A1
:10463000002004B070BD694601A8FFF7DDFF064603
:104640000EB90020F5E7BDF80400BDF80C10884253
:1046500006DCBDF80C10BDF80400323081420CDBE2
:10466000BDF80C00BDF80410884236DCBDF804101B
:10467000BDF80C00323081422FDABDF80000BDF8E1
:104680000810884206DCBDF80810BDF80000323082
:1046900081420CDBBDF80800BDF8001088421CDC2C
:1046A000BDF80010BDF808003230814215DABDF8BF
:1046B0000C10BDF80420881800EBD071C1F34F0135
:1046C0002180BDF80810BDF80020881800EBD071DB
:1046D000C1F34F0129800120ABE70020A9E770B5A5
:1046E00004460D4616467D48068004F10D018AB247
:1046F000193988B22B462946FFF7A7FA05F10D00B4
:1047000083B2193881B222462046FFF79EFA6A1C0E
:1047100091B2621C90B2FCF7FAFC6A1C91B2621E64
:1047200090B2FCF7F4FC6A1E91B2621C90B2FCF7E6
:10473000EEFC6A1E91B2621E90B2FCF7E8FC062203
:1047400029462046FFF7F7FA70BD70B504460D46BE
:1047500016466248068029462046FCF7D8FC611CB4
:1047600088B22946FCF7D3FC681C81B22046FCF7CE
:10477000CEFC6A1C91B2621C90B2FCF7C8FC70BD02
:104780002DE9F04104464F487C380068002856D196
:104790002CB15349A1F10A00FFF741FF3DE0504918
:1047A000A1F10A00FFF73BFFB8B34D491639B1F943
:1047B0002C0004F058FE074649491639888904F050
:1047C0005BFE804646481638416A404604F0C2FC0B
:1047D0000646394604F066FC054604F089FE404969
:1047E00016398881B1F92E0004F03DFE07463C4998
:1047F0001639C88A04F040FE804639481638816A66
:10480000404604F0A7FC0646394604F04BFC05463A
:1048100004F06EFE32491639C8823148163890F8D5
:10482000200000F0800038BBC0202D49163981F8E7
:104830002000084681898182C18AC1831CE0284802
:10484000163890F8200000F0800050B12448163847
:1048500090F8200020F080002149163981F82000CE
:104860000AE000211E4816388182C1834FF6FF708E
:104870001B4916398881C8821948163890F82000DB
:1048800000F08000BDE8F08110B50E2214490E3111
:104890002820FFF7FEFD0A213620FFF77FFD10BD1F
:1048A00010B53620FFF74EFD04460A2C2AD10E2201
:1048B0000B490E312820FFF7DBFD0948163890F828
:1048C00030000FE0A48123428481214200802142F4
:1048D000008023423002002031020020F601002037
:1048E0001202002030B19020FE490870D020FE490D
:1048F000087005E0D020FB4908709020FA49087044
:10490000012010BD0020FCE72DE9FC5F04460D46A8
:1049100017461E46DDE90EABDDE90C894FF4784001
:10492000F2490880F2A01021CDE90010F148438837
:104930000288A0212820FFF78CFBEFA01021CDE9F1
:104940000010EC4843880288A0217820FFF781FB03
:10495000EAA01021CDE90010E64843880288B4217E
:104960002820FFF776FBE6A01021CDE90010E148F2
:1049700043880288B4217820FFF76BFBE1A0102167
:10498000CDE90010DB4843880288C8212820FFF7C2
:1049900060FBDDA01021CDE90010D64843880288D5
:1049A000C8217820FFF755FBD8A01021CDE90010D1
:1049B000D04843880288DC212820FFF74AFBD4A096
:1049C0001021CDE90010CB4843880288DC217820F3
:1049D000FFF73FFBCFA01021CDE90010C548438869
:1049E0000288F0212820FFF734FB10200423224600
:1049F000A02100904020FFF783FA102004232A46CC
:104A0000A02100909020FFF77BFA102004233A4663
:104A1000B42100904020FFF773FA1020042332469F
:104A2000B42100909020FFF76BFA10200423424637
:104A3000C82100904020FFF763FA102004234A4663
:104A4000C82100909020FFF75BFA10200423524603
:104A5000DC2100904020FFF753FA102004235A462F
:104A6000DC2100909020FFF74BFA102003230090E8
:104A7000F0216020109AFFF743FABDE8FC9F00B5D3
:104A800097B0002012900B9012901F209749088039
:104A90004FF6FF70A1490880FCF72FFD4FF47840D6
:104AA000924908804FF6FF70FCF727FD00208F49E0
:104AB00008809B48006810216423A022CDE90010E3
:104AC00028210846FFF7C5FA4FF47842142108461A
:104AD000FFF705FE0020934981F820004862F2E3C9
:104AE000904840680A9001200A9988478D4890F8BC
:104AF000200000F0C00040286FD100200B908948B2
:104B000090F8200020F04000864981F820000846F7
:104B1000818913AA129822F820108248C18A12981B
:104B200002EB800041801298401CC0B21290129893
:104B3000012806D0022815D0032829D0042810D136
:104B400041E04FF6FF7214210846FFF7C8FD69489F
:104B50000088143880B24FF4784214210A90FFF78D
:104B6000BEFDA0E363480088143880B24FF6FF72A0
:104B700014210A90FFF7B3FD5E484088143880B2D4
:104B80004FF4784201460A901420FFF7A8FD8AE30B
:104B900058484088143880B24FF6FF7201460A9098
:104BA0001420FFF79CFD53484088143880B20A90C7
:104BB00050480088143880B24FF4784209900A991E
:104BC000FFF78DFD6FE3BDF84C00BDF85010401AA3
:104BD0000A90002802DB0A9802E065E30A98404246
:104BE0000F90BDF84E1013A8C088081A0A9000282C
:104BF00001DB0A9801E00A9840420E900F9840436A
:104C00000F900E9840430E90DDE90E100844059079
:104C100004F048FCCDE9060104F0FFFFCDE90801EE
:104C200004F07AFC80B21190BDF85400BDF8581021
:104C3000401A0A90002801DB0A9801E00A984042D5
:104C40000F9013A84189C089081A0A90002801DB37
:104C50000A9801E00A9840420E900F9840430F9046
:104C60000E9840430E90DDE90E100844059004F0C4
:104C700019FCCDE9060104F0D0FFCDE9080104F0EC
:104C80004BFC80B21090109804F0F6FB099011983C
:104C900004F0F2FB0890099904F08EFA0A9004F0EF
:104CA00054FCCDE90C014FF066321F4BDDE90C01DD
:104CB00004F05EFC0AD31D4A1D4BDDE90C0104F033
:104CC0006FFC03D3119808B1109898BB0020129084
:104CD00008484088143880B20A9006480088143882
:104CE00080B228E03002002031020020F6010020CE
:104CF00078313A00BC02002079313A0078323A002B
:104D000079323A0078333A0079333A0078343A000D
:104D100079343A006661632069733A00F801002033
:104D200050B40008FC0100206666EE3FCDCCCCCC30
:104D3000CCCCF03F35E04FF6FF7209900A99FFF7AF
:104D4000CEFC4FF4784214210846FFF7C8FC00223D
:104D5000FE4BDDE90C0104F014FBCDE9080104F081
:104D6000DBFB80B213A90A90C989BDF8582013ABA8
:104D70005B89CDE90132CDE90310BDF85400009004
:104D800013A8C0880990BDF850000890BDF84E00E7
:104D90000790BDF84C00069007A90EC9FFF7B4FDB7
:104DA00091E2BDF84C00BDF85410401A0A9000285A
:104DB00001DB0A9801E00A9840420F90BDF84E10BE
:104DC00013A84089081A0A90002801DB0A9801E01C
:104DD0000A9840420E900F9840430F900E9840431F
:104DE0000E90DDE90E100844059004F05BFBCDE960
:104DF000060104F012FFCDE9080104F08DFB80B23A
:104E00001190BDF85000BDF85810401A0A900028C3
:104E100001DB0A9801E00A9840420F9013A8C1886C
:104E2000C089081A0A90002801DB0A9801E00A9854
:104E300040420E900F9840430F900E9840430E90C2
:104E4000DDE90E100844059004F02CFBCDE90601C5
:104E500004F0E3FECDE9080104F05EFB80B210909F
:104E6000109804F009FB0990119804F005FB0890D4
:104E7000099904F0A1F90A9004F067FBCDE90C014F
:104E80004FF06632B24BDDE90C0104F071FB06D342
:104E9000B04AB14BDDE90C0104F082FB40D20020A6
:104EA0001290AE484088143880B20A90AB4800880F
:104EB000143880B24FF6FF7209900A99FFF70FFC81
:104EC0004FF4784214210846FFF709FC00229F4B5B
:104ED000DDE90C0104F055FACDE9080104F01CFBF2
:104EE00080B213A90A90C989BDF8582013AB5B8919
:104EF000CDE90132CDE90310BDF85400009013A8AC
:104F0000C0880990BDF850000890BDF84E00079089
:104F1000BDF84C00069007A90EC9FFF7F5FCD2E1D9
:104F2000BDF85000BDF85410401A0A90002801DB6B
:104F30000A9801E00A9840420F9013A8C18840895E
:104F4000081A0A90002801DB0A9801E00A984042FA
:104F50000E900F9840430F900E9840430E90DDE95D
:104F60000E100844059004F09DFACDE9060104F006
:104F700054FECDE9080104F0CFFA80B21190BDF8DB
:104F80004C00BDF85810401A0A90002801DB0A981E
:104F900001E00A9840420F90BDF84E1013A8C08956
:104FA000081A0A90002801DB0A9801E00A9840429A
:104FB0000E900F9840430F900E9840430E90DDE9FD
:104FC0000E100844059004F06DFACDE9060104F0D6
:104FD00024FECDE9080104F09FFA80B210901098E9
:104FE00004F04AFA0990119804F046FA08900999D9
:104FF00004F0E2F80A9004F0A8FACDE90C014FF0B1
:105000006632534BDDE90C0104F0B2FA06D3514A83
:10501000514BDDE90C0104F0C3FA40D2002012909C
:105020004E484088143880B20A904C4800881438A2
:1050300080B24FF6FF7209900A99FFF750FB4FF4C8
:10504000784214210846FFF74AFB00223F4BDDE976
:105050000C0104F096F9CDE9080104F05DFA80B284
:1050600013A90A90C989BDF8582013AB5B89CDE913
:105070000132CDE90310BDF85400009013A8C08898
:105080000990BDF850000890BDF84E000790BDF89B
:105090004C00069007A90EC9FFF736FC13E1BDF8D6
:1050A0005000BDF84C10401A089004F0DCF90A904A
:1050B0002A4800882838089004F0D5F909900A9900
:1050C00004F07AF826494862BDF85000BDF84C104B
:1050D0000844059004F0C7F906902148406A01464B
:1050E0000590069804F036F808901C480088069051
:1050F00004F0C2F90790089904F026F84FF08041B7
:10510000099004F059F80A9004F0D9F900B2144952
:10511000888513A84089BDF84E10401A089004F005
:10512000A2F90A900D4840882838089004F09BF9AD
:1051300009900A9904F040F80949886213A8408947
:10514000BDF84E10084405900CE0000000005940E6
:105150006666EE3FCDCCCCCCCCCCF03FBC02002080
:10516000FC01002004F07FF90690AB48806A0146FC
:105170000590069803F0EEFF0890A8484088069036
:1051800004F07AF90790089903F0DEFF4FF08041B0
:10519000099004F011F80A9004F091F900B29E49C8
:1051A000C8850846406A089004F089F909900028EB
:1051B00001DB099801E00998404202280DDC96487D
:1051C000806A089004F07BF90A90002801DB0A98B5
:1051D00001E00A984042022842DD002012908F48E8
:1051E0004088143880B20A908C480088143880B205
:1051F0004FF6FF7209900A99FFF771FA4FF478425F
:1052000014210846FFF76BFA85A01021CDE90010A4
:10521000824840880A9081480088099002461A21F5
:1052200028200A9BFEF715FF7B4890F8300008B94C
:10523000012000E00020784981F83000084690F80D
:10524000300030B190207B490870D0207A49087036
:1052500005E0D0207749087090207749087032E047
:105260001F20764908804FF6FF70FCF746F974A0BE
:105270001021CDE90010694840880A9067480088ED
:10528000099002466E2123200A9BFEF7E2FE4FF4AE
:105290007A7001F002FEFFF7F7FA4FF6FF70FCF7A5
:1052A0002CF917B000BD00BF0A2001F0F6FD0B98E5
:1052B000401C80B20B900B98B0F57A7F02DDFFF7AF
:1052C000EFFA01E000BF0BE400BF00BFE9E708B55B
:1052D0005248808845F21051884220D100F008FFE2
:1052E00018B95D484C49486004E000F06EFA5B482C
:1052F00049494860484890F8300040F080004649ED
:1053000081F83000084690F830004449897901F06E
:1053100001010843404981F83000002008BD3F48A2
:10532000808841F66311884218D100F0ECFB4C48AC
:1053300039494860084690F8300040F0800081F814
:105340003000084690F830003449897901F00101B5
:105350000843314981F830000020DFE7012188202F
:1053600003F018FC0220ADF8000010208DF80300B7
:1053700003208DF8020069463A4803F04FF90221F4
:10538000384803F0F8F90420ADF8000048208DF803
:1053900003006946334803F041F90421314803F022
:1053A000EAF94FF42060ADF8000010208DF80300FA
:1053B00003208DF8020069462B4803F02FF94FF4C3
:1053C0002061294803F0D7F94FF48060ADF8000060
:1053D00048208DF803006946234803F01FF94FF475
:1053E0008061214803F0C7F90B491631A1F10A0089
:1053F000FFF702F9FEF7A2FFFFF752FA08B100200B
:105400008CE74FF6FF70FCF778F8FFF738FBFFF7F3
:1054100047FA00BF012081E7FC010020BC02002008
:105420005450204E65656420726561646A757374BA
:10543000210000003002002031020020F60100208F
:10544000546F7563682053637265656E2041646AAA
:10545000757374204F4B2100FD61000867580008E8
:10546000335C0008000C0140001C014010B5052011
:1054700001F0EFFC10BD08B50121882003F08AFB84
:105480000220ADF8000010208DF8030003208DF8F5
:1054900002006946904803F0C1F802218E4803F0EB
:1054A0006AF94FF40070ADF8000069468B4803F0CC
:1054B000B5F84FF40071894803F05DF908BD10B5E7
:1054C0008648001D006820F0F0008449091D08602E
:1054D0000846006840F030000860012080490860FC
:1054E0008049C1F884011E2001F0B3FC00207C49F2
:1054F0000860FFF7BBFF00207A49C1F8840110BDA6
:1055000010B57648001D006820F0F0007349091DB1
:1055100008600846006840F03000086001207249C9
:1055200008601E2001F095FC00207049C1F8A4011C
:10553000FFF79CFF01206A49086010BD10B50024E8
:105540006648001D006820F0F0006449091D0860ED
:105550000846006840F0800008600120604908604B
:105560006049C1F88401FFF781FF09E0601CC4B203
:10557000FA2C03DDFFF7C4FF012010BDFFF776FF13
:105580005748803800680028F0D15749086000BFAC
:10559000F3E710B50020544908605048001D00682A
:1055A00020F0F0004D49091D08600846006840F0F1
:1055B00030000860FFF75AFF00204C49C1F8A401F1
:1055C000FFF754FF012048490860FFF74FFF002014
:1055D0004449C1F8840110BD10B50020424908605B
:1055E0003E48001D006820F0F0003C49091D08609D
:1055F0000846006840F030000860FFF737FF0120E0
:105600003A49C1F8A401FFF731FF0120364908608B
:10561000FFF72CFF00203349C1F8840110BD70B59D
:1056200004462E48001D006820F0F0002B49091D9B
:1056300008600846006840F03000086000202A49F1
:105640000860FFF713FF002511E0E0092449086016
:105650006006040E01202349C1F88401FFF706FF0C
:10566000002021490860FFF701FF681CC5B2082D22
:10567000EBDB70BD70B5054600241848001D0068BE
:1056800020F0F0001549091D08600846006840F048
:10569000800008601E2001F0DCFB002612E00020E4
:1056A00011490860FFF7E2FE01200E49C1F88401AC
:1056B0006006040E0A488038006808B1601CC4B255
:1056C000701CC6B2082EEADB15B9FFF785FF01E0B2
:1056D000FFF75FFF204670BD000C0140001C014039
:1056E000A481234200802142848121420080234200
:1056F0002DE9F04104460E4617464FF00008FFF72B
:10570000DEFEB220FFF78BFFFFF718FF2012FFF736
:1057100086FFFFF713FFE0B2FFF781FFFFF70EFFF1
:1057200000250BE0705DFFF77AFFFFF707FF80466B
:10573000B8F1000F00D003E0681CC5B2BD42F1DB38
:1057400000BFFFF7DDFE4046BDE8F0812DE9F041E6
:1057500005460F461646FFF7B2FEB220FFF75FFF81
:10576000FFF7ECFE2812FFF75AFFFFF7E7FEE8B25B
:10577000FFF755FFFFF7E2FEFFF7A1FEB320FFF7AB
:105780004EFFFFF7DBFE00240BE0711EA14201D0AB
:10579000012100E000210846FFF76CFF3855601C2E
:1057A000C4B2B442F1DBFFF7ABFEBDE8F08138B51F
:1057B0000446002000900CB1802000900122694630
:1057C0004FF45060FFF794FF38BD1CB500200190E6
:1057D0000121802003F0DEF94FF40060ADF80000F5
:1057E00010208DF8030003208DF8020069468D48D3
:1057F00002F014FF02218B4802F0BDFF4FF48060DD
:10580000ADF8000048208DF803006946854802F095
:1058100005FF4FF48061834802F0ADFFFFF72BFED8
:10582000002081490860642001F037FB01207F4996
:10583000C1F8AC01642001F030FB0120FFF7B7FF95
:10584000012201A94FF45060FFF780FF9DF804107A
:1058500077A004F043F89DF80400802801D10020CF
:105860001CBD0120FCE72DE9F14F82B04FF0000A8A
:10587000D34672480078401C70490870084600788A
:105880000A2190FBF1F201FB120018B16B4800787D
:105890000A287DDA012202A90020FFF757FF9DF8B0
:1058A000080000F01F00002872D09DF8080000F0EA
:1058B0001F0040F0C000624981F820004FF0000A4C
:1058C00076E05F4890F82000012101FA0AF10840D3
:1058D000002869D05B4931F81A00042201A9FFF7BA
:1058E00035FF574890F8300000F0010078B39DF87C
:1058F00007109DF8062001EB022003F0C2FD0646CA
:10590000514A524B03F03DFD044603F005FE81B2BF
:105910004B48163020F81A109DF805109DF8042009
:1059200001EB022003F0ADFD0646494A494B03F066
:1059300028FD80460022484B03F020FD044603F07A
:10594000EBFD81B23E480C3020F81A102CE0FFE746
:105950009DF807109DF8062001EB022003F091FD51
:105960000646394A394B03F00CFD044603F0D4FDDA
:1059700081B233480C3020F81A109DF805109DF8BC
:10598000042001EB022003F07CFD0646304A00E0D3
:105990001EE0304B03F0F5FC044603F0BDFD81B280
:1059A0002748163020F81A100AF1010000F0FF0A0B
:1059B000BAF1050F85DB4FF0010B2148808920B932
:1059C0001F48C08A08B90020029000201B490870B7
:1059D0009DF8080000F01F00D0B9194890F8200089
:1059E00000F0800040B1164890F8200020F08000C0
:1059F000134981F820000BE04FF6FF7010498881B1
:105A0000C882084690F8200000F0E00081F82000ED
:105A10000A480078F02802DD0A2008490870584634
:105A2000BDE8FE8F001C0140AC8123420080234270
:105A30004354502049443A25780D0A003202002090
:105A4000FC01002054B400087B14AE47E17AD43F37
:105A5000D881734694F6D23F000089402DE9F04189
:105A600005460E4617464FF00008FFF728FD702048
:105A7000FFF7D5FDFFF762FDE8B2FFF7D0FDFFF7B6
:105A80005DFD00240BE0305DFFF7C9FDFFF756FD1B
:105A90008046B8F1000F00D003E0601CC4B2BC42E5
:105AA000F1DB00BFFFF72CFD4046BDE8F0812DE99A
:105AB000F04106460F461546FFF701FD7020FFF73F
:105AC000AEFDFFF73BFDF0B2FFF7A9FDFFF736FD96
:105AD000FFF7F5FC7120FFF7A2FDFFF72FFD002473
