:020000040800F2
:10000000780E002015180008690500086B05000827
:100010006F05000873050008770500080000000060
:100020000000000000000000000000007B05000848
:100030007D050008000000007F050008810500081C
:100040002F1800082F1800082F1800082F18000874
:100050002F1800082F1800082F1800082F18000864
:100060002F1800082F1800082F1800082F18000854
:100070002F1800082F1800082F1800082F18000844
:100080002F1800082F1800082F1800082F18000834
:100090002F1800082F1800082F1800082F18000824
:1000A0002F1800082F1800082F1800082F18000814
:1000B0002F180008F70700082F1800082F1800084D
:1000C0002F1800082F1800082F1800082F180008F4
:1000D0002F180008511600082F180008CB1600082A
:1000E0002F1800082F1800082F18000800F002F839
:1000F00000F04DF80AA090E8000C82448344AAF175
:100100000107DA4501D100F042F8AFF2090EBAE872
:100110000F0013F0010F18BFFB1A43F0010318473B
:10012000744C0000944C0000103A24BF78C878C189
:10013000FAD8520724BF30C830C144BF04680C60ED
:10014000704700000023002400250026103A28BF35
:1001500078C1FBD8520728BF30C148BF0B60704739
:10016000662904F0BF82642903F08880782903F0AF
:10017000C180002070471FB503F0FAFB0400002087
:10018000002104F047F9E0601FBD10B510BD03F079
:10019000EFFC1146FFF7EFFF00F058F803F00DFDFC
:1001A00003B4FFF7F2FF03BC01F0F8F910B5B14852
:1001B000007800EB8002B0A1B34803F04BF8B24ADC
:1001C0000121032001F0A3F810BD2DE9F041AF4853
:1001D000008804F029FA0746AD4904F063F90446A3
:1001E00004F034F905462A460B46AAA1A64803F0B6
:1001F00031F8A54A0121042001F089F8A9A20121C2
:10020000022001F084F8BDE8F08110B5AAA2012116
:10021000084601F07CF800F0F3FE4FF6FF7101EAAA
:1002200040009A490880A8A20121084601F06FF811
:10023000A9480278A9A1944803F00CF8924A012138
:10024000084601F064F8FFF7C0FF10BD00F08AFA1D
:1002500000F02CFB01F017F9A348006808B9012051
:1002600000E00020A0490860002418E000F0ADFC88
:1002700088B99EA20021084601F049F8002000F04C
:100280006AFD022000F077FD032000F053FD3F20BF
:1002900000F041FD05E0642001F067F9641C052CC5
:1002A000E4DB00BF052C2BD194A20121084601F00C
:1002B0002EF89748028897A1734802F0CBFF724A44
:1002C0000121084601F023F894A20221084601F01A
:1002D0001EF840F6B83001F048F9012080F3138889
:1002E00000BFBFF34F8F9148006800F4E060904971
:1002F0000843001D8D490860BFF34F8F00BFFEE724
:10030000FFF783FFFFF752FFB2E00A2001F02DF95B
:100310004FF48051874801F090FB00BB0A2001F0A8
:1003200024F94FF48051834801F087FB00B19FE02E
:10033000564800884F490978401A7F490988884201
:100340000EDB4FF0FF3000F099FD00F023FD4FF67B
:10035000FF7101EA40004D490880FFF736FF04E0D5
:1003600076A20121022000F0D2FF4FF40051714823
:1003700001F063FBF8B90A2001F0F7F84FF40051DF
:100380006C4801F05AFB00B172E0404800883949DE
:10039000097808446E49098888420DDC012000F084
:1003A0006DFD00F0F7FC4FF6FF7101EA40003749A0
:1003B0000880FFF70AFF04E066A20121022000F096
:1003C000A6FF4FF480415B4801F037FB58B90A2083
:1003D00001F0CBF84FF48041564801F02EFB00B1FC
:1003E00046E0FFF712FF4FF40041524801F025FBB1
:1003F000D0BB0A2001F0B9F84FF400414D4801F09C
:100400001CFB00B134E01B480078052806D00A2800
:100410000BD0142810D028281CD114E00A2015492C
:100420000870022000F0A7FC14E0142011490870A5
:10043000002000F0A0FC0DE028200E4908700120EB
:1004400000F099FC06E005200A490870032000F03E
:1004500092FC00BF00BF0D490D8805EBD571481017
:1004600000F0C3FCFFF7A2FE642001F07EF800BF9D
:100470004BE700001A000020545820737465702068
:100480002564206B687A00004400002000000020F2
:10049000000048435458206620252E3266204D68BF
:1004A0007A00000020202020202020202020202052
:1004B0002020202020200000536561726368696E4F
:1004C000672E2E2E0000000020202020202020203B
:1004D000202020200000000020000020525353491B
:1004E0003A20256400000000B40122425244413504
:1004F00038323020464D205E775E00005244413550
:1005000038323020696E6974206661696C000000C1
:10051000180000202069643D257800005265626F54
:100520006F74206166746572203373000CED00E017
:100530000000FA05000C01401E00002020213D3D76
:100540002046726571204D696E203D3D21200000DE
:100550001C00002020213D3D2046726571204D6128
:1005600078203D3D21200000704700BFFEE700BF1E
:10057000FEE700BFFEE700BFFEE770477047704729
:10058000704700000CB50020019000906C48006896
:1005900040F480306A49086000BF6948006800F490
:1005A000003000900198401C0190009818B9019803
:1005B000B0F5A06FF1D16248006800F4003010B1CE
:1005C0000120009001E0002000900098012843D114
:1005D0005C48006840F010005A490860084600680E
:1005E00020F0030008600846006840F00200086040
:1005F0005348406852494860084640684860084689
:10060000406840F4806048600846406820F47C10F0
:1006100048600846406840F4E810486008460068B2
:1006200040F08070086000BF4548006800F000702E
:100630000028F9D04248406820F003004049486053
:100640000846406840F00200486000BF3C484068EF
:1006500000F00C000828F9D10CBD10B5FFF792FF8F
:1006600010BD10B53648006840F0010034490860FC
:1006700008464068344908403149486008460068E7
:10068000324908402E4908600846006820F480205E
:1006900008600846406820F4FE0048604FF41F00E0
:1006A0008860FFF7DAFF4FF000602949086010BD4D
:1006B00010B5002100200022214B5B6803F00C01E3
:1006C00021B1042906D0082928D107E0214B224C6A
:1006D000236027E01F4B204C236023E0184B5B680E
:1006E00003F47010164B5B6803F48032022303EBB3
:1006F000904022B9194B4343174C23600DE0104B37
:100700005B6803F4003323B1144B4343124C236062
:1007100003E0104B4343104C236003E00D4B0E4CA1
:10072000236000BF00BF064B5B68C3F303130C4C90
:10073000E15C094B1B68CB40074C236010BD0000F7
:1007400000100240002002400000FFF8FFFFF6FE0C
:1007500008ED00E000127A000400002000093D00CE
:100760000800002008B50121102001F08FFB4FF494
:100770000050ADF8000010208DF8030003208DF824
:1007800002006946044801F0C5F84FF400510248E0
:1007900001F06FF908BD0000001001407FB505466B
:1007A0000C460121022001F07EFBADF80850ADF8A7
:1007B00004400020ADF80A00ADF8060001A9384851
:1007C00001F00EFF01221146354802F080FA1D208B
:1007D0008DF8000000208DF8010003208DF8020044
:1007E00001208DF80300684601F0BDFD01212C4871
:1007F00002F052FA7FBD10B50121294802F015FD23
:1008000058B10121264802F021FD2648006808B9A8
:10081000012000E000202349086010BD30B589B0F8
:1008200005460C460121022001F03DFB0121052077
:1008300001F02CFB4020ADF8200018208DF823009B
:1008400003208DF8220008A9174801F063F8ADF8DD
:100850001850ADF814400020ADF81A00ADF816009D
:1008600005A90F4801F0BCFE7020ADF8040001207E
:10087000ADF806000020ADF80C0001A9084801F011
:10088000ECFE0821064802F037FB0121044802F083
:1008900003FA4FF46161024802F096FC09B030BDE2
:1008A00000040040B40122420008014008B50121C3
:1008B000082001F0EBFA48208DF803004FF4704057
:1008C000ADF8000002208DF802006946014801F0F1
:1008D00021F808BD000C01409748806940F00800ED
:1008E000954988619548006820F47F4093490860E5
:1008F0000846006840F44C50086090480830006892
:1009000040F440608D4908310860704710B58B484D
:10091000006820F47040894908600846006840F487
:10092000405008600120864908608649C1F8A80146
:10093000142000F003FE002081490860142000F01C
:10094000FDFD00207F49C1F8A80110BD10B57B480E
:10095000006820F47040794908600846006840F457
:100960004050086000207649091F08607549C1F8A9
:10097000AC01142000F0E2FD01207149091F08605C
:100980007049C1F8AC01142000F0D8FD10BD10B5BD
:1009900000246A48006820F47040684908600846EE
:1009A000006840F4004008600120654908600520A7
:1009B00000F0C4FD01206349C1F8A801052000F042
:1009C000BDFD09E0601C84B240F6C410844203DD22
:1009D000FFF7BCFF012010BD59488038006800288F
:1009E000F0D15749091F086000BFF4E710B5002097
:1009F0005349091F08605148006820F470404F496E
:100A000008600846006840F44050086000204D49E6
:100A1000C1F8AC010A2000F091FD01204849091FEE
:100A200008600A2000F08AFD00204649C1F8A801AC
:100A300010BD10B500204249091F08603F480068FA
:100A400020F470403D4908600846006840F440507A
:100A5000086001203B49C1F8AC010A2000F06EFD9E
:100A600001203749091F08600A2000F067FD0020B7
:100A70003449C1F8A80110BD70B504462F4800687C
:100A800020F470402D4908600846006840F440504A
:100A9000086000202A49091F0860002517E0E009C6
:100AA000274908606006040E0A2000F047FD012077
:100AB0002449C1F8A8010A2000F040FD0020204987
:100AC000091F08600A2000F039FD681CC5B2082D16
:100AD000E5DB70BD70B5054600241848006820F4B9
:100AE0007040164908600846006840F400400860FD
:100AF000002617E000201249091F08600A2000F0B4
:100B00001DFD01200F49C1F8A8016006040E0C4824
:100B10008038006808B1601CC4B2052000F00EFDEA
:100B2000701CC6B2082EE5DB15B9FFF782FF01E0A5
:100B3000FFF75CFF204670BD00100240040C01402E
:100B4000AC8121420080214270B505460C46FFF77A
:100B5000DDFE2220FFF790FFFFF719FF2846FFF781
:100B60008BFFFFF714FF2012FFF786FFFFF70FFF41
:100B7000E0B2FFF781FFFFF70AFFFFF7E7FE70BD66
:100B800070B50546FFF7C2FE2220FFF775FFFFF79D
:100B9000FEFE2846FFF770FFFFF7F9FEFFF7B6FEEF
:100BA0002320FFF769FFFFF7F2FE0120FFF792FF16
:100BB00004464FF6FF7000EA04240020FFF78AFF86
:100BC0000443FFF7C3FE204670BD10B5FFF784FE57
:100BD0000020FFF7D5FFF749088004230846028864
:100BE0000121032000F006FCF248008845F62001B0
:100BF000884237D102210846FFF7A6FF322000F0D5
:100C0000B4FC4CF201010220FFF79EFF4FF4167076
:100C100000F0ABFC48F6CF010520FFF795FF4FF43D
:100C2000F0410720FFF790FF08211320FFF78CFF0A
:100C30004FF4A1511520FFF787FF4FF440411620D4
:100C4000FFF782FF43F226111C20FFF77DFF49F6D4
:100C500024412220FFF778FF4FF260614720FFF721
:100C600073FF01E0012010BD0020FCE710B540201B
:100C7000FFF786FF04464FF6F070044021464020FF
:100C8000FFF762FF10BD10B54020FFF779FF044663
:100C90004FF6F070044044F0010421464020FFF775
:100CA00053FF10BD10B50B20FFF76AFF044660121A
:100CB00010BD70B505460520FFF762FF04464FF6EC
:100CC000F070044005F00F00044321460520FFF7B3
:100CD0003BFF70BD70B505460220FFF751FF04468B
:100CE00015B144F4804401E024F4804421460220FC
:100CF000FFF72AFF70BD70B505460520FFF740FFDE
:100D0000044648F2FF00044044EA05242146052039
:100D1000FFF71AFF70BD70B505464120FFF730FFA1
:100D200004464FF6C07004402C4321464120FFF793
:100D30000BFF70BD70B505466820FFF721FF044624
:100D40004EF2FF30044044EA852084B221466820F8
:100D5000FFF7FAFE70BD70B505460320FFF710FFE0
:100D600004464FF6F370044044EA8504214603200C
:100D7000FFF7EAFE70BD70B505460320FFF700FFE0
:100D800004464FF6FC7004402C4321460320FFF735
:100D9000DBFE70BD2DE9F0410320FFF7F1FE0546B3
:100DA0004FEAA518C5F3810605F003040CB9142415
:100DB00008E0012C01D1282404E0022C01D10A24EE
:100DC00000E0052441F6B05716B942F2FC1703E0E3
:100DD000032E01D141F6641708FB04F101EBD17039
:100DE00007EB600080B2BDE8F0812DE9F0470646D0
:100DF0000320FFF7C5FE00F01F04C4F3810804F0D0
:100E000003050DB9142508E0012D01D1282504E0C2
:100E1000022D01D10A2500E0052541F6B057B8F1B1
:100E2000000F02D142F2FC1704E0B8F1030F01D128
:100E300041F66417BE4202DA0020BDE8F087F01BDD
:100E4000400090FBF5F01FFA80F9C9F3090944EA64
:100E5000891084B244F0100421460320FFF774FE89
:100E6000052000F082FB00BF0B20FFF789FE00F099
:100E700080000028F8D0FFF78DFFDEE770B505464B
:100E80000320FFF77DFE0646B411601984B2304698
:100E900064F39F1080B240F010010320FFF754FE6E
:100EA000052000F062FB00BF0B20FFF769FE00F099
:100EB00080000028F8D0204670BD70B50320FFF7F1
:100EC0005FFE044604F003003B49087008460078C2
:100ED00010B91420087012E037480078012803D1B7
:100EE0002820354908700AE033480078022803D1E9
:100EF0000A203149087002E005202F49087004F0EB
:100F00000C0543F660302D49088043F2C8202C4977
:100F1000088025B1042D0BD0082D1BD111E045F21E
:100F200060402649088044F2F8302549088011E0E5
:100F300044F218702149088043F660302049088047
:100F400008E045F260401D49088043F660301C49C6
:100F5000088000BF00BF70BD10B50220FFF710FE73
:100F600040F2813120EA0104084604432146022070
:100F7000FFF7EAFD0A2000F0F8FA00BF0220FFF7B1
:100F8000FFFD00F480700028F8D10A20FFF7F8FD7B
:100F9000C0F3403010BD70B505460C46FFF766FE45
:100FA0002846FFF722FF802C02DAE0B2FFF7A3FE0B
:100FB00025E00000180000201A0000201C0000207E
:100FC0001E0000204DF281310220FFF7BDFD00BF61
:100FD0000A20FFF7D5FD00F480400028F8D00B2050
:100FE000FFF7CEFD00F4005008B9002070BD0B20C3
:100FF000FFF7C6FD00F48070012800D1F6E7E1E7B5
:101000002DE9F0470320FFF7BBFD064606F0030479
:101010000CB9142408E0012C01D1282404E0022C8E
:1010200001D10A2400E005243A48047006F00C05BA
:1010300043F6603943F2C82725B1042D07D0082DA7
:101040000FD109E045F2604944F2F83709E044F273
:10105000187943F6603704E045F2604943F660379B
:1010600000BF00BF2C48A0F800902C480780FF204C
:101070002B4908704FF0000AFFF7F8FD002522E029
:10108000304665F39F1080B240F010010320FFF757
:101090005BFD052000F069FA00BF0A20FFF770FD34
:1010A00000F480400028F8D0FFF7FCFD80461C4883
:1010B0000078804503DAAA46194880F8008038197C
:1010C00087B2681C85B2A9EB0400B842D8DAFFF7F2
:1010D000DAFD30466AF39F1080B240F01001032021
:1010E000FFF732FD052000F040FA00BF0B20FFF7AC
:1010F00047FD00F080000028F8D008480088054A25
:1011000012780AFB020101EBD170C0F34F00BDE879
:10111000F08700001A0000201C0000201E000020A4
:101120002000002008B50121082000F0AFFE1420A7
:101130008DF8030003208DF802004FF48070ADF8A5
:1011400000006946FB4800F0E5FB4FF40070ADF885
:1011500000006946F74800F0DDFB01221102F54866
:1011600000F089FC01225102F24800F084FC08BD25
:1011700010B501225102EF4800F07DFC012211025E
:10118000EC4800F078FC00224FF40071E94800F0D0
:1011900072FC00224FF48071E64800F06CFC10BD38
:1011A00010B500224FF40071E24800F064FC012207
:1011B0001102E04800F05FFC01225102DD4800F01E
:1011C0005AFC10BD70B50546002415E08020204172
:1011D00000EA05024FF40071D64800F04CFC0122F1
:1011E0001102D44800F047FC00224FF48071D1482E
:1011F00000F041FC601CC4B2082CE7DB01221102A4
:10120000CC4800F038FC00224FF48071C94800F04F
:1012100032FC70BD10B50446FFF7AAFF7820FFF737
:10122000D1FF0020FFF7CEFF2046FFF7CBFFFFF7EF
:10123000B7FF10BD10B50446FFF79AFF7820FFF7FF
:10124000C1FF4020FFF7BEFF2046FFF7BBFFFFF7BF
:10125000A7FF10BD70B505460C4645F0B000FFF77E
:10126000D9FF102141EA1410FFF7D4FF04F00F005A
:10127000FFF7D0FF70BD70B500240EE000212046BE
:10128000FFF7E8FF002504E00020FFF7D3FF681C0C
:10129000C5B2802DF8DB601CC4B2082CEEDB70BD3B
:1012A0002DE9F04105460E461746721ED206110E74
:1012B0006A1E5206100EFFF7CDFF002409E0A7F1C9
:1012C00020019D4A02EB0111085DFFF7B3FF601C8E
:1012D000C4B2082CF3DB721ED206110E6A1E012363
:1012E00003EB4202D0B2FFF7B5FF00240BE0A7F1F9
:1012F0002001914A02EB011204F10801505CFFF752
:1013000099FF601CC4B2082CF1DBBDE8F0812DE927
:10131000F04107460E461546002407E02A5D3019C5
:10132000C1B23846FFF7BCFF601CC4B2285D00287C
:10133000F4D1BDE8F08110B50246012000E0504331
:101340000B1EA1F10101FAD110BD2DE9F047804635
:101350000E4617461D46002415E0281B411E0A2094
:10136000FFF7E9FFB7FBF0F00A21B0FBF1F201FB58
:10137000120000F130093019C1B24A464046FFF769
:101380008FFF601CC4B2AC42E7DBBDE8F0872DE9FB
:10139000F0478146884615461E46002D06DB2B2267
:1013A00041464846FFF77CFF2F4605E02D22414687
:1013B0004846FFF775FF6F42002417E0301B411EBF
:1013C0000A20FFF7B8FFB7FBF0F00A21B0FBF1F2FB
:1013D00001FB120000F1300A08EB0400401CC1B20E
:1013E00052464846FFF75CFF601CC4B2B442E5DBDE
:1013F000BDE8F0872DE9F04781460E4690461F462E
:1014000000241DE0381B411E1020FFF794FFB8FB9D
:10141000F0F000F00F050A2D08DA05F13000C2B235
:101420003019C1B24846FFF73BFF07E005F137002E
:10143000C2B23019C1B24846FFF732FF601CC4B2D5
:10144000BC42DFDBBDE8F0872DE9F04780460E4661
:1014500017461D46002412E0281B411E0220FFF7FC
:101460006AFFB7FBF0F000F0010000F1300930191D
:10147000C1B24A464046FFF713FF601CC4B2AC42FB
:10148000EADBBDE8F08770B5002406E0002500E047
:101490006D1CB5F57A7FFBD3641CB4F57A7FF5D368
:1014A000FFF740FEAE20FFF7B5FED520FFF7B2FEF6
:1014B0008020FFF7AFFEA820FFF7ACFE3F20FFF72C
:1014C000A9FED320FFF7A6FE0020FFF7A3FE4020D1
:1014D000FFF7A0FEA120FFF79DFEC820FFF79AFEB0
:1014E000DA20FFF797FE1220FFF794FE8120FFF726
:1014F00091FECF20FFF78EFED920FFF78BFEF12063
:10150000FFF788FEDB20FFF785FE3020FFF782FE25
:10151000A420FFF77FFEA620FFF77CFE8D20FFF7BB
:1015200079FE1420FFF776FEAF20FFF773FEFFF77A
:10153000A2FE70BD000C0140E846000800EBC001AF
:10154000C9004FF0E0225161002191610521116134
:1015500000BF4FF0E021096901F480310029F8D083
:1015600004214FF0E0221161704700B5034603E00B
:101570004FF47A70FFF7E2FF181EA3F10103F7D1D1
:1015800000BD10B5044603E04FF47A70FFF7EDFF9D
:10159000201EA4F10104F7D110BD000000BF704768
:1015A00000BF934A128802F04002002AF9D0C2B26A
:1015B0008F4B1B1D1A80704710B586B00446012161
:1015C00044F2040000F062FC4FF40070ADF8140027
:1015D00003208DF8160018208DF8170005A98548FE
:1015E00000F098F94FF48060ADF8140004208DF8F5
:1015F000170005A97F4800F08DF925208DF800001F
:1016000003208DF801008DF8020001208DF8030001
:10161000684600F0A8FE01940020ADF80800ADF87F
:101620000A00ADF80C00ADF810000C20ADF80E006B
:1016300001A96F4800F0D1FC012240F225516C480D
:1016400000F063FD01216A4800F053FD06B010BDB3
:1016500010B540F22551664800F03CFE10B36448D6
:1016600000F0B8FDC4B26448008800F40040C8B976
:101670006148008800F4804060B10A2C03D000204B
:101680005D49088020E05C48008840F400405A49E9
:10169000088019E00D2C06D15748008840F480409E
:1016A0005549088010E054480088C0F30D005349A4
:1016B0000C5451480088401C4F4908800846008857
:1016C000C72801DD0020088010BD10B540F225516B
:1016D0004B4800F0FFFD98B1494800F07BFDC4B2D3
:1016E0004848008840F24B41884202DB00204549CF
:1016F000088044490888411C424A118042490C54E0
:1017000010BD00203F490880704710B586B00446E0
:101710000121082000F0BAFB0121880400F0C3FB7E
:10172000374800F017FC4FF48060ADF8100003203C
:101730008DF8120018208DF8130004A9334800F02A
:10174000E9F84FF40060ADF8100004208DF81300A4
:1017500004A92E4800F0DEF800940020ADF8040043
:10176000ADF80600ADF80800ADF80C000C20ADF89F
:101770000A006946224800F030FC0121204800F0B0
:10178000B8FC012240F225511D4800F0BEFC272084
:101790008DF8140002208DF8150003208DF8160036
:1017A00001208DF8170005A800F0DDFD41F61F416E
:1017B00040F2E730FEF7F2FF0020124908800021D6
:1017C000134801F069FA06B010BD10B504460BE0ED
:1017D00000BF40210A4800F067FD0028F9D014F846
:1017E000011B074800F0F2FC20780028F0D110BD62
:1017F000003801400008014028000020A800002017
:10180000004800402A00002070010020000C014028
:10181000000400400948804709480047FEE7FEE70A
:10182000FEE7FEE7FEE7FEE7FEE7FEE7FEE7FEE790
:1018300004480549054A064B704700006306000846
:10184000ED00000878080020780E0020780A0020BB
:10185000780A002010B50446CC48844208D1012102
:10186000042000F02DFB0021042000F029FB46E0BD
:10187000C748844208D10121082000F021FB002143
:10188000082000F01DFB3AE0C248844208D1012143
:10189000102000F015FB0021102000F011FB2EE0BD
:1018A000BD48844208D10121202000F009FB00211D
:1018B000202000F005FB22E0B848844208D1012135
:1018C000402000F0FDFA0021402000F0F9FA16E077
:1018D000B348844208D10121802000F0F1FA0021B0
:1018E000802000F0EDFA0AE0AE48844207D10121E1
:1018F000801500F0E5FA0021A01500F0E1FA10BD16
:1019000010B50121084600F0DBFA0021012000F0AB
:10191000D7FA10BD2DE9F04102460025002600202F
:1019200000230024002791F803C00CF00F0591F864
:1019300003C00CF0100CBCF1000F03D091F802C0F2
:101940004CEA050591F800C0BCF1000F31D01468D5
:1019500000202BE04FF0010C0CFA00F3B1F800C0AE
:101960000CEA03069E4220D183004FF00F0C0CFAC4
:1019700003F7BC4305FA03FC4CEA040491F803C0E6
:10198000BCF1280F06D14FF0010C0CFA00FCC2F894
:1019900014C00AE091F803C0BCF1480F05D14FF024
:1019A000010C0CFA00FCC2F810C0401C0828D1D36E
:1019B0001460B1F800C0BCF1FF0F34DD54680020A2
:1019C0002EE000F1080C4FF0010808FA0CF3B1F812
:1019D00000C00CEA03069E4221D183004FF00F0C99
:1019E0000CFA03F7BC4305FA03FC4CEA040491F833
:1019F00003C0BCF1280F05D100F1080C08FA0CF85F
:101A0000C2F8148091F803C0BCF1480F07D100F16F
:101A1000080C4FF0010808FA0CF8C2F81080401CBE
:101A20000828CED35460BDE8F0814FF6FF710180E5
:101A3000022181700421C170704702460020936822
:101A40000B400BB1012000E0002070470146886880
:101A500080B2704702460020D3680B400BB10120D2
:101A600000E0002070470146C86880B270470161FD
:101A70007047416170470AB1016100E04161704700
:101A8000C16070474FF480320A4382618161826194
:101A900082698269704702460020434B18684FF6FE
:101AA0008073184040EA021008433F4B18607047AB
:101AB0003E49C8617047F0B50A4600230024002162
:101AC000002500F00046B6F1004F02D1364EF16914
:101AD00001E0354E7168C0F3034583B200F440164F
:101AE000B6F5401F08D121F070612F4E766826F0C0
:101AF00070662D4F7E6012E000F48016B6F5801FF0
:101B000006D1032606FA05F4A14341F0706106E010
:101B1000460D360103FA06F6B14341F0706122B179
:101B2000460D360103FA06F6314300F00046B6F1E1
:101B3000004F02D11C4EF16101E01B4E7160F0BDFF
:101B400030B500228B071C0F0F2303FA04F2164B4B
:101B500008338C1053F824309343134C08348D1001
:101B600044F8253023468C1053F824308C07240F7A
:101B700000FA04F423430C4C08348D1044F825304B
:101B800030BD0A49DC3108607047000000080140A0
:101B9000000C0140001001400014014000180140F9
:101BA000001C0140002001400000014000002042D4
:101BB000DF48006840F00100DD49086008464068E1
:101BC000DC490840DA49486008460068DA490840BC
:101BD000D74908600846006820F48020086008465D
:101BE000406820F4FE0048604FF41F008860704792
:101BF000CF49096821F48031CD4A11601146096846
:101C000021F480211160B0F5803F03D0B0F5802F22
:101C10000ED106E0C649096841F48031C44A11601A
:101C200007E0C349096841F4A021C14A116000E0FE
:101C300000BF00BF704710B50146002200230020FE
:101C40004A11012A02D1BA4C236806E0022A02D1C5
:101C5000B74C236A01E0B64C636A01F01F0201240D
:101C600094401C400CB1012000E0002010BD38B5AC
:101C7000002000900024002500BF3120FFF7DBFF8B
:101C800005460098401C00900098B0F5A06F01D068
:101C9000002DF2D03120FFF7CEFF08B1012400E083
:101CA0000024204638BD01460020A14A106820F0DB
:101CB000F80040EAC10010607047A0490860704712
:101CC000024600209A4B586820F47C1042EA010337
:101CD0001843974B5860704798490866704701460B
:101CE0000020934A506820F003000843506070477A
:101CF0008F48406800F00C007047014600208C4A75
:101D0000506820F0F0000843506070470146002002
:101D1000874A506820F4E0600843506070470146ED
:101D20000020834A506820F4605040EAC1005060AF
:101D3000704729B17E4A527A02437D4B5A7204E0C1
:101D40007B4A527A82437A4B5A7270477B49D83128
:101D50000860704701460020754A506820F44040F2
:101D60000843506070470021714A20321170704A58
:101D700082F82010012802D004280AD104E00121B1
:101D80006B4A2032117005E00521694A203211703A
:101D900000E000BF00BF70476949086070476449B0
:101DA000096A0143624A1162704765494439086013
:101DB000704730B500210022002400235C4D6D687F
:101DC00005F00C0121B1042905D0082923D105E033
:101DD0005C4D056022E05B4D05601FE0544D6D6871
:101DE00005F47012524D6D6805F48034022505EB40
:101DF00092421CB9544D554305600BE04C4D6D6843
:101E000005F400351DB1504D5543056002E04D4DC0
:101E10005543056002E04B4D056000BF00BF444DD7
:101E20006D6805F0F0010909484D6B5C0568DD40FF
:101E300045603F4D6D6805F4E061090A434D6B5CF8
:101E40004568DD4085603A4D6D6805F46051C90A0A
:101E50003E4D6B5C4568DD40C560354D6D6805F4F1
:101E60004041890B3A4D6B5CC568B5FBF3F50561E4
:101E700030BD29B12E4A526902432D4B5A6104E00C
:101E80002B4A526982432A4B5A61704729B1284A2A
:101E900092690243264B9A6104E0254A9269824383
:101EA000234B9A61704729B1214AD2690243204BE2
:101EB000DA6104E01E4AD26982431D4BDA61704741
:101EC00029B11B4AD2680243194BDA6004E0184A70
:101ED000D2688243164BDA60704729B1144A1269FE
:101EE0000243134B1A6104E0114A12698243104BFA
:101EF0001A61704712494039086070470F49C86439
:101F000070470B49C87170470948406A40F08070BB
:101F100007494862704701460020054A92680A4016
:101F20000AB1012000E00020704701498872704723
:101F3000001002400000FFF8FFFFF6FE00004242E2
:101F40008004424200127A0000093D002E00002069
:101F50003E00002010B50446FB48844209D101210F
:101F60008803FFF7ADFF00214FF48040FFF7A8FF83
:101F700032E0F648844209D101214804FFF7ADFF61
:101F800000214FF40030FFF7A8FF25E0F04884421D
:101F900009D101218804FFF7A0FF00214FF4802020
:101FA000FFF79BFF18E0EB48844209D10121C804E8
:101FB000FFF793FF00214FF40020FFF78EFF0BE0A7
:101FC000E548844208D101210805FFF786FF00217A
:101FD0004FF48010FFF781FF10BD2DE9F04786B068
:101FE00005460E460024A24600BFA1460027B08940
:101FF00000B100BF2F462C8A4CF6FF700440F088D9
:1020000004432C82AC894EF6F3100440B088318929
:102010000843718908430443AC81AC8A4FF6FF4002
:102020000440B0890443AC8201A8FFF7C2FEC64851
:10203000874202D1DDF810A001E0DDF80CA0A889EC
:1020400000F4004040B10AEBCA0000EB0A1031680E
:102050004900B0FBF1F807E00AEBCA0000EB0A10F8
:1020600031688900B0FBF1F86420B8FBF0F004019E
:102070002009642101FB1089A88900F4004040B1C7
:10208000322000EBC900B0FBF1F000F00700044380
:1020900008E0322000EB09106421B0FBF1F000F001
:1020A0000F0004432C8106B0BDE8F0874FF41651B1
:1020B000016000218180C18001810C2141810021CA
:1020C0008181704710B502460020108A4FF2FF034D
:1020D00018400B884C8823438C882343CC882343A7
:1020E0001843108210BD0021018041808180C18091
:1020F000704721B1828942F40052828104E08289D2
:102100004DF6FF731A4082817047F0B503460024F4
:1021100000260025002040F66A17B94200D100BF12
:102120001846C1F3421401F01F06012707FA06F50D
:10213000012C01D10C3004E0022C01D1103000E060
:1021400014301AB107682F43076002E00768AF43F5
:102150000760F0BD1AB1838A0B43838202E0838A51
:102160008B4383827047028A4FF6F0731A400282D3
:10217000028A0A430282704782894FF2FF731A4033
:10218000828182890A438281704721B1828942F02B
:102190000202828104E082894FF6FD731A40828137
:1021A0007047028A4FF6DF731A400282028A0A439E
:1021B0000282704721B1028A42F48042028204E026
:1021C000028A4BF6FF731A4002827047C1F308027D
:1021D0008280704701468888C0F308007047818973
:1021E00041F0010181817047028BD2B20283028BE0
:1021F00042EA012202837047028B02F47F4202838B
:10220000028B0A430283704721B1828A42F0200286
:10221000828204E0828A4FF6DF731A40828270471E
:1022200021B1828A42F01002828204E0828A4FF653
:10223000EF731A408282704721B1828A42F008020D
:10224000828204E0828A4FF6F7731A4082827047D6
:1022500021B1828942F40042828103E08289C2F383
:102260000E028281704721B1828A42F4006282822A
:1022700004E0828A4FF2FF731A4082827047828A9A
:102280004FF6FB731A408282828A0A438282704729
:1022900021B1828A42F00202828204E0828A4FF6F1
:1022A000FD731A408282704702460020B1F5007F1C
:1022B00000D100BF13880B400BB1012000E00020CB
:1022C000704701F40072B2F5007F00D100BFCA432D
:1022D0000280704770B502460024002300250020CC
:1022E00040F66A16B14200D100BFC1F3421501F0B9
:1022F0001F03012606FA03F3012D02D1968933400C
:1023000006E0022D02D1168A334001E0968A33405E
:102310000C12012606FA04F41688344013B10CB1ED
:10232000012000E0002070BD10B50022002340F61F
:102330006A14A14200D100BF0A1201249440A3B242
:10234000DC43048010BD0000003801400044004020
:1023500000480040004C004000500040314901431B
:10236000314A1160704770B5002100230F22C478F4
:1023700004B32D4C246804F4E064C4F5E064210A3D
:10238000C1F10403CA40447804FA03F1847814408C
:1023900021430901254C0678A155047804F01F0556
:1023A0000124AC4005786D11AD0005F1E025C5F8BC
:1023B000004109E0047804F01F050124AC401C4DE5
:1023C0000678761145F8264070BD1A4A0A40024345
:1023D000154B1B1F1A60704739B1134A121D126842
:1023E0000243114B1B1D1A6006E00F4A121D1268B2
:1023F00082430D4B1B1D1A607047042808D14FF013
:10240000E021096941F004014FF0E022116107E089
:102410004FF0E021096921F004014FF0E022116141
:10242000704700000000FA050CED00E000E400E059
:1024300080E100E080FFFF1F10B50446FE488442A3
:1024400008D10121C014FFF73BFD0021E014FFF784
:1024500037FDC4E0B4F1804F08D101210846FFF7F1
:102460003CFD00210120FFF738FDB8E0F34884422D
:1024700008D101210220FFF730FD00210220FFF7E3
:102480002CFDACE0EE48844208D101210420FFF786
:1024900024FD00210420FFF720FDA0E0E94884424C
:1024A00008D101210820FFF718FD00210820FFF7BF
:1024B00014FD94E0E448844208D101211020FFF784
:1024C0000CFD00211020FFF708FD88E0DF48844262
:1024D00008D101212020FFF700FD00212020FFF777
:1024E000FCFC7CE0DA48844208D101214014FFF76B
:1024F000E7FC00216014FFF7E3FC70E0D54884425C
:1025000009D10121C804FFF7DBFC00214FF40020B2
:10251000FFF7D6FC63E0D048844209D101210805C9
:10252000FFF7CEFC00214FF48010FFF7C9FC56E006
:10253000CA48844209D101214805FFF7C1FC0021A6
:102540004FF40010FFF7BCFC49E0C548844208D1B5
:1025500001214020FFF7C1FC00214020FFF7BDFC16
:102560003DE0C048844208D101218020FFF7B5FC3E
:1025700000218020FFF7B1FC31E0BB48844208D144
:1025800001218015FFF7A9FC0021A015FFF7A5FC8C
:1025900025E0B648844209D101210804FFF790FCE8
:1025A00000214FF48030FFF78BFC18E0B0488442E4
:1025B00009D101214804FFF783FC00214FF40030CA
:1025C000FFF77EFC0BE0AB48844208D10121880470
:1025D000FFF776FC00214FF48020FFF771FC10BD5F
:1025E00000220288944B98420ED0994B98420BD00F
:1025F000B0F1804F08D0914B984205D0904B984253
:1026000002D0904B984204D14FF68F731A404B88FA
:102610001A438D4B984207D08C4B984204D04FF60A
:10262000FF431A40CB881A4302808B8883850B882E
:102630000385814B98420BD0854B984208D08B4B39
:10264000984205D08A4B984202D08A4B984201D1D9
:102650000B7A038601238382704770B50024002221
:102660000023058C4FF6FE7635400584028C838866
:10267000048B4FF68F752C40B51E2C400D882C43D3
:10268000751E2A400D892A434D882A436A4DA84267
:102690000BD06F4DA84208D0744DA84205D0744DA0
:1026A000A84202D0734DA84213D14FF6F7752A40C5
:1026B0004D892A434FF6FB752A408D882A434FF6F1
:1026C000FF652B404FF6FF552B408D892B43CD895D
:1026D0002B4383800483CD888586028470BD70B5CA
:1026E000002400220023058C4FF6EF763540058448
:1026F000028C8388048B48F6FF752C404FF6FF450B
:102700002C400D884FF6FF7606EA05252C434FF640
:10271000DF752A400D8906EA05152A434D8806EA29
:1027200005152A43444DA84202D0494DA8421DD167
:102730004FF67F752A404D894FF6FF7606EA05155C
:102740002A434FF6BF752A408D8806EA05152A43AD
:102750004FF6FF352B404FF2FF752B408D8906EA6F
:1027600085052B43CD8906EA85052B4383800483A9
:10277000CD880587028470BD70B500240022002337
:10278000058C4FF6FF6635400584028C8388848B68
:102790004FF68F752C404FF6FC752C400D882C435E
:1027A0004FF6FF552A400D894FF6FF7606EA0525BC
:1027B0002A434D8806EA05252A431F4DA84202D028
:1027C000234DA8421DD14FF2FF752A404D894FF687
:1027D000FF7606EA05252A434FF6FF352A408D8805
:1027E00006EA05252A434EF6FF752B404DF6FF7588
:1027F0002B408D8906EA05152B43CD8906EA051580
:102800002B4383808483CD888587028470BD70B517
:10281000002200230024058C4EF6FF763540058407
:10282000038C8488828B48F6FF752A404FF6FF455B
:102830002A400D8820E00000002C014000040040E8
:1028400000080040000C0040001000400014004050
:1028500000340140004C0140005001400054014050
:1028600000180040001C00400020004000400140D3
:1028700000440140004801404FF6FF7606EA052576
:102880002A434DF6FF752B400D8906EA05352B438B
:102890004D8806EA05352B43FA4DA84202D0FA4D81
:1028A000A84208D14BF6FF752C408D894FF6FF7674
:1028B00006EA85152C4384808283CD88A0F8405099
:1028C000038470BD828B4FF2FF331A408283828B68
:1028D0004FF6FF7303EA01231A4382837047F0B572
:1028E0000C461546002200210026078C4EF6FF7C80
:1028F00007EA0C070784828B018C4FF6FF7707EA03
:10290000043640F6FF473A404FF6FF7707EA0527BF
:102910003A434FF6FF7707EA03373A43D94FB842B5
:102920000ED0D94FB8420BD0B0F1804F08D0D74F5E
:10293000B84205D0D64FB84202D0D64FB84206D1E1
:102940004DF6FF77394046F48057394305E047F6A6
:10295000FF57394044F48057394382830184F0BDE6
:10296000828B4FF6F3731A408283828B0A438283F1
:102970007047F0B50C461546002200210026078C52
:102980004FF6FF6C07EA0C070784828B018C4FF629
:10299000FF7707EA04264FF60C773A404FF6FF77A9
:1029A00007EA03172F433A43B64FB8420ED0B64F4B
:1029B000B8420BD0B0F1804F08D0B44FB84205D028
:1029C000B34FB84202D0B34FB84206D14FF6FF57CB
:1029D000394046F48077394305E04FF2FF573940DC
:1029E00044F48077394382830184F0BD028B4FF237
:1029F000FF331A400283028B4FF6FF7303EA012371
:102A00001A4302837047F0B50C4615460022002198
:102A10000026078C4FF6EF7C07EA0C070784028B31
:102A2000018C4FF6FF7707EA041640F6FF473A405D
:102A30004FF6FF7707EA03373A434FF6FF7707EA87
:102A400005273A438F4FB8420ED08F4FB8420BD074
:102A5000B0F1804F08D08D4FB84205D08C4FB842AE
:102A600002D08C4FB84206D14FF6DF77394046F09E
:102A70001007394305E04FF65F77394044F01007FF
:102A8000394302830184F0BD028B4FF6F3731A4081
:102A90000283028B0A4302837047F0B50C46154649
:102AA00000220021068C4FF6FE773E400684028B02
:102AB000018C4FF60C7632407E1C06EA03162E433C
:102AC0003243704EB0420ED06F4EB0420BD0B0F1D8
:102AD000804F08D06D4EB04205D06D4EB04202D04E
:102AE0006C4EB04206D14FF6FD76314044F00106FF
:102AF000314305E04FF6F576314044F001063143AD
:102B000002830184F0BD70B505460C465D488542E0
:102B10000ED05D4885420BD0B5F1804F08D05B48A0
:102B2000854205D05A48854202D05A48854200D194
:102B300000E000BF208850B92389A2886188284618
:102B4000FFF7ABFFE1882846FFF79EFF25E02088CE
:102B500004280AD12389A28861882846FFF753FFF9
:102B6000E1882846FFF742FF17E0208808280AD1AD
:102B70002389A28861882846FFF7FBFEE188284662
:102B8000FFF7EEFE09E02389A28861882846FFF757
:102B9000A6FEE1882846FFF795FE70BD2DE9F041BD
:102BA00005460C4600260127608808B9022600E089
:102BB0000026A088012801D1022700E001272088F3
:102BC000A0B92389A28861882846FFF766FFE188BB
:102BD0002846FFF759FF23893A4631462846FFF732
:102BE00012FFE1882846FFF701FF13E02389A2883E
:102BF00061882846FFF707FFE1882846FFF7F6FEC1
:102C000023893A4631462846FFF747FFE1882846A0
:102C1000FFF73AFFBDE8F0810A884B881A438B889A
:102C20001A43CB881A430B891A434B891A438B8961
:102C30001A43A0F8442070474FF6FF7181800021AD
:102C40000180C18041800172704700210180418074
:102C50008180C180018141818181C18170470021D2
:102C600001804180012181800021C1800181704764
:102C70000021018041808180C18001814181818169
:102C800070470000002C0140003401400004004067
:102C900000080040000C004021B1028842F001020F
:102CA000028004E002884FF6FE731A4002807047EB
:102CB00031B1B0F8442042F40042A0F8442005E0CD
:102CC000B0F84420C2F30E02A0F8442070471AB1B5
:102CD00083890B43838102E083898B43838170471F
:102CE0008182704741EA0203A0F8483070471AB168
:102CF00083890B43838102E083898B4383817047FF
:102D000001894FF6F8721140018170470A4600218F
:102D100001894FF68F73194011430181704730B517
:102D200004460D4629462046FFF7F0FF208940F073
:102D30000700208130BD2DE9F04104460D461646BE
:102D40001F46602D06D13B46012231462046FFF743
:102D50005AFE05E03B46012231462046FFF79DFE24
:102D600029462046FFF7D2FF208940F00700208146
:102D7000BDE8F08130B50C4600210189C9B24FF69B
:102D8000FF7505EA0325154325432943018130BD1D
:102D90002DE9F04105460E46174698460024434665
:102DA0003A4631462846FFF7E5FF2C894FF6F87082
:102DB000044044F007044FF68F70044044F0700460
:102DC0002C81BDE8F081F0B504460D4616461F463D
:102DD0003B46324629462046FFF7CCFF208940F487
:102DE00080402081F0BD0185828270470A46002123
:102DF00001884FF68F731940114301807047F0B579
:102E00000C4615461E460021002200230189028B34
:102E1000038C4FF6F877394021434FF6FC473A4090
:102E200040F201173A434FF6DD773B404FF6FF770C
:102E300007EA06172F433B43018102830384F0BD59
:102E40000A460021018B4FF68F731940114301830D
:102E500070470A460021018B48F6FF7319404FF670
:102E6000FF7303EA02231943018370470A460021D6
:102E7000818B4FF68F7319401143818370470A4647
:102E80000021818B48F6FF7319404FF6FF7303EA68
:102E9000022319438183704721B1028842F08002E6
:102EA000028004E002884FF67F731A400280704768
:102EB00021B1828842F00402828004E082884FF6C9
:102EC000FB731A408280704721B1828842F0080269
:102ED000828004E082884FF6F7731A408280704740
:102EE00021B1828842F00102828004E082884FF69C
:102EF000FE731A40828070470A460021018B4FF60C
:102F0000F77319401143018370470A460021018B72
:102F10004FF2FF7319404FF6FF7303EA0223194380
:102F2000018370470A460021818B4FF6F7731940E1
:102F30001143818370470A460021818B4FF2FF7352
:102F400019404FF6FF7303EA022319438183704748
:102F50000A460021018B4FF6FB7319401143018390
:102F600070470A460021018B4FF6FF3319404FF698
:102F7000FF7303EA02231943018370470A460021C5
:102F8000818B4FF6FB7319401143818370470A46CA
:102F90000021818B4FF6FF3319404FF6FF7303EA90
:102FA00002231943818370470A460021018B4FF6A3
:102FB0007F7319401143018370470A460021018B3A
:102FC000C1F30E014FF6FF7303EA02231943018395
:102FD00070470A460021818B4FF67F7319401143D9
:102FE000818370470A460021818BC1F30E014FF6A1
:102FF000FF7303EA02231943818370470A460021C5
:10300000018C4FF6FD7319401143018470470A4645
:103010000021018C4FF6F77319401143018470476A
:103020000A460021018C4FF6DF7319404FF6FF73FB
:1030300003EA02131943018470470A460021018CF8
:103040004FF67F7319404FF6FF7303EA02131943DB
:10305000018470470A460021018C4FF6FF53194046
:103060004FF6FF7303EA02231943018470470A46AF
:103070000021018C4FF2FF7319404FF6FF7303EAF2
:1030800002231943018470470A460021018C4DF642
:10309000FF7319404FF6FF7303EA023319430184AB
:1030A000704730B5002301248C40A3B2048C9C43AC
:1030B0000484048C02FA01F5ADB22C43048430BDC3
:1030C00030B5002304248C40A3B2048C9C430484B8
:1030D000048C02FA01F5ADB22C43048430BD70B506
:1030E0000346002000241846183001258D40ACB25C
:1030F0001D8CA5431D8409B1082909D100EB61008D
:10310000056825F0700505600568154305600EE04B
:103110000D1FC5F34E052844056825F4E0450560FC
:1031200005684FF6FF7606EA02263543056070BD56
:1031300021B1028842F00202028004E002884FF6C8
:10314000FD731A400280704721B1028842F00402E8
:10315000028004E002884FF6FB731A400280704739
:1031600021B1828842F08002828004E082884FF69A
:103170007F731A408280704702884FF6F7731A40B7
:10318000028002880A430280704782884FF68F735C
:103190001A40828082880A438280704702894FF6F3
:1031A000F8731A40028102890A430281704702893A
:1031B0004FF67F731A40028102890A4302817047E9
:1031C0008184704781857047818670470187704789
:1031D00081877047A0F84010704702884FF6FF4380
:1031E0001A40028002880A43028070470146888E96
:1031F00070470146088F70470146888F7047014627
:10320000B1F8400070470146888C70470146088D30
:10321000704702460020138A0B400BB1012000E0EA
:1032200000207047CA430282704730B50246002032
:1032300000230024158A05EA0103958905EA0104A3
:1032400013B10CB1012000E0002030BDCA4302825E
:10325000704770470FB41CB5074B06AA7B446946FC
:103260000090059800F06BFB0020694600F07AFBA7
:103270001CBC5DF814FB0000050700002DE9F041BF
:103280000646002410687529314616A510D0AFF304
:103290000080002802DA404213A507E031688A075F
:1032A00001D512A502E0490704D511A5012401E0CA
:1032B000AFF3008000210A2206F1240709E0B0FBE9
:1032C000F2FCB0FBF2F302FB1C00303078541846DD
:1032D000491C0028F3D123462A463046BDE8F04178
:1032E00000F0BFB8000000002D0000002B0000001F
:1032F0002000000070B504460D4621461068AFF36B
:1033000000802188090502D50F4A7A4402E00E4A5E
:103310007A440E32002104F1240305E000F00F0688
:103320000009965D5E54491C0028F7D120780023DF
:10333000000704D5702D02D009B1022311322046B6
:10334000BDE8704000F08DB8CA1900002DE9F047C3
:103350004FF0000A89460446C0F820A02046E168E4
:103360008847002876D0252806D0D4E90121904747
:10337000206A401C2062F1E7E1682046002588476A
:10338000C4F81CA006460027C4F818A02A2E09D0AD
:10339000304601F037F838B304EB8708303EC8F800
:1033A000186019E059F8041B204604EB870291616C
:1033B000E1688847012F064618D1E069002820DA25
:1033C00025F020051DE0D8F8180000EB800006EB82
:1033D00040003038C8F818002046E16888470646A3
:1033E00001F010F80028EED1012F0AD02E2E08D1BE
:1033F0002046E16888477F1C0646022F45F02005DD
:10340000C4DBA069002803DA404245F00105A06151
:10341000E80701D025F01005B6B1A6F14100192842
:1034200002D8203645F400654A46314620462560DC
:103430004D46FCF795FE58B1012806D0ED1D25F04C
:10344000070000F1080989E704E005F1040985E7B0
:1034500030468AE7206ABDE8F087704770477047BA
:1034600070472DE9F0470D4699469246044600F113
:1034700024080168880604D5E06921F01001216064
:1034800000E00120A84201DD471B00E00027A16900
:103490007A1902EB0900081AA0612078C00602D44C
:1034A0002046AFF30080002608E0D4E901211AF895
:1034B00006009047206A401C761C20624E45F4DBD3
:1034C0002078C0060AD52046AFF3008006E0D4E994
:1034D000012130209047206A401C2062381EA7F14D
:1034E0000107F4DC07E0D4E9012118F80500904752
:1034F000206A401C2062281EA5F10105F3DC20464D
:10350000AFF300802078000602D50220BDE8F087E6
:103510000120FBE770472DE9FF4F0C461E464FF098
:10352000FF378BB0D2E90001DDF860800A908A464F
:10353000C1F30A5505B93D46002108464FF0000089
:10354000BAF1000F00F4400005DA00EB80004FF400
:10355000400101EA50004FEA9059B9F1010F00DD36
:10356000B9460A9850EA4A000ED044F61050A5F227
:10357000FF3545432F14B8F1000F1ED07542291EA8
:103580001EDDC9F100021CE0B8F1010F4FF0000090
:1035900001D0302103E0F24305E02154401CB04249
:1035A000FBDB30460022002121540B99C1F8088032
:1035B000C1E900200FB0BDE8F08FBD1B6D1CDEE738
:1035C0004A4600DA694206A800F05CFA06AB93E8C6
:1035D000070003AB83E8070050460A9900F036FB6A
:1035E0008DE80700A0F500501F3800900398002DCB
:1035F0000ADD42F21F014A460844002303A9039052
:10360000684600F09FFD09E0A0F500504A461F38CB
:10361000002303A90390684600F0A9FD8DE8070088
:103620000004000C03D04FF0FF30410800E01046CA
:10363000B8F1000F03D00022009215461EE0751E5F
:1036400005D400F099F9303262556D1EF9D5B346B4
:103650000122084302D000227F1C04E02078302899
:1036600001D100227F1E002A099784D01DE0112D70
:1036700007DA00F081F9303262556D1C50EA010220
:10368000F5D1084302D00098C8B10EE00021681EB1
:1036900005E0235C625C63542254401E491C814255
:1036A000F7DBAB46A81B401E0990002004F80B0076
:1036B0000B98099AC0F80880C0E9002B7AE7112618
:1036C0004FF0000857E72DE9F04F88460446D21D19
:1036D00022F0070191B0D1E90001CDE90A0100F023
:1036E0007DFE02460B98C00F01D02D2007E0206818
:1036F000810701D52B2002E0202101EAC000032A26
:10370000099001D0072A05DB03464146204600F018
:1037100079F90BE12078800601D5E06900E0062008
:10372000B8F1650F814606D0B8F1660F18D0B8F130
:10373000670F70D131E00020B9F1110F009001DB6B
:10374000112301E009F101030AAA01A90CA8FFF75E
:10375000E2FEDDE90C70002609F10105834647E031
:1037600001204B4600904FF000470AAA01A90CA87F
:10377000FFF7D1FEDDE90DB00C995D46002610B9CA
:1037800009F101000D18B9EB050003D4C0F1FF36B3
:1037900009F10105A5EB09002BE0B9F1010F01DAF0
:1037A0004FF001090020B9F1110F0090484601DDEA
:1037B000112300E003460AAA01A90CA8FFF7ABFEFB
:1037C000DDE90C704D4600268346207800070AD4B8
:1037D000AB4500DA5D4601A8012D04DD411911F861
:1037E000011C302907D04F4502DA17F1040F04DA23
:1037F000012082460FE06D1EEEE7002F02DCED1B7C
:103800003E4403E0781CA84200DD7D1CB81B00F19B
:10381000010A4FF000472078000703D4AA4501DBD6
:103820004FF0FF3A0021B7F1004F0DF143088DF83A
:10383000431024D002202B23002F01DA7F422D23B6
:103840000A21021EA0F1010000DC5FB197FBF1FC30
:1038500097FBF1F201FB1C7C17460CF1300C08F8C9
:1038600001CDEEE7A8F1010003702188090501D51B
:10387000452100E06521A0F1010800F8011C09982C
:103880000FA9A1EB0807FF1D00B10120411901EBB1
:10389000EA70A1693844081A401EA0612078C00669
:1038A00002D42046AFF30080099828B1D4E9012161
:1038B0009047206A401C20622078C00622D520460E
:1038C000AFF300801EE0002E04DBB34502DD01A84B
:1038D000805D00E03020D4E901219047206A401C3F
:1038E0002062761CAAF101005FEA000A0AD100F00A
:1038F0003FF8C0680168405CD4E901219047206A24
:10390000401C2062281EA5F10105DCDC07E0D4E99B
:10391000012118F8010B9047206A401C2062381ED4
:10392000A7F10107F3DC2046AFF30080032011B0BC
:1039300041E6000001694A1C02610878704700B541
:103940008FB0CDE901310021059105497944CDE9D8
:10395000031011466846FFF7F9FC0FB000BD0000E8
:10396000E5FFFFFF0A6802F8010B0A6070470000DC
:10397000004870473408002030B5B0F10A024FEA21
:10398000900E71F100034EEA817EB0EB0E0061EB08
:1039900091014FEA101E4EEA017E10EB0E0041EB42
:1039A00011114FEA102E4EEA016E10EB0E0041EBA2
:1039B00011214FEA104E4EEA014E10EB0E0041EB82
:1039C0001141401841F100014FEAD00040EA417036
:1039D0004FEAD10110EB80054FEA810444EA90746C
:1039E00044EB01046D1944EB0404521BA3414FF056
:1039F000000348BF0A3200D530BD401C41F1000130
:103A000030BD00002DE9F0411F4604460326016841
:103A1000072A01F4006004DB08B116A505E016A52D
:103A200003E008B115A500E015A521F01000206005
:103A3000A069C01EA0610FB1401EA0612046AFF377
:103A400000804FB1D4E9012138469047206A401CDC
:103A50002062C01C206206E0206AFAE7D4E9012156
:103A600015F8010B9047761EF8D22046AFF3008080
:103A7000BDE8F0814E414E006E616E00494E460039
:103A8000696E66002DE9F047814616468AB03548D2
:103A900078440DC88DE80D0032487844801C03AC92
:103AA0000DC884E80D0041F69B300844372190FB97
:103AB000F1F290FBF1F5A5F1800501FB12041B3C2E
:103AC00002D56442012000E00020DFF898A0804683
:103AD0000027FA44AAF1BE0A0EE0E0070AD03246F7
:103AE000684607EB470101230AEB810100F03FFB29
:103AF0008DE8070064107F1C002CEED1194F7F4425
:103B0000AE3F19E0E80715D007EB04100DF1180AD5
:103B100090E80E008AE80E00C068F04201D19819C2
:103B200008903246012306A903A800F020FB03AB4E
:103B300083E807006D10641C002DE3D14FF00103F2
:103B400032466946B8F1000F03A802D000F0FAFA35
:103B500001E000F00CFBC9E90001C9F808200AB037
:103B6000BDE8F087E8120000004870471408002004
:103B70007546FFF7F9FFAE4605006946534620F04B
:103B80000700854618B020B5FDF752FEBDE820407D
:103B90004FF000064FF000074FF000084FF0000B09
:103BA00021F00701AC46ACE8C009ACE8C009ACE8BC
:103BB000C009ACE8C0098D46704710B50446AFF3A4
:103BC00000802046BDE81040FCF7EABA4FF0013C07
:103BD00050F8042B51F8043B9A4221D1A2EB0C037C
:103BE000934313EACC1317D150F8042B51F8043B3C
:103BF0009A4215D1A2EB0C03934313EACC130BD1D9
:103C000050F8042B51F8043B9A4209D1A2EB0C0363
:103C1000934313EACC13DBD04FF00000704700BF92
:103C2000D01A01BAB1FA81F101F0180122FA01F0BB
:103C3000CB40C1F12001DBB2C0B2C01A2CFA01F3B3
:103C4000D11A914311EAC311E6D170475FEA400CE3
:103C500008BF91F0000F4FEA8C234FEAC12243EADC
:103C600051514FEA1C5018BF00F5F0404FEA3000A8
:103C700018BF41F000415FEA6C5C00F02980BCF1A4
:103C8000FF3F08BF40F080407047130C06BF12048E
:103C90004FF0100C4FF0000C130E04BF12020CF189
:103CA000080C130F04BF12010CF1040C930F04BF96
:103CB00092000CF1020CD30F04BF52000CF1010C66
:103CC00011464FF00002A0F11F00A0EB0C0070475E
:103CD00011F0004F08BF704731F000413FF4D5AFFD
:103CE0000B0C06BF09044FF0100C4FF0000C0B0E2C
:103CF00004BF09020CF1080C0B0F04BF09010CF101
:103D0000040C8B0F04BF89000CF1020CCB0F04BF15
:103D100049000CF1010CCCF12003A0EB0C0022FABD
:103D200003F302FA0CF241EA030100F101007047CB
:103D300020F07F4C80EA030023F07F47ACEB0703C1
:103D400003F57C5300F0004003F1FF032DE98049A7
:103D50004FEA154B09B44FEA144325EA0B4E24EA07
:103D600003480FF2042606EB132749083E785FEA62
:103D7000320203FB0667C7F5000707FB06F64FEAAA
:103D800054374FEAD64606F1020607FB066CCCF123
:103D9000005C4FEA1C472CEA074C07FB06F40CFBBF
:103DA00006F504EB15464FEA961634BF00204FF097
:103DB00000404FEAD13706FB07FC4FEA1C4C0CFBD6
:103DC0000BF7D21B03FB0CF761EB07010CFB0EF7A3
:103DD000B0EB074072EB17420CFB08F734BFA2EBC5
:103DE0000742B2EB074261EB17414FEA0C444FEA3E
:103DF000910706FB07FC4FEA1C4C0CFB0BF7B0EBE2
:103E0000C74072EB573203FB0CF734BFA2EBC7423B
:103E1000B2EBC74261EB57310CFB0EF7B0EBC700BA
:103E200072EB57720CFB08F734BFA2EBC702B2EB80
:103E3000C70261EB5771039F4FEA816141EA92111A
:103E400004EBCC044FEAD1374FEA826206FB07FC51
:103E500042EA90124FEA80604FEA1C4C0CFB0BF7D1
:103E6000D21B03FB0CF761EB07010CFB0EF7B0EB69
:103E7000074072EB17420CFB08F734BFA2EB074276
:103E8000B2EB074261EB17414FEA8C554FEA9107BD
:103E900004EB9C2406FB07FC4FEA1C4C0CFB0BF7C5
:103EA000B0EBC74072EB573203FB0CF734BFA2EB09
:103EB000C742B2EBC74261EB57310CFB0EF7B0EBD8
:103EC000C70072EB57720CFB08F734BFA2EBC702B6
:103ED000B2EBC70261EB577115EB4C254FEA8161DC
:103EE00041EA92114FEA82624FEAD13742EA9012D8
:103EF00006FB07FC44F100044FEA80604FEA1C4CCB
:103F00000CFB0BF7D21B03FB0CF761EB07010CFB5F
:103F10000EF7B0EB074072EB17420CFB08F734BF0B
:103F2000A2EB0742B2EB074261EB174115EB1C1500
:103F30004FEA813141EA92414FEA823242EA9042AD
:103F40004FEA80304FEA0C7644F1000448EA03431C
:103F50004EEA0B484FF0000EB2EB080C71EB030772
:103F600024BF624639464EEB0E0E4FF0000B001890
:103F7000524149414BEB0B0BB2EB080C71EB0307C1
:103F80007BF1000B24BF624639464EEB0E0E4FF01C
:103F9000000B0018524149414BEB0B0BB2EB080CE4
:103FA00071EB03077BF1000B24BF624639464EEBF1
:103FB0000E0E51EA020718BF46F0010616EB0E7608
:103FC00055F1000254F1000103D5BDE88901BDE8B7
:103FD0000088BDE88901BDE80048B619524141EBAF
:103FE0000101A3F10103704780807F7E7D7C7B7A95
:103FF0007978777676757473727171706F6E6E6D95
:104000006C6C6B6A6A69686867666665646463633A
:1040100062616160605F5F5E5E5D5D5C5C5B5B5AC0
:104020005A5959585857575656555555545453532D
:1040300052525251515050504F4F4F4E4E4D4D4D88
:104040004C4C4C4B4B4B4A4A4A49494948484847D3
:104050004747474646464545454444444443434311
:104060004342424242414141002B9C4630D47700BA
:104070002BD01CB54FEA370703B44FF010004FF0B8
:104080001001BAF1000F06D0BCF1000FDCBF40F008
:10409000080040F008014FF000000FBCBDE81040E0
:1040A0000BF1010BBBF1010F08BF5FEA170722BF3D
:1040B00012F1010211F101014FF0004143F100033F
:1040C00000F0004043EA00007047F9D35708D0E7FA
:1040D00046EA064613F1400F4FEA16461FDD13F17C
:1040E000200FDFBF16430A46002120335B42BED0BB
:1040F000C3F1200746EA064602FA07F74FEA1646DA
:1041000046EA0706C3F1200722FA03F201FA07F78D
:1041100021FA03F14FF0000342EA0702A7E746EA5B
:10412000020646EA06464FEA164646EA0106BCBFC4
:1041300046EA0646360C4FF000034FF000024FF0FF
:10414000000194E72DE9804C9A46934670B491E8BB
:10415000380007C831EA400C48BF34EA430C03D5A5
:10416000FFF7E6FDFFF780FFF0BCBDE8008C2DE90E
:10417000804C9A46934670B491E8380007C810F016
:10418000804F08BF13F0804F03D100F005F8FFF710
:104190006BFFF0BCBDE8008C20F07F4780EA030095
:1041A00023F07F4C07EB0C03A3F57C5300F0004099
:1041B000A3F1FE0392F0000F00F0B38095F0000F22
:1041C00000F077802DE901494FEA11404FEA14468B
:1041D00021EA004800FB06FC24EA064708FB06F635
:1041E00007FB08F800FB07F718EB06484CEB164CEA
:1041F0004FEA124B18EB07484FEA15464CEB1740B5
:1042000022EA0B4E0BFB06FC25EA06470EFB06F6E0
:1042100007FB0EFE0BFB07F71EEB064E4CEB164C96
:104220004FF000061EEB074E4CEB174B18EB0B083C
:1042300040F1000018EB0E0B58EB000840F10000B5
:104240008F1A4FF000013CBFC943661B14BFB5EB8A
:10425000040C00213CBFC943F61B4FEA17444EEA49
:104260008E0E27EA04454FEA1C4704FB07622CEA3E
:10427000074C05FB07F70CFB05F604FB0CFC16EBE3
:10428000074642EB174216EB0C4642EB1C421BEB77
:10429000060658EB0202414146EA9E0601D5BDE8FA
:1042A0000189B619524141EB0101A3F10103BDE8B7
:1042B00001894FEA14454FEA114724EA054621EAED
:1042C000074C05FB07F406FB07F70CFB06F105FBA3
:1042D0000CFC11EB074144EB17444FEA124711EB7A
:1042E0000C4144EB1C4422EA074C05FB07F206FB99
:1042F00007F70CFB06F605FB0CFC16EB074642EB3A
:10430000174216EB0C4642EB1C456A1854F10001AB
:1043100048BF7047B619524141EB0101A3F10103B7
:10432000704795F0000F37D04FEA11424FEA14471B
:1043300021EA024624EA074C02FB07F106FB07F7D5
:104340000CFB06F402FB0CFC14EB074441EB174199
:104350004FEA154714EB0C4441EB1C4125EA074C8E
:1043600002FB07F506FB07F70CFB06F602FB0CFC4D
:1043700016EB074645EB174516EB0C4645EB1C4282
:10438000121951F1000148BF7047B619524141EB73
:104390000101A3F1010370474FEA14454FEA1147A9
:1043A00024EA054621EA074C05FB07F106FB07F75F
:1043B0000CFB06F24FF0000605FB0CFC12EB07426B
:1043C00041EB174112EB0C4251EB1C4148BF7047C7
:1043D000921841EB0101A3F101037047490050EA33
:1043E000C12018BF04204A0D18BF40F0010040F260
:1043F000FF72B2EB515F08BF40F00200012808BF16
:104400000520704730380A2801D20120704700206B
:104410007047000010B500290AD00878002807D09E
:1044200005487844FFF7D2FB002801D0002010BDDA
:104430000248784410BD0000920900008A0900007B
:104440000808A0F500114FEA3101704743004FEA18
:10445000D30C4FEA3C0C43401FBF40070CF16051A6
:1044600013F0FE4F70471CF0006F03D100200CF0DA
:10447000004170470CF0004343EA507010B540EA29
:10448000CC0000F0E4F800BF000000924FEA000109
:10449000FFF7D6BF4FF000414FF00000A1F500211B
:1044A000704700004FF47F0C1CEAD0121EBF1CEABC
:1044B000D11392EA0C0F93EA0C0F00F0858090EA7A
:1044C000010F48BF42F4807240F4000C41F4000038
:1044D0002CF07F4120F07F4000B58142A2EB030227
:1044E0000FF2081CACEB504EC0F100009EF800E04B
:1044F0004FEA4E0E00FB0EFC38BF49004FEA2C1C61
:1045000002F5FA020CFB0EF34FEACE1E4FEA112C15
:104510004FEAC1210EEB635E42EB22420EFB0CFC24
:104520004FEA1C5300FB03114FEA112C4FEA0131F3
:104530000EFB0CFC4FEADC4C00FB0C11C14228BF07
:1045400009184CEB03335DF804EB10EB410143EB2E
:10455000C250B2F57C0F38BF704729D512F0F00F6A
:104560001CBF00F1C04000F0004070470081828312
:104570008485868788898B8C8D8E8F919293959672
:1045800097999A9C9D9FA0A2A3A5A7A8AAACAEB0FC
:10459000B2B3B5B7B9BCBEC0C2C5C7C9CCCED1D401
:1045A000D7D9DCDFE2E6E9ECF0F3F7FAFE00000031
:1045B0004FEA400C0CF1807CBCF17E4F28BF704765
:1045C000B0F1C04000F089B890EA010F0CEAD113B5
:1045D00048BF42F48072624538BF634507D213F486
:1045E0007F0F16D080EA010000F00040704710B540
:1045F00000F02DF8097EFC3E00F005B880EA0100CD
:1046000000F00040704780EA010000F0004000F038
:1046100064B812F47F0F04BF0248704780EA0100BB
:1046200000F05BB80000C07FB0FA80F310FA03F22C
:10463000C3F19D030AD0D90501EB1220530638BF00
:10464000704700F1010008BF20F0010070470EF133
:10465000020E2EF0030E5EF8044B244204D44FEAFF
:104660004102B2F17F4F11D84FEA4003B3F17F4FBF
:104670000CD80ED14FEAD07CB2F17F4F0CEB4C0C32
:104680000CF1020C08BF4CEBD17C04E04FF0080C9D
:1046900001E04FEAD17C0CEB4C0324FA03F404F064
:1046A0000704B4F1040C06D20EEB840CBDE81040F4
:1046B0004CF0010C6047DFE80CF0070802024FF0F5
:1046C0000040A0F5800010BD0846420018BFD2F19E
:1046D000807288BF00F0004010BDFF2141EAD05039
:1046E000C0057047FEF7EFBF0000000000000000AB
:1046F0000000000000000000000000F800000000C2
:10470000000000333000000000100C06100C060002
:10471000000000000000000040C07840C078400069
:10472000043F04043F040400007088FC08300000CB
:10473000001820FF211E0000F008F000E018000023
:1047400000211C031E211E0000F0088870000000DC
:104750001E2123241927211010160E00000000002E
:104760000000000000000000000000E0180402004B
:10477000000000071820400000020418E0000000BC
:104780000040201807000000404080F080404000BA
:104790000202010F01020200000000F00000000010
:1047A0000101011F010101000000000000000000E4
:1047B00080B0700000000000000000000000000059
:1047C00000010101010101010000000000000000E2
:1047D000003030000000000000000000806018047D
:1047E000006018060100000000E010080810E0005A
:1047F000000F102020100F00001010F80000000023
:104800000020203F20200000007008080888700069
:1048100000302824222130000030088888483000E9
:104820000018202020110E000000C02010F8000009
:1048300000070424243F240000F8088888080800A2
:104840000019212020110E0000E0108888180000B7
:10485000000F112020110E0000380808C838080089
:104860000000003F00000000007088080888700009
:10487000001C222121221C0000E010080810E0008A
:104880000000312222110F00000000C0C000000013
:104890000000003030000000000000800000000038
:1048A0000000806000000000000080402010080030
:1048B00000010204081020004040404040404000F9
:1048C00004040404040404000008102040800000D4
:1048D0000020100804020100007048080808F000D9
:1048E0000000003036010000C030C828E810E000A9
:1048F0000718272423140B000000C038E000000034
:10490000203C23020227382008F88888887000009D
:10491000203F202020110E00C03008080808380071
:10492000071820202010080008F808080810E000E8
:10493000203F202020100F0008F88888E808100089
:10494000203F20202320180008F88888E80810005D
:10495000203F200003000000C03008080838000095
:1049600007182020221E020008F808000008F80896
:10497000203F210101213F20000808F8080800001D
:104980000020203F2020000000000808F808080050
:10499000C08080807F00000008F888C028180800C8
:1049A000203F20012638200008F808000000000001
:1049B000203F20202020300008F8F800F8F80800F8
:1049C000203F003F003F200008F830C00008F808F2
:1049D000203F200007183F00E01008080810E00002
:1049E0000F10202020100F0008F808080808F00019
:1049F000203F210101010000E01008080810E0003C
:104A00000F18242438504F0008F8888888887000D0
:104A1000203F2000030C3020007088080808380070
:104A20000038202121221C00180808F80808180066
:104A30000000203F2000000008F808000008F808E7
:104A4000001F202020201F000878880000C8380898
:104A5000000007380E010000F80800F80008F80010
:104A6000033C0700073C03000818688080681808AA
:104A700020302C03032C30200838C800C838080028
:104A80000000203F2000000010080808C838080077
:104A90002038262120201800000000FE020202001B
:104AA0000000007F40404000000C30C000000000CB
:104AB000000000010638C00000020202FE000000F3
:104AC000004040407F000000000004020202040099
:104AD00000000000000000000000000000000000D6
:104AE00080808080808080800002020400000000BE
:104AF00000000000000000000000808080800000B6
:104B00000019242222223F2008F8008080000000A3
:104B1000003F112020110E00000000808080000066
:104B2000000E112020201100000000808088F80075
:104B3000000E112020103F200000808080800000A7
:104B4000001F222222221300008080F0888888180B
:104B50000020203F20200000000080808080800016
:104B6000006B94949493600008F8008080800000AB
:104B7000203F210000203F20008098980000000086
:104B80000020203F202000000000008098980000B6
:104B900000C08080807F000008F8000080808000D6
:104BA000203F24022D302000000808F800000000FB
:104BB0000020203F202000008080808080808000B6
:104BC000203F20003F20003F808000808080000048
:104BD000203F210000203F200000808080800000D6
:104BE000001F202020201F00808000808000000007
:104BF00080FFA12020110E00000000808080800036
:104C0000000E112020A0FF80808080008080800026
:104C100020203F2120000100000080808080800053
:104C20000033242424241900008080E080800000C8
:104C30000000001F20200000808000000080800015
:104C4000001F202020103F20808080000080808076
:104C500000010E3008060100808000800080808006
:104C60000F300C030C300F0000808000808080002B
:104C70000020312E0E312000808080000080808056
:104C800080818E7018060100008080808080800006
:104C90000021302C2221300000000000807C020224
:104CA00000000000003F404000000000FF00000046
:104CB00000000000FF0000000002027C80000000F5
:104CC0000040403F00000000000601010202040411
:104CD0000000000000000000303132333435363738
:104CE0003839414243444546403058003031323330
:104CF0003435363738396162636465664030780030
:104D000002400000000000A000000000054000007C
:104D1000000000C8000000000C4000000000409CA3
:104D200000000000194000000020BCBE0000000090
:104D300034400000BFC91B8E00000004B5400000D5
:104D4000504BCFD06607E2CF010000006C4100005D
:104D50003E8251AADFEEA73401000000D9420000D4
:104D6000DCB5A0E23A301F97FFFFFFFFB44500001B
:104D7000FD25A0C8E9A3C14FFFFFFFFFFF3F0000D3
:104D80000000008000000000FF3F000000000080E5
:104D900000000000D04D000800000020440000008A
:104DA00028010008144E000844000020340E0000C2
:104DB000440100081C00000043000000F8FFFFFF52
:104DC0000C0000000E0000000F0000002E0000008C
:104DD0000000000000A24A040000000000000000E3
:104DE000010203040607080900000000000000009B
:104DF00000000000000000000000000000000000B3
:104E0000000001020304010203040607080902046A
:044E10000608000090
:04000005080000ED02
:00000001FF
