:020000040800F2
:1000000050070020CD010008D5090008A10900080B
:10001000D109000869080008B710000800000000B6
:10002000000000000000000000000000590E000861
:100030006D08000800000000850D00086D0F000825
:10004000E7010008E7010008E7010008E7010008F0
:10005000E7010008E7010008E7010008E7010008E0
:10006000E7010008E7010008E7010008E7010008D0
:10007000E7010008E7010008E7010008E7010008C0
:10008000E7010008E7010008E7010008E7010008B0
:10009000E7010008E7010008E7010008E7010008A0
:1000A000E7010008E7010008E7010008E701000890
:1000B000E7010008E7010008E7010008E701000880
:1000C000E7010008E7010008E7010008E701000870
:1000D000E7010008D10F0008E7010008E701000868
:1000E000E7010008E7010008E7010008E701000850
:1000F000E7010008E7010008E7010008E701000840
:10010000E7010008E7010008E7010008E70100082F
:10011000E7010008E7010008E7010008E70100081F
:10012000E7010008E7010008E7010008E70100080F
:1001300000F002F800F03AF80AA090E8000C8244BF
:100140008344AAF10107DA4501D100F02FF8AFF29C
:10015000090EBAE80F0013F0010F18BFFB1A43F0A5
:1001600001031847AC2D0000CC2D0000103A24BF2D
:1001700078C878C1FAD8520724BF30C830C144BF0C
:1001800004680C607047000000230024002500264E
:10019000103A28BF78C1FBD8520728BF30C148BFEA
:1001A0000B6070471FB51FBD10B510BD00F046F8BD
:1001B0001146FFF7F7FF01F06BFA00F064F803B4A3
:1001C000FFF7F2FF03BC01F03BF80000094880474D
:1001D00009480047FEE7FEE7FEE7FEE7FEE7FEE729
:1001E000FEE7FEE7FEE7FEE704480549054A064B41
:1001F00070470000710F0008310100085001002015
:100200005007002050030020500300207047704723
:1002100070477047704710B500F008F8006810BDCF
:1002200010B5044600F002F8046010BD00487047A5
:10023000F000002000487047F00000207546FFF7EE
:10024000F9FFAE4605006946534620F00700854693
:1002500018B020B5FFF7C8FFBDE820404FF00006FA
:100260004FF000074FF000084FF0000B21F007019E
:10027000AC46ACE8C009ACE8C009ACE8C009ACE8E1
:10028000C0098D46704710B50446AFF30080204684
:10029000BDE81040FFF793BF70B504460020134936
:1002A0000860002C06DA604244B201200F49083988
:1002B000086003E000200D490839086000250FE0C0
:1002C000012001F099F900200849091F0860012068
:1002D00001F092F901200649C1F89801681CC5B2E5
:1002E000A542EDDB01200149086070BD9C812142DF
:1002F0000080214208B50121082000F051FDE020D6
:10030000ADF8000003208DF8020010208DF80300E6
:100310006946064800F0ABFA012005490860054926
:10032000C1F8980102490839086008BD000C014075
:100330009C8121420080214221B1826842F0010269
:10034000826003E0826822F0010282607047014609
:1003500000208A6802F004020AB1012000E00020B7
:1003600070470146C86C80B270470246002013688F
:100370000B400BB1012000E0002070470146002037
:100380008A6802F008020AB1012000E000207047EC
:1003900030B502460020002350680F4C20400D79F4
:1003A0000C6844EA05242043506090680B4C2040C0
:1003B000D1E902542C434D7944EA4504204390602E
:1003C000D06A20F470000C7C641EE4B2234340EA3F
:1003D0000350D06230BD0000FFFEF0FFFDF7F1FFDB
:1003E000F0B504460D4600200021092D11DDE0681E
:1003F000A5F10A0606EB4607072606FA07F1884329
:10040000A5F10A0606EB460603FA06F10843E0608A
:100410000CE0206905EB4507072606FA07F188433B
:1004200005EB450603FA06F108432061072A0FDAB7
:10043000606B561E06EB86071F2606FA07F18843F7
:10044000561E06EB860605FA06F10843606322E0B5
:100450000D2A0FDA206BD61F06EB86071F2606FA39
:1004600007F18843D61F06EB860605FA06F1084316
:10047000206310E0E06AA2F10D0606EB86071F2656
:1004800006FA07F18843A2F10D0606EB860605FA87
:1004900006F10843E062F0BD816841F00801816027
:1004A000704721B1826842F4A002826003E0826852
:1004B00022F4A00282607047816841F004018160EB
:1004C000704708B50020009000F056F900208DF824
:1004D000030058208DF8020000208DF8010005204F
:1004E0008DF800006946042000F0FCFD00208DF826
:1004F0000300EC208DF8020080208DF801003C20E4
:100500008DF800006946042000F0ECFD00208DF815
:1005100003008DF8020004208DF80100B3208DF84F
:1005200000006946042000F0DDFD00208DF8030086
:1005300001208DF802000E208DF8010042208DF878
:1005400000006946042000F0CDFD00208DF8030076
:100550008DF8020080208DF8010029208DF8000020
:100560006946042000F0BEFD00208DF803002C2019
:100570008DF8020080208DF8010018208DF8000011
:100580006946042000F0AEFD08BD00002DE9F04FE3
:100590008BB0824601264FF0000800200990089099
:1005A0000790504601F0ECFE0022674BCDE90401B4
:1005B00001F0A6FB01D2DFF894A1504601F0E0FE65
:1005C0000022634BCDE9040101F0D4FC01D2DFF835
:1005D00084A14FF47A756049504602F055F80390B3
:1005E00002F01EF8049002F03BF85B49059001F020
:1005F00055FF8246504602F013F887B24FF00009CB
:1006000023E007FB06F001F051FB544A544BCDE9BF
:10061000040101F0AFFC0CD807FB06F001F046FB2B
:10062000504A4B4B1933CDE9040101F069FB00D866
:100630000EE008F101001FFA80F84FF6FF7000EAA3
:10064000460609F101001FFA80F9B9F10A0FD8DB5B
:1006500000BF304602F004F85146009002F014F852
:10066000019001F08DFE00223F4BCDE9020101F027
:10067000C5F9CDE9040101F0DBF80690069801F018
:10068000CFFF1FFA80FB3949069801F0FDFF059066
:1006900001F0C6FF4FF47A71B0FBF1F201FB1204D6
:1006A00007E0052094FBF0F084B2052095FBF0F004
:1006B00085B2052094FBF0F100FB114030B9052014
:1006C00095FBF0F100FB11500028EAD009E020462C
:1006D00004EBD071C1F34F04284605EBD071C1F390
:1006E0004F05214604EBD1725210A4EB42023AB9F5
:1006F000284605EBD0725210A5EB4202002AE6D044
:10070000072098FBF0F100FB11801FFA80F84FEAF8
:10071000CB3000EBC400099048F2010000EBC500AB
:100720000890134800EB08500790124800F0C5FCF1
:10073000099800F0C2FC089800F0BFFC079800F090
:10074000BCFC0BB0BDE8F08F0080414000000C42C3
:100750000030B1400080894500002041CDCCCCCC98
:10076000CC2FA1409A9999990000044000007A4446
:100770003C808C001C80EC0008B50121042000F0B6
:100780000FFB0F20ADF8000003208DF802001020B1
:100790008DF803006946024800F069F808BD0000C2
:1007A0000008014010B501210648FFF77AFE00BF9E
:1007B00002210448FFF7D9FD0028F9D00148FFF7CE
:1007C000D0FD10BD0024014000B587B001214802D2
:1007D00000F0E6FA0121042000F0E2FA4FF40040B4
:1007E00000F0D2FA00208DF81B001020ADF81800A0
:1007F00003208DF81A0006A9194800F038F80020E7
:10080000019004904FF46020039000208DF80900BF
:100810008DF8080001208DF8140001A91148FFF798
:10082000B7FD01210F48FFF787FD0E48FFF734FEA3
:1008300000BF0C48FFF7A2FD0128FAD00948FFF7D6
:100840003BFE00BF0748FFF782FD0128FAD00523D1
:10085000012204210348FFF7C3FD07B000BD0000DB
:10086000000801400024014000BFFEE770472DE969
:10087000F041024600250026002000230024002726
:1008800091F803C00CF00F0591F803C00CF0100CA8
:10089000BCF1000F03D091F802C04CEA050591F8B5
:1008A00000C0BCF1000F31D0146800202BE04FF0E5
:1008B000010C0CFA00F3B1F800C00CEA03069E42EA
:1008C00020D183004FF00F0C0CFA03F7BC4305FA5C
:1008D00003FC4CEA040491F803C0BCF1280F06D1D4
:1008E0004FF0010C0CFA00FCC2F814C00AE091F8B9
:1008F00003C0BCF1480F05D14FF0010C0CFA00FC0D
:10090000C2F810C0401C0828D1D31460B1F800C050
:10091000BCF1FF0F34DD546800202EE000F1080C1C
:100920004FF0010808FA0CF3B1F800C00CEA030616
:100930009E4221D183004FF00F0C0CFA03F7BC4309
:1009400005FA03FC4CEA040491F803C0BCF1280F3B
:1009500005D100F1080C08FA0CF8C2F8148091F8DF
:1009600003C0BCF1480F07D100F1080C4FF001089B
:1009700008FA0CF8C2F81080401C0828CED3546046
:10098000BDE8F0810246002093680B400BB10120C6
:1009900000E0002070470AB1016100E0416170474A
:1009A00000BFFEE708B50121082000F0F9F9482052
:1009B0008DF803004FF47040ADF8000003208DF86F
:1009C000020069460148FFF752FF08BD000C0140D4
:1009D00000BFFEE7704770B500240EE000212046FE
:1009E00000F0EFF8002504E0002000F0BBF9681CDF
:1009F000C5B2802DF8DB601CC4B2082CEEDB70BDE4
:100A000008B50121082000F0CBF914208DF803006F
:100A100003208DF802004FF48070ADF800006946A5
:100A20000A48FFF724FF4FF40070ADF80000694654
:100A30000648FFF71CFF012211020448FFF7ABFF35
:100A4000012251020148FFF7A6FF08BD000C01403A
:100A500070B50546002415E08020204100EA05021B
:100A60004FF400710E48FFF796FF012211020C4867
:100A7000FFF791FF00224FF480710948FFF78BFFC9
:100A8000601CC4B2082CE7DB012211020448FFF706
:100A900082FF00224FF480710148FFF77CFF70BD98
:100AA000000C014010B5012251020A48FFF773FF04
:100AB000012211020748FFF76EFF00224FF4007178
:100AC0000448FFF768FF00224FF480710148FFF7E8
:100AD00062FF10BD000C014010B500224FF4007100
:100AE0000648FFF758FF012211020448FFF753FFA1
:100AF000012251020148FFF74EFF10BD000C0140DA
:100B000070B5002406E0002500E06D1CB5F57A7F85
:100B1000FBD3641CB4F57A7FF5D3FFF771FFAE20E9
:100B200000F010F9D52000F00DF9802000F00AF94E
:100B3000A82000F007F93F2000F004F9D32000F0CE
:100B400001F9002000F0FEF8402000F0FBF8A120A1
:100B500000F0F8F8C82000F0F5F8DA2000F0F2F81C
:100B6000122000F0EFF8812000F0ECF8CF2000F028
:100B7000E9F8D92000F0E6F8F12000F0E3F8DB20F6
:100B800000F0E0F8302000F0DDF8A42000F0DAF802
:100B9000A62000F0D7F88D2000F0D4F8142000F043
:100BA000D1F8AF2000F0CEF8FFF715FF70BD10B5FB
:100BB0000246012000E050430B1EA1F10101FAD1D1
:100BC00010BD70B505460C4645F0B00000F0BAF80F
:100BD000102141EA141000F0B5F804F00F0000F005
:100BE000B1F870BD2DE9F04105460E461746721E5C
:100BF000D206110E6A1E5206100EFFF7E2FF002405
:100C000009E0A7F12001134A02EB0111085D00F091
:100C1000A9F8601CC4B2082CF3DB721ED206110EB8
:100C20006A1E012303EB4202D0B2FFF7CAFF002481
:100C30000BE0A7F12001074A02EB011204F10801C1
:100C4000505C00F08FF8601CC4B2082CF1DBBDE8EA
:100C5000F08100001E2900082DE9F04782460C466D
:100C600015461E46089F284601F0DAFC1FFA80F858
:100C7000334642462146504600F02EF8A019C4B231
:100C80002146621CD4B22E225046FFF7ABFF4046ED
:100C900001F0E6FC8146294601F0C2FD05464FF011
:100CA000000908E00B49284601F0EEFC054609F171
:100CB000010000F0FF09B945F4DB284601F0B0FC63
:100CC00081463B464A462146504600F005F8BDE8BD
:100CD000F0870000000020412DE9F04780460E46D5
:100CE00017461D46002415E0281B411E0A20FFF769
:100CF0005EFFB7FBF0F00A21B0FBF1F201FB12003E
:100D000000F130093019C1B24A464046FFF76AFF88
:100D1000601CC4B2AC42E7DBBDE8F0872DE9F041CE
:100D200007460E461546002407E02A5D3019C1B279
:100D30003846FFF757FF601CC4B2285D0028F4D185
:100D4000BDE8F08110B50446FFF7ACFE7820FFF750
:100D50007FFE0020FFF77CFE2046FFF779FEFFF7BD
:100D6000BBFE10BD10B50446FFF79CFE7820FFF7D0
:100D70006FFE4020FFF76CFE2046FFF769FEFFF78D
:100D8000ABFE10BD7047000001460020034A5068CA
:100D900020F44040084350607047000000100240BB
:100DA00029B1064A92690243044B9A6104E0034A5E
:100DB00092698243014B9A61704700000010024023
:100DC0002DE9FF47022000F017FC4FF0000A002039
:100DD00004460546804627E0FFF7E4FC814600F024
:100DE0007CFF06464FF06632184B00F0C5FF00222C
:100DF000174BCDE9000100F001FECDE9020100F042
:100E000017FD82465146504601F03EFC814601F0F6
:100E1000B7FA064622462B4600F03CFD04460D4636
:100E200008F101001FFA80F8B8F57A7FD4DB0022C0
:100E3000084B2046294600F0E1FD064600F0D2FCB2
:100E4000804600F0F5FC04B0BDE8F08766660A4015
:100E500000FEAF4000408F40704710B500F002F830
:100E600010BD00000CB500200190009033480068D0
:100E700040F480303149086000BF3048006800F419
:100E8000003000900198401C0190009818B901981A
:100E9000B0F5A06FF1D12948006800F4003010B11E
:100EA0000120009001E0002000900098012843D12B
:100EB0002348006840F01000214908600846006897
:100EC00020F0030008600846006840F00200086057
:100ED0001A48406819494860084640684860084612
:100EE000406840F4806048600846406820F47C1008
:100EF00048600846406840F4E810486008460068CA
:100F000040F08070086000BF0C48006800F000707E
:100F10000028F9D00948406820F0030007494860DC
:100F20000846406840F00200486000BF034840683F
:100F300000F00C000828F9D10CBD000000100240A0
:100F400000200240042808D14FF0E021096941F057
:100F500004014FF0E022116107E04FF0E021096940
:100F600021F004014FF0E02211617047704700004A
:100F700010B51348006840F00100114908600846A8
:100F80004068104908400E494860084600680E490C
:100F900008400B4908600846006820F4802008607B
:100FA0000846406820F4FE0048604FF41F00886047
:100FB000FFF753FF4FF000600449086010BD0000C8
:100FC000001002400000FFF8FFFFF6FE08ED00E011
:100FD00010B540F225511D4800F03EF810B31B48F3
:100FE00000F064F8C4B21A48008800F40040C8B9A0
:100FF0001748008800F4804060B10A2C03D000201C
:101000001349088020E01248008840F4004010494D
:10101000088019E00D2C06D10D48008840F480406E
:101020000B49088010E00A480088C0F30D00094908
:101030000C5407480088401C054908800846008871
:10104000C72801DD0020088010BD000000380140E5
:10105000240000202800002070B502460024002350
:101060000025002040F66A16B14200D100BFC1F34E
:10107000421501F01F03012606FA03F3012D02D1E8
:101080009689334006E0022D02D1168A334001E0F2
:10109000968A33400C12012606FA04F4168834406E
:1010A00013B10CB1012000E0002070BD014688881A
:1010B000C0F30800704700BFFEE738B504460020C3
:1010C0000090200E8DF80300200C8DF80200200AFD
:1010D0008DF80100E0B28DF800006946042000F0B0
:1010E00001F838BD2DE9F04105460E4600270024E1
:1010F000A04601202749086000F0A4FA00202649F4
:10110000C1F88C012349091D0860012000F09AFAFA
:101110002C462AE0301910F8017C4FF000081FE03F
:1011200007F08000802804D101201A4908310860A6
:1011300003E00020174908310860012000F082FA1E
:10114000012014490C31086000F07CFA7806070E83
:1011500000201149C1F88C0108F1010000F0FF08DE
:10116000B8F1080FDCDB601EC4B2002CD2DC00201A
:10117000084908310860012000F064FA012006499E
:10118000C1F8840100F05EFA00200249091D0860E0
:10119000BDE8F081800121420000214270B5044683
:1011A000002013490860002C05DA604244B2002098
:1011B000091F086003E001200D49091F0860002590
:1011C0000FE0012000F018FA0020094908390860F2
:1011D000012000F011FA01200649C1F8A801681C9D
:1011E000C5B2A542EDDB01200149086070BD0000D9
:1011F000B00121420000214208B501210420FFF77F
:10120000CFFD4FF4E050ADF8000003208DF8020050
:1012100010208DF8030069460648FFF728FB0120DF
:10122000054908600549C1F8A8010349091F08607C
:1012300008BD000000080140B00121420000214229
:1012400000BF70472DE9F84FFFF7BAFD064601F0E1
:1012500097F804460D46924A924B2046294600F0E4
:101260004FFD06D9904A914B2046294600F082FE58
:1012700073D88F490978C1F1170148B200F02CF9F1
:10128000FFF79EFD834601F07BF88146864A524275
:10129000884B00F08BFF04460D4600221346204683
:1012A000294600F067FE02D24FF0FF3000E0012037
:1012B0008046002213462046294600F05BFE02D2FB
:1012C0002046294602E0204685F0004106460F46AA
:1012D00047E0FFF775FD814601F052F804460D46E0
:1012E0004FF03332744B2046294600F043FE06D3BC
:1012F000724A734B2046294600F002FD00D230E0CE
:10130000694A52426B4B2046294600F04FFF814606
:101310000022134600F02EFE07D2634A5242654B6C
:101320002046294600F042FF08E085F00041A14632
:101330005D4A52425F4B484600F038FF04460D4676
:1013400032463B462046294600F014FE06D2C8F13C
:10135000000040B200F00AF908E093E026462F466C
:1013600000BF404600F002F90028B2D100BF0223BE
:101370005448027801210320FFF7AEFCFFF720FD5F
:10138000834600F0FDFF81464F4A504B00F00EFFB0
:1013900004460D46002213462046294600F0EAFD89
:1013A00002D24FF0FF3000E00120804600221346B9
:1013B0002046294600F0DEFD02D22046294602E002
:1013C000204685F0004106460F4643E0FFF7F8FC53
:1013D000814600F0D5FF04460D464FF033323C4BBA
:1013E0002046294600F0C6FD06D3344A394B204634
:1013F000294600F085FC00D22CE0334A334B2046CE
:10140000294600F0D3FE81460022134600F0B2FDCB
:1014100006D22D4A2D4B2046294600F0C7FE07E094
:1014200085F00041A146284A284B484600F0BEFE00
:1014300004460D4632463B462046294600F09AFDBA
:1014400005D2C8F1000040B200F046F807E0264699
:101450002F4600BF404600F03FF80028B6D100BF3D
:1014600002231348027806210320FFF735FCFFF71B
:10147000A7FC8146022001234A4619460090FFF747
:10148000EBFB0BE02046294600F0D2F9064602208D
:101490000123324619460090FFF7DEFBBDE8F88FC6
:1014A0001F85EB51B81EED3F713D0AD7A370F13F88
:1014B000050000205C8FF23F333303409A999999DD
:1014C0009999C93F04000020AE47E17A14AEEF3F7E
:1014D0003333F33F9999E93F10B504461548007836
:1014E000204400280EDB1348007820445A2809DCE9
:1014F0002046FEF7D1FE0F48007820440D490870C1
:10150000012010BD002C0ADD0A490978C1F15A01F9
:1015100048B2FEF7C1FE5A200649087008E00548A7
:101520000078404240B2FEF7B7FE00200149087043
:101530000020E6E70500002038B504460A480168A7
:10154000204600F049FF084908600220032300906C
:101550000846052102680120FFF77EFB024800686B
:10156000FFF714F838BD00000000002010B5044655
:101570000F480078204400280EDB0D4800782044F6
:101580001F2809DC2046FFF709FE0948007820449F
:1015900007490870012010BD002C01DD1F2000E06C
:1015A0000020034908702046FFF7F8FD0020F2E70D
:1015B0000400002010B56FF00400FFF7C3FC0A48D8
:1015C00000680A49B0FBF1F0094908700846007844
:1015D00000EB4001C1EBC0104FF6FF7101EAC00003
:1015E0000449088010BD00000800002000127A00A5
:1015F0001C0000201E0000200146114A12884A43A8
:101600004FF0E0235A6100229A611A46126942F0B3
:1016100001021A6100BF4FF0E022106900F00102E0
:101620001AB100F48032002AF5D04FF0E02212699E
:1016300022F001024FF0E0231A6100229A61704704
:101640001E0000200146114A12784A434FF0E02361
:101650005A6100229A611A46126942F001021A6127
:1016600000BF4FF0E022106900F001021AB100F44F
:101670008032002AF5D04FF0E022126922F00102F8
:101680004FF0E0231A6100229A6170471C0000208D
:1016900008B5FFF78FFFFFF7AFFDFEF72BFEFFF753
:1016A00081F9FFF72DFAFFF78FF8C820FFF7A4FFA5
:1016B000FEF707FF43A201210846FFF72FFB022098
:1016C000032300904148052102680120FFF7C4FA76
:1016D0006420FFF791FF3D480068FEF757FF6FF069
:1016E0006300FFF75BFD6FF06300FEF7D5FD03239A
:1016F0003748027801210220FFF7EEFA00245FE06C
:101700004FF480513348FFF73DF968B90A20FFF7DD
:1017100073FF4FF480512F48FFF734F900B14FE0C9
:101720004FF07E50FFF708FF4FF400512948FFF7B4
:1017300029F960B90A20FFF75FFF4FF400512548EF
:10174000FFF720F900B13BE02348FFF7F5FE4FF427
:1017500080412048FFF716F960B90A20FFF74CFFD7
:101760004FF480411B48FFF70DF900B128E01B48FA
:10177000FFF7E2FE4FF400411648FFF703F960B9A6
:101780000A20FFF739FF4FF400411248FFF7FAF83B
:1017900000B115E01248FFF7CFFE601C322190FB2C
:1017A000F1F201FB1200C4B2022C03D10748006819
:1017B000FEF7ECFEFFF746FD6420FFF71DFF00BFBC
:1017C0009EE70000504C4C3A000000000000002052
:1017D00004000020000C0140CDCCCC3DCDCCCCBDD4
:1017E000000080BF2DE9F04106460F4600F0F8FBEF
:1017F000041E0D4618BF0120284320F00040C0F110
:101800007F6000F1E040C00F0ED0301C18BF0120F7
:10181000384320F00040C0F17F6000F1E040C00F8D
:1018200004BF0120FEF7FCFC20462946BDE8F081FC
:1018300021F00042A2F16052B2F5801F01F0004396
:1018400028BFD2F17F6C0BD95FEA001C43EAC202C9
:1018500042EB507018BF704728BF20F0010070475E
:10186000B2F5801FBCBF184670474FEA410C1CF50B
:10187000001F02D2084600F0CEBF70B500F026FB74
:1018800000000089FFF7F6BF4FF00040A0F5800090
:101890007047000010B591EA030F48BF83F0004382
:1018A00000F18C84841A71EB030C05D2121943EBFE
:1018B0000C03001B61EB0C01DFF824E14FEA11542B
:1018C000A4EB135C1EEA430F18BF9EEA445F73D07B
:1018D00023EA0E03DCF1200E21EA045143F48013C5
:1018E00032D322FA0CFE10EB0E0023FA0CFE41EB71
:1018F0000E01CCF1200E03FA0EFE10EB0E0051F19A
:101900000001B1F5801FCCF1200E32D201EB045161
:1019100012FA0EF2BDE8104058BF7047401C38BFA5
:101920005FEA420218BF7047002814BF20F0010090
:1019300041F100014FEA410313F5001F38BF704722
:10194000A1F1C04100F010BB012A43EB0302ACF14E
:10195000200CDCF11F0E32BF4FF0000E23FA0CF307
:1019600010EB030041EB0451B4EB115FD0D0A1EBBD
:10197000045101F5801149085FEA300001EB045180
:101980000ED350F1000038BF12FA0EFE08D1BDE8A8
:101990001040C9E7401C38BF5FEA4202CAD1C3E722
:1019A000BDE810404FEA410313F5001F38BF7047F0
:1019B000A1F1C04100F0D8BA9EEA445F08D011EA14
:1019C0005E0FBDE8104004BF01F0004100207047E9
:1019D000BDE8104070B500F079FA00BF64FBBE3E70
:1019E0000000E0FF491058BFC1F140415B1058BFF3
:1019F000C3F140438B42EFF3008070472DE9C041B3
:101A000030B4DFF8A0C23CEA111418BF3CEA13144A
:101A100000F0EC8081EA03051CEA111444EAD57455
:101A200018BF1CEA131500F0C780A4EB05044FF0A3
:101A3000004545EAC12145EAC32341EA505143EA42
:101A4000525304F17F74994204F500344FEAC020E8
:101A50004FEAC22208BF904200F09C804FEA136513
:101A60000FF24016765D4FEA134506FB05F7C7F106
:101A7000807706FB07F74FEAD737A7FB0368764264
:101A8000C8F58038A7FB06CE38BFA8F1010807FBD0
:101A900008E64FF0000EA6FB028CE6FB03CEDCF15D
:101AA000000CCEF1004E38BFAEF1010EA6FB0C5873
:101AB0004FF000074FF00005E6FB0E87A1FB08C6BC
:101AC000A0FB07CE16EB0E0645F10005E1FB07650E
:101AD00015F1E04E7EBFA4F580345FEA46066D4105
:101AE00016F1800745F100054FEA17274FEA066611
:101AF00047EA0567A6F1DE46B6F1805F4FEA152595
:101B00001FD9384624F0010C05EBC471BCF1FE6FFF
:101B100001EB0C1102D8F0BCBDE8008124425CBF8F
:101B200001F5801E9EEAC47F02D4F0BCBDE80081AE
:101B3000244238D4F0BCA1F1C041BDE8004100F01E
:101B400013BA4FEAD22242EA43524FEAD323A7FB09
:101B500002864FEAD02040EA415007FB03661EEAA6
:101B60000E0F4FEAD12105FB026658BFA6EB0056C7
:101B7000B6EB00564FEA520E4EEAC37E18EB0E0E3D
:101B800056EB530EBDD518EB02085E417F1C55F194
:101B90000005B6E74FF480154FF000074FF0000640
:101BA0004FF00008ADE7F0BC4FF0000001F1C0417C
:101BB00001F00041BDE8008111EA0C1F0CEA131589
:101BC00000D00CE013EA0C1F00F025804FF000005D
:101BD000F0BC81EA030101F00041BDE80081F0BCE6
:101BE000BDE8004181EA030100F0BEB9F0BCBDE8E8
:101BF000004170B500F06AF9097EFC3E00F007B8BC
:101C000081EA03014FF0000001F00041704781EAD2
:101C1000030100F0A9B9F0BCBDE800414FF000009D
:101C200021497047FFFDFBF9F7F5F4F2F0EEEDEB1B
:101C3000E9E8E6E4E3E1E0DEDDDBDAD8D7D5D4D3CA
:101C4000D1D0CFCDCCCBCAC8C7C6C5C4C2C1C0BF16
:101C5000BEBDBCBBBAB9B8B7B6B5B4B3B2B1B0AF1C
:101C6000AEADACABAAA9A8A8A7A6A5A4A3A3A2A100
:101C7000A09F9F9E9D9C9C9B9A99999897979695BB
:101C800095949393929191908F8F8E8E8D8C8C8B57
:101C90008B8A8989888887878685858484838382DF
:101CA000828181800000FF070000F87F10F0004271
:101CB00048BF4042B0FA80F310FA03F10AD0C3F1F2
:101CC0001D0303F580634FEA415002EB035202EB20
:101CD000D12170474FF000007047B0FA80F310FA3E
:101CE00003F10AD0C3F11D0303F580634FEA4150AD
:101CF0004FEA035202EBD12170474FF000007047CA
:101D000051EA030C17D41CF5801F58BFBCF5801F87
:101D100000F10680994218BF704708BF9042704793
:101D200007D711F5801F58BF13F5801F19D49942AA
:101D30007047894270471CF5801F08D5BCF5801F8D
:101D4000F7D58B4218BF704708BF824270474FF4E7
:101D5000001C1CEB410F38BF1CEB430F01D28B4220
:101D6000704770B500F0B2F8922449004FF000516E
:101D70004FF08053FFF736BEDFF848C170B51CEA5C
:101D8000111E1EBF1CEA13159EEA0C0F95EA0C0FDC
:101D900000F06F8081EA030423EA4C134EEAD47EFC
:101DA00021EA4C1141F4801143F48013AE44A1FBAD
:101DB000024CA0FB0365AEF17F7E361955EB0C0596
:101DC000A1FB034C4CF10003A0FB021C16EB0C061C
:101DD000654153F10003094218BF46F0010613F4B0
:101DE000007F0BD14FEA03314FEA0530340341EA5B
:101DF000155140EA16506FF003020AE04FEAC32182
:101E00004FEAC520F40241EA555140EA56506FF0BE
:101E1000020202EB2E4201EB025585EACE710AD096
:101E20005FEA440C18BF24F0004450F1000041F177
:101E3000000120EAD47040F2FE7C624500D270BD01
:101E4000A84214BF4FF080444FF04044002E08BF1A
:101E50000024BEF1806FA8BFA1F1C041BDE8704071
:101E600080F282804FF0000001F1C04101F000419A
:101E700070479EEA0C0F0CEA131518BF95EA0C0F79
:101E800006D04FF0000081EA030E0EF0004170BD55
:101E900000F01CF88900013E00F007B800F009B816
:101EA0004FEA430C5FEA5C5C08D081EA030100F072
:101EB0005BB84FEA410C5FEA5C5CF6D14FF0000082
:101EC000014970470000FF070000F87F0EF1020E85
:101ED0002EF0030E5EF8046B364205D4012A43EB64
:101EE000030515F5001F12D8012841EB010C1CF564
:101EF000001F0CD80ED14FEAD17C15F5001F0CEB5A
:101F00004C0C0CF1020C08BF4CEBD37C04E04FF0FE
:101F1000080C01E04FEAD37C0CEB4C0526FA05F6E1
:101F200006F00706B6F1040C06D20EEB860CBDE8EF
:101F300070404CF0010C6047DFE80CF0090B020226
:101F40004FF000414FF00000A1F5002170BD19468F
:101F50001046012851EB010418BFD4F5001484BFCA
:101F6000002001F0004170BD0808A0F500114FEA03
:101F70003101704753EA010C17D41CF5801F58BF7C
:101F8000BCF5801F00F106808B4218BF704708BF68
:101F90008242704707D713F5801F58BF11F5801F85
:101FA00019D48B4270479B4270471CF5801F08D59F
:101FB000BCF5801FF7D5994218BF704708BF904203
:101FC00070474FF4001C1CEB430F38BF1CEB410F54
:101FD00001D2994270470FB40CBC03BCFFF7C1BEDD
:101FE0002DE9F04101F5801CBCF5001FC0F2C38053
:101FF0004FEA115C21EA0C510CF1FD0C41F4801107
:102000005FEA5C0C0CF5C07C01D3400049413DA463
:10201000890241EA905187028E0E0A0CA45D04FBEE
:1020200004F602FB06F6C6F14046A4FB0662F60D76
:1020300046EA422606FB06F4A4FB01235242C3F102
:10204000404338BF5B1EA6FB02420024E6FB03248C
:10205000D20B42EA4446A6FB0623A1FB02E2A3FB05
:1020600007E4A4184FF0000252F10002E3FB014222
:102070006442C2F1404E38BFAEF1010EA6FB04230C
:102080004FF00002E6FB0E32A2FB03464FF00004C5
:10209000B61954F10004E2FB0264A1FB06E6A4FBBE
:1020A00007E816EB08064FF0000858F10008E4FBBB
:1020B00001687642C8F1405838BFA8F10108A2FB78
:1020C00006E4A3FB08E52D194FF0000454F10004C9
:1020D000E2FB0854A1FB05E6A7FB04E818EB0608A1
:1020E0004FF0000656F10006E1FB048618F12005CA
:1020F00056F10006A809A8F11B08B10908F03F082D
:10210000B8F10A0F40EA86601CD901EB0C51BDE81A
:10211000F08100BFFCF5EEE8E2DDD8D3CFCBC7C33A
:10212000C0BDB9B6B4B1AEACA9A7A5A3A19F9D9BF4
:102130009A9896959392908F8D8C8B8988878685B7
:1021400084838281A0FB006800FB01F208EB420857
:10215000B8EB872807D5341858EB0104D5D5401CB7
:1021600051F10001D1E7341A78EB0104CDD4401EBF
:1021700071F10001C9E75FEA4C0C5FEA9C5C0DD18C
:1021800005D34FF0000001F00041BDE8F081BDE84B
:10219000F04170B5FFF79AFE6DDBFFBEBDE8F04180
:1021A0004FF00000004970470000F87F10B591EA39
:1021B000030F48BF83F000433FF574AB841A71EB03
:1021C000030C07D212198CF0004C43EB0C03001BDC
:1021D00061EB0C01DFF8A4E14FEA1154A4EB135CAE
:1021E0001EEA430F18BF9EEA445F00F0B08023EA66
:1021F0006E03524221EA0451C3EB6E0338BF5B1EEB
:10220000DCF1200E25D322FA0CFE10EB0E0043FA6F
:102210000CFE41EB0E01CCF1200E03FA0EFE10EB8A
:102220000E0051F10001CCF1200E29D412FA0EF269
:1022300001EB0451BDE8104058BF7047401C1CBF63
:10224000B2F1004F704700280CBF491C20F001007C
:10225000704712EB020E43EB030218BF4FF0010E62
:102260004EEA4202ACF1200CDCF11E0E54D943FAC6
:102270000CFE10EB0E0051F1FF31CCF11E0ED5D546
:102280000EF1010E12FA0EFE404141EB010101EB8D
:10229000445C5FEA5C5C10D910EBDE7001EB04512A
:1022A00038BFBEF1004FBDE8104018BF704700288E
:1022B0000CBF491C20F00100704730D24FEAD42CEB
:1022C00011F5001124F400641BD0B1FA81F20B3A2D
:1022D000A41AA41ED2F12003914030FA03F319434B
:1022E000904001EBCC71002C01EB0451BDE8104093
:1022F000A8BF704701F1C0414FF0000001F000415C
:102300007047B0FA80F310FA03F100D110BDE41A5F
:10231000173C4805C90AE4E701EB045110BD491018
:1023200001EB0451BDE810404FEA300002E04FF0ED
:10233000000170474A0008BF0042F8D0B2F5001F04
:1023400028BF704701F000414FF0000070479EEA3F
:10235000445F07D011EA5E0FBDE8104004BF0021C2
:1023600000207047BDE8104070B5FFF7AFFD00BF1B
:1023700040DFF63E83F00041104670470000E0FF6A
:1023800043004FEAD30C4FEA3C0C43401FBF4007C9
:102390000CF1605113F0FE4F70471CF0006F03D139
:1023A00000200CF0004170470CF0004343EA5070ED
:1023B00010B540EACC0000F0E8F900BF0000009240
:1023C0004FEA0001FFF7D0BD4FF000414FF0000091
:1023D000A1F500217047000090EA010F48BF81F08D
:1023E000004100F12E82421A3CBF801A89184FEA40
:1023F000D0524FF07F4C1CEA410FA2EBD15318BFD3
:102400009CEA026F00F03B804FF0004C4CEA002049
:102410004CEA012121FA03FC10EB0C0C1ED202F154
:10242000FF325FEA1C2040EBC25038BF70471CF0FF
:102430007F0F4FEA400C18BFBCF17F4F38BF704789
:10244000C3F12003994008BF20F00100BCF17F4F89
:1024500038BF7047A0F1C04000F0DDB94FEA3C0042
:10246000000A40EBC25028BF1CF0FF0F4FEA400C9F
:10247000E6D018BFBCF17F4F38BF7047EAE79CEA4F
:10248000026F05D010EA5C0F08BF00F000407047F3
:1024900010B500F07AF900BF64FBBE3E4FF47F0C2C
:1024A0001CEAD0121EBF1CEAD11392EA0C0F93EA69
:1024B0000C0F00F0858090EA010F48BF42F4807253
:1024C00040F4000C41F400002CF07F4120F07F40EC
:1024D00000B58142A2EB03020FF2081CACEB504E98
:1024E000C0F100009EF800E04FEA4E0E00FB0EFC2B
:1024F00038BF49004FEA2C1C02F5FA020CFB0EF320
:102500004FEACE1E4FEA112C4FEAC1210EEB635E5B
:1025100042EB22420EFB0CFC4FEA1C5300FB031162
:102520004FEA112C4FEA01310EFB0CFC4FEADC4C58
:1025300000FB0C11C14228BF09184CEB03335DF8B6
:1025400004EB10EB410143EBC250B2F57C0F38BFF6
:10255000704729D512F0F00F1CBF00F1C04000F009
:1025600000407047008182838485868788898B8CB0
:102570008D8E8F919293959697999A9C9D9FA0A2EC
:10258000A3A5A7A8AAACAEB0B2B3B5B7B9BCBEC03C
:10259000C2C5C7C9CCCED1D4D7D9DCDFE2E6E9ECDD
:1025A000F0F3F7FAFE0000004FEA400C0CF1807CDB
:1025B000BCF17E4F28BF7047B0F1C04000F02BB98E
:1025C00090EA010F0CEAD11348BF42F480726245D1
:1025D00038BF634507D213F47F0F16D080EA01009D
:1025E00000F00040704710B500F0CFF8097EFC3EC7
:1025F00000F005B880EA010000F00040704780EA72
:10260000010000F0004000F006B912F47F0F04BF93
:102610000248704780EA010000F0FDB80000C07F6A
:10262000C10DD1F19E0206DB4FEA002343F00043C7
:1026300023FA02F07047004207D54FEA4001B1F19A
:10264000FE4F02D24FF00000704710B500F09DF829
:1026500049922480002070476FEA200070470000F4
:10266000B0FA80F310FA03F2C3F19D030AD0D90542
:1026700001EB1220530638BF704700F1010008BF7C
:1026800020F00100704700004FF47F0C1CEAD012CC
:102690001EBF1CEAD11392EA0C0F93EA0C0F00F054
:1026A000478090EA010F48BF42F480724FF0004C1F
:1026B0004CEA00204CEA012102EB0302A0FB0113CB
:1026C000A2F50002002918BF43F001035B0028BFF8
:1026D0004FEA330342EB22425FEA132C4CEBC25029
:1026E0002EBFBCEB436FB2F57C0F70474FEA036C13
:1026F000BCF1004F08BF20F00100B2F57C0F38BFDD
:1027000070470BD582F0FF0212F5803FC8BF7047BB
:1027100000F1C040D8BF00F00040704700F5000C49
:102720005FEA4C0C48BF7047B0F1C04000F073B88E
:1027300090EA010F0CEAD11348BF42F4807262455F
:1027400038BF634504D280EA010000F000407047C2
:1027500010B500F01AF800BF8900013E00F007B87C
:1027600000F009B85FEA410C5FEA1C6C08D080EA0F
:10277000010000F050B85FEA400C5FEA1C6CF6D133
:102780004FF00040A0F5800070470EF1020E2EF0D1
:10279000030E5EF8044B244204D44FEA4102B2F126
:1027A0007F4F11D84FEA4003B3F17F4F0CD80ED1C1
:1027B0004FEAD07CB2F17F4F0CEB4C0C0CF1020CC9
:1027C00008BF4CEBD17C04E04FF0080C01E04FEA6D
:1027D000D17C0CEB4C0324FA03F404F00704B4F1AD
:1027E000040C06D20EEB840CBDE810404CF0010C3A
:1027F0006047DFE80CF0070802024FF00040A0F548
:10280000800010BD0846420018BFD2F1807288BF18
:1028100000F0004010BDFF2141EAD050C0057047D4
:1028200080F0004090EA010F7FF5DDAD81F00041BE
:1028300000F007B890EA010F48BF81F000413FF572
:10284000D2AD421A04D882F00042A0EB020011443B
:102850004FEAD0524FF07F4C1CEA410FA2EBD1530C
:1028600018BF9CEA026F4AD04FF0004C4CEA00209F
:102870004CEA012121FA03FCB0EB0C0C0FD412F04E
:10288000FE0F36D05FEA4C001DD5001240EBC2505F
:1028900038BF70471CF03F0F18BF70470BE0A2F124
:1028A00001025FEA1C2040EBC25038BF70471CF0A9
:1028B0007F0F18BF7047C3F12003994014BF401E1B
:1028C00020F00100704780084FEA122308BF7047CC
:1028D000B0FA80FCA2EB0C02CCF1280C60FA0CF0F0
:1028E00093EA122F04BF00EBC25070474FEAC37047
:1028F0007047130A5FEADC1008BF7047F6E79CEAEE
:10290000026F04D010EA5C0F08BF0020704710B5BA
:10291000FFF73BFF40DFF63E81F0004070470000CC
:1029200000000000000000000000000000000000A7
:1029300000F800000000000000333000000000102C
:102940000C06100C0600000000000000000040C053
:102950007840C0784000043F04043F040400007045
:1029600088FC08300000001820FF211E0000F0083D
:10297000F000E018000000211C031E211E0000F0E2
:102980000888700000001E2123241927211010162A
:102990000E00000000000000000000000000000029
:1029A00000E01804020000000007182040000002A8
:1029B0000418E0000000004020180700000040401C
:1029C00080F0804040000202010F0102020000007E
:1029D00000F0000000000101011F010101000000E2
:1029E00000000000000080B0700000000000000047
:1029F00000000000000000010101010101010000D0
:102A00000000000000000030300000000000000066
:102A1000000080601804006018060100000000E05B
:102A200010080810E000000F102020100F00001008
:102A300010F8000000000020203F2020000000705F
:102A40000808088870000030282422213000003057
:102A50000888884830000018202020110E0000004F
:102A6000C02010F8000000070424243F240000F8D0
:102A70000888880808000019212020110E0000E0B5
:102A8000108888180000000F112020110E00003857
:102A90000808C83808000000003F0000000000706F
:102AA000880808887000001C222121221C0000E0F8
:102AB00010080810E0000000312222110F00000071
:102AC00000C0C00000000000003030000000000026
:102AD0000080000000000000806000000000000096
:102AE000804020100800000102040810200040402F
:102AF0004040404040000404040404040400000872
:102B00001020408000000020100804020100007026
:102B100048080808F0000000003036010000C0300E
:102B2000C828E810E0000718272423140B00000031
:102B3000C038E0000000203C23020227382008F8BB
:102B4000888888700000203F202020110E00C030AF
:102B5000080808083800071820202010080008F886
:102B600008080810E000203F202020100F0008F87F
:102B70008888E8081000203F20202320180008F84B
:102B80008888E8081000203F200003000000C030C3
:102B900008080838000007182020221E020008F844
:102BA00008000008F808203F210101213F2000080B
:102BB00008F8080800000020203F20200000000046
:102BC0000808F8080800C08080807F00000008F82E
:102BD00088C028180800203F20012638200008F867
:102BE000080000000000203F20202020300008F8CE
:102BF000F800F8F80800203F003F003F200008F8E8
:102C000030C00008F808203F200007183F00E010FF
:102C100008080810E0000F10202020100F0008F80E
:102C200008080808F000203F210101010000E01021
:102C300008080810E0000F18242438504F0008F846
:102C4000888888887000203F2000030C30200070A6
:102C50008808080838000038202121221C001808A4
:102C600008F8080818000000203F2000000008F8BD
:102C700008000008F808001F202020201F00087806
:102C8000880000C83808000007380E010000F80866
:102C900000F80008F800033C0700073C0300081890
:102CA00068808068180820302C03032C30200838F6
:102CB000C800C83808000000203F200000001008AD
:102CC0000808C838080020382621202018000000F5
:102CD00000FE020202000000007F40404000000CA5
:102CE00030C000000000000000010638C0000002F3
:102CF0000202FE000000004040407F000000000093
:102D000004020202040000000000000000000000B5
:102D100000000000000080808080808080800002B1
:102D2000020400000000000000000000000000009D
:102D30008080808000000019242222223F2008F891
:102D4000008080000000003F112020110E000000D4
:102D5000008080800000000E112020201100000063
:102D600000808088F800000E112020103F20000015
:102D7000808080800000001F222222221300008019
:102D800080F0888888180020203F20200000000064
:102D9000808080808000006B94949493600008F899
:102DA000008080800000203F210000203F20008024
:102DB0009898000000000020203F20200000000024
:102DC00000809898000000C08080807F000008F894
:102DD000000080808000203F24022D302000000869
:102DE00008F8000000000020203F20200000808024
:102DF000808080808000203F20003F20003F808036
:102E0000008080800000203F210000203F20000043
:102E1000808080800000001F202020201F008080F4
:102E200000808000000080FFA12020110E00000023
:102E3000008080808000000E112020A0FF80808014
:102E400080008080800020203F21200001000000C1
:102E50008080808080000033242424241900008096
:102E600080E0808000000000001F202000008080A3
:102E7000000000808000001F202020103F20808064
:102E800080000080808000010E30080601008080F4
:102E90000080008080800F300C030C300F00008019
:102EA0008000808080000020312E0E312000808044
:102EB00080000080808080818E7018060100008074
:102EC0008080808080000021302C22213000000092
:102ED0000000807C020200000000003F4040000033
:102EE0000000FF00000000000000FF0000000002E2
:102EF000027C800000000040403F0000000000060F
:102F000001010202040400000000000000000000B3
:102F1000302F000800000020280000006C0100088D
:102F2000582F00082800002028070000880100080A
:102F3000CD4C0B430000000000A24A04000000003A
:102F40000000000001020304060708090000000059
:082F5000000000000000000079
:04000005080001CD21
:00000001FF
